:0C00000032C0FECFFDCFFCCFFBCFFACF0B
:10000C00F9CFF8CFF7CFF6CFF5CFF4CFF3CFF2CFC0
:10001C00F1CFF0CFEFCFEECFEDCF2B2C3B3D5B5D97
:10002C002A3F3C3A3E5C7C22000056312E30203276
:10003C00332D30352D323031332000626F6F742FF9
:10004C00736462696F732E726B7300626F6F742FBF
:10005C00626F6F742E726B730000F894EE27ECBB1A
:10006C00F1E0FBBFEBBFE5BFF8E1F1BDE1BD8DE019
:10007C00A2E0BB27ED938A95E9F780E094E0A0E637
:10008C00ED930197E9F7EFE5EDBFE4E0EEBFC0E6D5
:10009C00D1E0D6C9989BFECF9899FECF0895FADF90
:1000AC00EFEFE1BB04C0F6DF7DDA0895F3DFE88102
:1000BC00E2BB21960895EEDFE0B3089578DA81DA99
:1000CC0083DAE0E0F2E083DA43C171DA64D740C14D
:1000DC002C97E2E0F0E060E070E07BDA83DA86DA1D
:1000EC00E2E05E2EF4D6E03011F0E1E017C1E0E082
:1000FC00E887E987EA87EB877DDA81DA11F0E1E0BE
:10010C000DC1E0915E03F0915F03E535AAEAFA07B1
:10011C0019F5E0919601F0919701E634A1E4FA0704
:10012C00F9F0E091B201F091B301E634A1E4FA07E1
:10013C00B9F069DA5CDE21F4E0912203E03009F4D5
:10014C000BC0E0912603F091270360912803709176
:10015C0029035EDA44DE81F6E1E05FDAE1E0DEC03D
:10016C00E0917601F09177015BDA5DDA61DA37DEE6
:10017C0049F4E0918401F0918501609186017091C0
:10018C00870151DAE0917301F091740156DA58DA73
:10019C0026DE49F4E0918001F091810160918201A9
:1001AC00709183014FDA60907101709072014CDA9A
:1001BC002ADA4FDAE0936703F093680360936903DC
:1001CC0070936A03E0E0E0936B03E0936C03E093BD
:1001DC006D03E0936E03A0917001A23050F03CDAF5
:1001EC00F7DCE0936B03F0936C0360936D037093F7
:1001FC006E0340906D01E091700138DA39DA3DDA26
:10020C0042DD11DA21DA3BDA0BDADCDDEBDC30DA59
:10021C00E9DC37DAF3011ADD03DAE9DC35DA66DD1D
:10022C00EE5FFF4F6F4F7F4FE0936F03F0937003C0
:10023C0060937103709372030FDACFDCF30106DD68
:10024C0008DAE0937703F093780360937903709363
:10025C007A031DDAA73FEFE0BE07E0E08E07E0E08F
:10026C009E0708F479CF13DAA73FEFEFBE07E0E063
:10027C008E07E0E09E0728F4EFD9AADC11DA5524AA
:10028C004CC0E0918C01F0918D0160918E017091C8
:10029C008F0106DAA0916E01B0916F01A4DDD8F543
:1002AC00A9D907DAB5D9ABD911F0E1E037C0A091E3
:1002BC006001B09161018091620190916301A2355E
:1002CC00E2E5BE07E1E68E07E1E49E07C9F4E091A2
:1002DC004403F09145036091460370914703E23764
:1002EC00A2E7FA07A1E46A07A1E67A0749F4E6D97E
:1002FC00E030A0E0FA07A5E56A07AAEA7A0709F058
:10030C000AC0E8E4F3E0E3D9ECE4F3E0E0D9E5D9A2
:10031C0011F0E1E003C0E1E05E2EE0E02C960895E0
:10032C00A0D5E03009F452C5D3DE08952497E091AE
:10033C005A03F0915B0381D9552049F0E0915403A5
:10034C00F09155036DD995DC9AD956DC7BD978D9C7
:10035C0024960895552089F4C5D9D0D9D5D9E2E091
:10036C00EA9F1A920A92DDD932D9E03019F5DCD91C
:10037C00EF7FFF7F607070700EC0B4D9DED9C4D926
:10038C00E2D95FDCE5D923D9E030A1F4CDD9EF7FF8
:10039C00FF7F6F7F7F70E0936003F0936103609346
:1003AC00620370936303D8D9E0D910F0E6D908F052
:1003BC00EFD90CC500C5B8D9E250F0406040704090
:1003CC00F1D961DCF1D904DCF8D90895FFD999F1A0
:1003DC00A1E8B3E0ED91FD913196FE93EE93FAD93D
:1003EC00109739F0FCD921F4F5D96A167B0609F07F
:1003FC0006C0FFD9E0E0E093400301DAE7C403DA7A
:10040C00EF70C1F4A7E8B3E003DAE9D941F0FBD906
:10041C001DDCDF01E42D2AD98EDC309709F00AC0EF
:10042C00FBD9CBD997DFE03009F0C5C47DD9D7DC37
:10043C0009F3FBD913C0DDD9E1E0E093800309DABD
:10044C00BCD9F3D9E9D9CBDC49F40CDAE0938703B6
:10045C00F09388036093890370938A030CDA0EDAA5
:10046C00ACDCD1D914DAB0D8E0E2F0E0B0D8089521
:10047C00ADDFE03089F410DA09F4C1D9A7D909F459
:10048C00A5C40EDAA53EA1F30BDAAE3289F30BDA72
:10049C00E87009F49BC4ECCF8EC408DAA23009F0E2
:1004AC0087C4E6DF0895E0916B03F0916C036091D3
:1004BC006D0370916E0393DC71F0C2D8A0916B0345
:1004CC00B0916C0380916D0390916E03F2D9E03082
:1004DC0011F0E1E02AC7B4D8EFD9EBD926C724979D
:1004EC0098DCF3D96AD938D909D99DD81091600311
:1004FC00F5D9F6D99F01552061F02ED91ED993D884
:10050C001068F5D9E050F240DF01E8D99ADBF2D956
:10051C009F01A2D85DDB73D8C1F52FD948F0E885CF
:10052C00E03019F0E0E07CDC07C3E6E076D82DC0C3
:10053C00552081F4D90114DC309749F4E885E0307A
:10054C0029F4EFEFFFEFED93FC9318C0D6D92E5F93
:10055C003F4F0DC0D90108DC42DC39F4E885E030AE
:10056C0019F4CED90CDC0AC0C8D92C5F3F4FA0E6D9
:10057C00B3E04ED91F5F103081F6B5CFD5D829D84E
:10058C0057D81BDC90DF4CDCD7C2E1E049DCD4C28D
:10059C00289741DCBAD9D1D8BDD9552019F4B5D991
:1005AC00ADD8B8D9BCD988D913DB29D811F0BCD9AE
:1005BC00F0C4552069F4EA8559D892D98F01D80135
:1005CC00CFDB2ED8B4D9B8D9D801ED93FC930DC09C
:1005DC00AA85B9D8A0E6B1E034DB8CD98F01D8015B
:1005EC00C3DBA5D9A1D8D801CADB9ED8F8DB49F466
:1005FC006CD98BD907DC28F4EA85FB856C857D8565
:10060C00E8D7AAD8AF3FEFEFBE07EFEF8E07EFE0CA
:10061C009E0719F0A1D8EBDB11F493D9CED87FD972
:10062C00CCDB41DFFFDBB5C491D9AC81BD815A96DF
:10063C00ED93FC9305D818DBAC81BD815496ED93FA
:10064C00FC9395C786D987D9E0E0F2E087D9A881D9
:10065C00A41568F4E8810AD87FD80FD82AD9E030DD
:10066C0011F0E1E0B9C3E881EF5FE883F0CFE0E09F
:10067C00B3C3ACDEE030E9F4A9D871F011D9A53ED2
:10068C0019F00ED9A03039F4F9D8B9D791F4BBD8F8
:10069C00FED866D90895EDCFB6D8309719F4E5E0B9
:1006AC00BCD707C058D95FD921F4B6D85FD9E03090
:1006BC0019F0E0E0F0E00895B8D84DD9C3DF17D9B0
:1006CC000895A7DBE2E0E51511F4E1E0A2C08AD7BA
:1006DC00EC81E0783E2FEC81EF77EC83BAD848D9E7
:1006EC00E0E0E0939303BED84CD9552011F452D9D5
:1006FC0048D9E0916001E03059F4EC81E03009F028
:10070C0087C0E0E0E0934003E0E1E0934B0357C087
:10071C0000E611E044D990D08F01E1E0F0E0E01761
:10072C00F10709F475C06BD8A3DEE03019F0E1E0F5
:10073C0077DB2BC74BD839F09ED834D936D944D770
:10074C00F1D6E03089F7EC81E03021F0002400167E
:10075C00010609F017C07DD80BD9E1E0E51521F4AD
:10076C0027D980D84ADB09F002C014D901D92ED878
:10077C0039F4EC817BD73197EA939ED051DB05C7D6
:10078C00E8E047C023D809F443C0D0DDFAD819D922
:10079C00B1F089D8E071E1F1303059F0A0918B03C0
:1007AC00B0918C0380918D0390918E030DD925DB34
:1007BC0009F001C02DC0E1E0E0939303ABCF1FD84B
:1007CC007DD70BD970D8E07119F0E2E0E0937F038C
:1007DC00A091A003A130A9F415D999F4A091A80374
:1007EC00B091A9038091AA039091AB0347D805DB84
:1007FC0041F4A091A203B091A30305D8EA17FB071B
:10080C0009F003C0EFD6EDE004C0E0E009DBBDC6A3
:10081C00E4E0E0936403E1E003DBB7C6E981FA812D
:10082C00E491E03039F0F1D8A491E881EA1709F4A9
:10083C0020C4F4CFE0E01DC4ECDAB4D8EDD830E03D
:10084C0008E0AC81BD811D91AC83BD83103029F4CF
:10085C00303071F1B6D6E4DA8AC61F3219F4E0D81A
:10086C00DFDA85C61E3239F4303011F1083001F56B
:10087C0038E00BE0E6CF0317D9F0E6E2F0E0A4D6BF
:10088C001A93CCDFE030A1F4113290F0103880F4E0
:10089C00113610F01B3708F003C020D8B0971E2F6C
:1008AC00A5E3B3E0E32F3F5FE1D624D81083C9CF93
:1008BC00E1E0F0E0B5DA5BC62F97ADDAFE013696D3
:1008CC0083D670D8B0D831F046D84DD809F04DC089
:1008DC002BD72DD8CEDE8F0174D821F459D731D82F
:1008EC0045D843C05CD837D8E0E2F0E037D857D8C9
:1008FC00FE01389669D697D849F4C0D79AD8A9F58D
:10090C0049D83FD847D869D8E0E030C0F8013B96C9
:10091C00A0E1A08344D88CD690D8B0D78AD829F53A
:10092C0010D84BD748DD8BD88DDE13D875D8EEE2B6
:10093C00E0936001E0E1E0936B010BD879D67DD8B0
:10094C0081D86AD8EEE2E0938001E0938101E0E186
:10095C00E0938B01E0919303E03019F073D879D7D1
:10096C006CD8E2D62ADAB1DB01C0E1E05BDA629640
:10097C000895F1D76AD831F445D809F427C232D694
:10098C00E4E04BD618C2E7D760D839F48FD7A23041
:10099C0009F41CC227D6E4E040D60DC259D819F48C
:1009AC0058D70BD713C05ED8309709F00FC2A5D714
:1009BC000BD8FAD617D9F6D6CFD911DA09F006C268
:1009CC0057D8FBD6C7DCE03009F0F5C1ADD607DA55
:1009DC0059F4C1D7C8D709F0EEC13AD819F4A4D646
:1009EC00D0D702C045D8C2D79FD6E0939703F093D7
:1009FC0098036093990370939A03DDDC95D6B8D76E
:100A0C00E5C109DAFFD711F03CD835C03CD8309796
:100A1C0049F1C4DFE03079F525D838D8AA81BB81FB
:100A2C00A017B10710F40A811B81FAD7309781F017
:100A3C00F7D7CAD5C9D7C1D915D8C6D5B0D771D2B1
:100A4C00E030C9F4F801AC81BD8154D7EC83FD834F
:100A5C0023D8F801FED529D816D8E01BF10BEA8370
:100A6C00FB83D4CF19D82AD8C8D910F430D838D8A9
:100A7C00E0E0D8D97CC5B6D557D779C5CCD9E091AB
:100A8C009F03E03011F4E0E098C0E0E0E0939F03B6
:100A9C00F5D6B5D509F090C0B6D6F9D62DD80ED866
:100AAC00D8015C966CD97BD7D4D6C7D7E7D685D975
:100ABC000CDB83C02497AC81A13011F408D804C09E
:100ACC00AC81A23039F4FAD7AD81BE818F81988583
:100ADC007FD815D8FCD718D895D940F0F8D714D8AA
:100AEC0086D8AD83BE838F83988702C053D7DDD75A
:100AFC0010D8A8D5C4D5A130E0E8BE07E0E08E0739
:100B0C00E0E09E0728F0E0E0F0E860E070E09AD5C5
:100B1C0058D55AD5B8D758D574DFE03011F0E1E08C
:100B2C000BC0ADD5F6D75ED8EAD7F3D758D901F7B5
:100B3C00A5DFCDD742D6E0E0299608956CD962D7CF
:100B4C0011F09FD737C0EAD7309719F4E9E065D593
:100B5C0031C088D79BD7E2D7E017F10720F400917A
:100B6C006503109166031ADFE03021F595D7F80183
:100B7C0070D5A0919303B0919403809195039091BB
:100B8C00960340D920F488D7F80163D5A9D7E0E0C3
:100B9C00F2E0E017F10719F017D731D559F40093AB
:100BAC006003109361035ED7E0936203F0936303D9
:100BBC00E0E003C063DF16D5E1E037D9089522D712
:100BCC0011F05FD719C000D734D7B1F465D7B4D6BC
:100BDC0040D56BD7A0916003B09161039FD7EA1BFE
:100BEC00FB0BE0936503F093660398D7309719F4E9
:100BFC0045DFE03009F4EAC0F5D4DDC02497ACD56C
:100C0C00B4D510F0BAD510F0E0E08FC38DD51AD55D
:100C1C00BFD516D5ABD6E03091F3E1E086C36D9726
:100C2C00F8D8E0917F03E03011F42BD743C020912A
:100C3C0081033091820322D6E887F9876A877B8704
:100C4C0008D6F1D4E1E8EA9300D7A1F5CBD4CED401
:100C5C00D1D4D5D479F5F9011AD64ED7FE013C96EC
:100C6C00B3D4F8013B965FD7D801E5EEEC9335D5BC
:100C7C0009F504D6C4D4F1F4C6D509D63DD7F8018C
:100C8C003B96A2D4FE013E964ED7F8D5D2D691F41F
:100C9C00F801E385E07161F0CBD48FD58CDB44D5C2
:100CAC00AED441F4CFD690D6C8D63ED5C2D611F428
:100CBC00E0E001C0E1E0B4D8A19608952497ABD848
:100CCC004AD6C3D631F58ED491D4E6D519F4E4E0E6
:100CDC00A4D41FC0D3D52BD696D5D9D50DD7E3D553
:100CEC00E07149F08CD5C4DBE03099F46FD519F084
:100CFC00E7E093D40EC025D682D459F4D801E5EEA2
:100D0C00EC931FD696D629F4A4D557D577DF8AD87D
:100D1C002EC40AD62CC476D611F0B3D616C098D6EB
:100D2C0029F497D54AD536D62CD606C0E9D545D563
:100D3C009FD61CD6E03049F461DFE03031F4C7D6E1
:100D4C00CFD69CDEE03009F441C04CD434C05FD81F
:100D5C002FE733E040EA53E001E2D9011C91DA01BC
:100D6C00EC91D901EC93E12FDA01EC932F5F3F4F1B
:100D7C004F5F5F4F0150003081F750D8F8C332D429
:100D8C0009D6F6D55CD6EFD5B1F412D6D1D67BD731
:100D9C0015C0E2E0E51511F4E1E00BC078D4C8D63B
:100DAC0072D70CC02FD621F489D608C02BD629F0C7
:100DBC00E3E0E0936403E1E0089589D6E0936003F7
:100DCC00F09361036093620370936303E0E0089512
:100DDC00E881EFB9779BFECF21960895EFEFEFB93D
:100DEC00779BFECFEFB1089516D8E0E0E91531F40A
:100DFC00AE81A13511F0A83509F401C007C0AA8154
:100E0C00BB818C819D81E9E000D791D5C298EE81A0
:100E1C0097D6ED8195D6EC8193D6EB8191D6EA816C
:100E2C008FD6AE81A83411F4E7E801C0E5E988D685
:100E3C0000E0D4DF1E2FEF3F19F40F5F0030C9F72D
:100E4C00103019F4AE81AA3709F006C0C7DFE07480
:100E5C009E2EC4DFC3DFC2DFC29AC0DFE12FE2D710
:100E6C0067C11A9310E0E7E76DD6E9E6EA93E0E094
:100E7C00F0E060E070E46AD611F4E0E0F6C11150E5
:100E8C00103089F7E1E0F1C11A9399241AE010307F
:100E9C0019F0A4DF1150FBCFE0E454D6E130A9F4F3
:100EAC0010E0E8E4EA93EAEAF1E060E070E04ED6A4
:100EBC0009F011E0D6DFE03041F4103021F0EAE720
:100ECC0041D6E03011F4E0E0D0C1E1E0CEC11A939C
:100EDC00C29AE2E5EDB9E0E0EEB91AE0D5DFE03018
:100EEC0031F01150103011F435D6BFC1F7CFE0E519
:100EFC00EDB9709AE1E0F0E067D35ED6E0E0B5C101
:100F0C008AD700E010E06ADFAE2FEA81EA1719F405
:100F1C00E0E088D7AEC0F80131968F01A1F704D577
:100F2C00A8C077D7E1E5EA93E985FA856B857C85DE
:100F3C000DD661F5C298EEEFEA93E2DFE03031F5C1
:100F4C0020E032E0022E032AD9F048DF1E2FEE817A
:100F5C00FF81309721F03197EE83FF830EC060D56F
:100F6C00309759F05DD53197EC83FD83EC85FD8589
:100F7C003196EC87FD873197108321503040E2CFBA
:100F8C002DDF2CDFC29A2ADFE0E002C0C29AE2D544
:100F9C0047D72E9608953FD7E8E5EA93EB81FC817D
:100FAC006D817E81D3D509F5C298EEEFC9D500E0ED
:100FBC0012E007D549F0AE81BF81ED91AE83BF83BE
:100FCC00BFD501501040F5CFEFEFBAD5EFEFB8D544
:100FDC0005DFEF71E53049F4EFEFEA9391DFE03094
:100FEC0021F4C29AFBDEE0E002C0C29AB3D51AD754
:100FFC0028960895ABD4309769F045D53196EA839D
:10100C00FB833197FF93EF9356D8AF91BF91EC933D
:10101C00A5D5F0CF8AC1FDD620E631E0A4D5E5E315
:10102C00F3E0E217F30749F03F932F932F5F3F4F05
:10103C00E12FAF91BF91EC9302C0EBE0EED21030F8
:10104C0069F7EED672C182D4309741F0AA81BB8188
:10105C00ED91AA83BB838AD581D5F5CF66C1E88192
:10106C00E03039F0D2D4E49181D5E881E150E883C5
:10107C00F6CF23960895CBD60A2C0B2809F453C02F
:10108C0095DEE03009F053C04FD3EF7FF170607004
:10109C007070A0E0B2E080E090E094D6A3D58F0110
:1010AC00A016B10608F48501A01AB10A52D477D45F
:1010BC00A8DCE030E1F540E651E0EE81E03011F1E2
:1010CC00E0E0EE83E7E452D544D452D554D54C5FDE
:1010DC005F4F04501040E0916201F0916301A091C8
:1010EC006001B0916101EA1BFB0B31969F01201747
:1010FC00310710F4890106C0201B310B2A153B0562
:10110C0008F4980128D4D2D7EDB7FEB731975CD24A
:10111C001F930F932DD50F911F915A934A933FD440
:10112C0092DF29D5A9CF29D511F4E4E476D276D66D
:10113C002796089584D4B3D7E6E3F0E045D2E0E1F6
:10114C00EA938DDF0895E0916001E03029F401D439
:10115C00E7E4F0E039D21BD20CDCE03009F0089562
:10116C00EFEFFFEF5F010DD509F00895DDD20CD53F
:10117C0020F4A0906003B0906103E4E0F0E0AE16C0
:10118C00BF0610F4AA24BB245AD475DF0895E0E0FE
:10119C00E093600104C0FDD4F0D409F00895D3DFCE
:1011AC000895649738D637DFEDB7FEB731970CD278
:1011BC001F930F93F2D40F911F91F2D4DED4C1F58B
:1011CC00A0916001AA3319F0DEDBE03089F5F9D388
:1011DC0061F163D9E03061F55FD311F4E3E426C02B
:1011EC00FE013296F1D147D3ECE0F0E0EDD1B1D174
:1011FC00FE013E96E9D1ECE5F3E0AAD2E5D1A9D106
:10120C00FE017296E1D1E6E5F3E0A2D2DDD1A1D1E7
:10121C00E5E4ACD4FE013296D7D1E4E1F0E0D4D1D0
:10122C0012DFA9D401501040D2CFEAE0E09364035E
:10123C00F9D5669608951A9396D4ABD4153611F455
:10124C0086DD0FC0143611F439DD0BC0103011F4EB
:10125C0090DB07C0133018F41A9333DA02C0ECE0B9
:10126C00DCD18BD411F4E3E4D8D11991089591D445
:10127C0072D327DAE6E4EA9312D715D78AD47DD451
:10128C0009F4CDDC7AD411F4E3E4C7D108952497A2
:10129C001A9369D4FE0131965BD296D1ABDE80D421
:1012AC00143629F46ED411F018816FC11BC0153699
:1012BC0031F46FDDE03011F0188167C113C01636C0
:1012CC0031F45DDDE03011F018815FC10BC0E981B4
:1012DC00FA816B817C8171D51A93ECDBE03011F0D3
:1012EC00188153C1E3E442D4E0E6F3E031D26CD18F
:1012FC00AADEE0E092D1188148C12497EAE0F0E040
:10130C0063D14BD44DD43DD481F40ED29BD14EDD60
:10131C00E03059F421D294D165D494D191D134D404
:10132C0010F4A880B98017D3A6DE24960895E5E6BC
:10133C00F3E04AD132D434D4F1D3309711F4EBDC4E
:10134C001CC0FCDBE03009F00895E6E40FD4E0E6C5
:10135C00F3E03AD10DD4A7D6E0916203F091630388
:10136C00FFD232D1E9D230D145DE1AD428DCE030BC
:10137C0009F00895D3D3309721F7E3E44ED10895C3
:10138C001A9318E0E981E07821F0A99A0CD4A99875
:10139C0003C0A99808D4A99A8AEC92E00197F1F7B6
:1013AC00E981EE0FE9831150103061F71881229614
:1013BC0008952DD5CED2E7E5F0E006D1E8D0D9DA04
:1013CC00E030D9F5DED3C9F5C7D1A730E0E0BE07D0
:1013DC00E0E08E07E0E09E0780F1BED1A130E2E0B4
:1013EC00BE07E0E08E07E0E09E0738F52091600331
:1013FC0030916103AED23A932A9303DBE030E9F4E7
:10140C00A19A00E210E0A7D2BBDFF80131978F015F
:10141C00D1F7E6EEEA93B4DF40E651E0DA014F5F34
:10142C005F4FEC91EA93ACDFF90131979F01B1F773
:10143C00A998A198E0E0F2D49AC0E1E0EFD497C06B
:10144C00B1D0EDE2E7BBE1E1E8BBE0E0E4BBE5E015
:10145C00E5BBAED33DD69A990AC0ABDFE03039F08C
:10146C00C09B02C0C09801C0C09AA2D3F9CFC0984B
:10147C001AD679D31331E9F776D3143BD9F773D352
:10148C001735C1F770D3C09AE0E4EA9308D673D34A
:10149C0047D7E03019F0E2E069D3E9CFE0E0BDD006
:1014AC00103011F474DE36C0E2E460D3FCD516D2F1
:1014BC00E130A0E0FA0711F43DDE2CC0E230A0E0F0
:1014CC00FA0711F468DE26C0E330A0E0FA0711F445
:1014DC0068DE20C0E430A0E0FA0711F4ACDE1AC0DC
:1014EC00E530A0E0FA0711F4D2DE14C0E630A0E03B
:1014FC00FA0711F402DF0EC0E730A0E0FA0711F48E
:10150C0016DF08C0E830A0E0FA0711F4B0DE02C024
:10151C00ECE083D032D321F0E0916403EA93BFD5A1
:10152C00A6CFFFCF6627772789919991E991F991F9
:10153C00A991B991009629F001976D917191671756
:10154C00C9F3671B10F4EFEF0895E0E009F0E395A1
:10155C00089599818881009641F0BD81AC81FB8111
:10156C00EA8161916D930197E1F7FD81EC812696FB
:10157C000895B981A881109631F0FC81EB816A81C4
:10158C0061931197E9F7EB81FC8125960895E99118
:10159C00F991A991B991CD0105900D920020E1F737
:1015AC00FC010895E0E0E1BBEFEFE2BB0895E0E65B
:1015BC00F1E0FA93EA93EA81FB816C817D81FDD3A2
:1015CC000895E0E0F0E00895FA93EA930895FCDFC3
:1015DC00A8CCE0937B03F0937C0360937D03709322
:1015EC007E030895E0E0E0937F030895E0E0E0934C
:1015FC00A0030895E885F9856A857B850895DDD378
:10160C005DD5E0300895A885B9858A859B850895B8
:10161C00E887F9876A877B87EDCFE09364030895A9
:10162C00662777270895EC83FD836E837F83089567
:10163C00EC81FD816E817F810895F2DFB4D3089532
:10164C00A8D30895B0D30895E0916E01F0916F0185
:10165C000895E6DFBDD20895EBDFA0916703B0914A
:10166C0068038091690390916A030895F0E00895EE
:10167C00AC81BD818E819F81089500D308958ED356
:10168C000895DF01CB010895E42DF0DFF6CFA09192
:10169C006F03B09170038091710390917203089560
:1016AC00E0937303F0937403609375037093760364
:1016BC000895EF5FFF4F6F4F7F4F0895E0915C03EC
:1016CC00F0915D0360915E0370915F030895AFEF3D
:1016DC00BFEF8FEF9FEF6CD308958CDF6ED3F5D4F3
:1016EC00E0300895E0E6F3E06FDFA0916003B09185
:1016FC00610380916203909163030895E0E0F1E04F
:10170C0060E070E0F3D20895A0916703B091680394
:10171C008091690390916A035BD24FD3A0916003CF
:10172C000895E2E0F0E00895E0916003F091610328
:10173C0060916203709163030895E0E8F0E060E06B
:10174C0070E0D4D20895BB27E0E8F0E0F7D208951A
:10175C003BDFE4E0F0E00895A0916003B0916103F9
:10176C0080916203909163030895A230E0E0BE077C
:10177C00E0E08E07E0E09E070895E0916F03F091A2
:10178C0070036091710370917203E6DF3BD308958F
:10179C00E0E0E0936003E0936103E0936203E09385
:1017AC00630308956EDF70CFA0917703B091780337
:1017BC008091790390917A030895E0936003F093FC
:1017CC00610360936203709363030895E091800357
:1017DC00E0300895A0918103B09182030895A09107
:1017EC008303B09184038091850390918603FFD28B
:1017FC000895E7DEE0938103F09382030895E0E01F
:10180C00E09380030895E0918103F09182030895A1
:10181C00B1D24FDFB9D20895E0918303F0918403E4
:10182C00609185037091860308957EDFE0938303B6
:10183C00F09384036093850370938603BCD574DFA7
:10184C00E0938703F09388036093890370938A0372
:10185C000895E0918B03F0918C0360918D0370914E
:10186C008E030895E0917303F091740360917503F6
:10187C00709176030895E0E4F3E0A6CEE09187033F
:10188C00F09188036091890370918A030895EF7039
:10189C00F070EE0FD2D10895E0914003E03008953E
:1018AC00A09140030895E0914B030895A0917F030C
:1018BC0008958ED182D209C4A0916703B0916803B8
:1018CC008091690390916A030895E0917B03F091F4
:1018DC007C0360917D0370917E030895E12FC6CE49
:1018EC00A0E6B1E0EE0FFF1FEA0FFB1F0895E0E644
:1018FC00F1E00895EA0FFB1F0895ABE9B3E088CF40
:10190C00EFEFFFEF6FEF7FE00895AA85BB858C8525
:10191C009D850895EE83FF83688779870895EE810E
:10192C00FF81688579850895E1E07CD20895EA838A
:10193C00FB836C837D830895E0916003F0916103D8
:10194C000895EA81FB816C817D810895E881F9819C
:10195C000895CDDF39CEE0E0EA93089535DE09CE67
:10196C00E05AFE4F0895BBD5E030089526D210C63C
:10197C00E0939B03F0939C0360939D0370939E03F1
:10198C000895E0938B03F0938C0360938D03709315
:10199C008E030895E0E0F0E060E070E008951A93A3
:1019AC000A930895E5E3F3E00FCEEBE0F0E0089541
:1019BC00A0919B03B0919C0380919D0390919E03F9
:1019CC000895002E012A0895E0919B03F0919C0349
:1019DC0060919D0370919E030895E0939303F0939F
:1019EC0094036093950370939603D4DFE0938F0375
:1019FC00F09390036093910370939203E1E0E09372
:101A0C007F03089553DFA1300895E981FA8131965F
:101A1C00E983FA8331970895E0E2EA93C6DF9ECF1B
:101A2C00EC81FD810895C1DFCFDD93DDE989E030E4
:101A3C000895C3D14AD3E0300895BFD1F5C5E1E094
:101A4C00EA930895E0E8F1E0BFCD3BD6E03008958D
:101A5C00E0918F03F0919003609191037091920348
:101A6C00BED10895E0918F03F0919003F170089529
:101A7C00E0919703F09198036091990370919A0308
:101A8C000895E3E0CACDEA81FB810895A0E0B2E0BD
:101A9C00AE1BBF0B8D010895A0918F03B0919003E5
:101AAC0080919103909192030895E0938F03F093AA
:101ABC00900360939103709392030895E0919303C4
:101ACC00F091940360919503709196030895E091C1
:101ADC008F03F0919003609191037091920308959C
:101AEC00E0939303F09394036093950370939603A0
:101AFC00E1E0E0939F03089533DF8F010895ED83B8
:101B0C00FE836F8378870895AD81BE818F81988520
:101B1C000895ED81FE816F8178850895E0916503CC
:101B2C00F0916603089550DDE5E1F0E04DDD11CD57
:101B3C00EAE077D0EF5FFF4F6F4F7F4F90D032CE00
:101B4C00EA9346C9EA9326DF38D14EC936D14CD92F
:101B5C00E0300895E2E061DDE1E00895F7DE3197D1
:101B6C00E883F9830895A7D21E2F0895EA939EC2A5
:101B7C00D8DD2ADD68CAE1E4F9CFE0916403E030F6
:101B8C00089510D9E0300895D5018827992735D1CB
:101B9C00089541DAE1E4EA9382C2C3DD15DD2ACA75
:101BAC00E1E4EA937CC28AEC92E00197F1F70895A4
:101BBC00E4E6F0E009DD00C0E991F991309639F0E6
:101BCC0080ED97E00197F1F7A8953197C9F7089543
:101BDC00EA0FFB1F681F791F0895AE0FBF1F861FEA
:101BEC00971F0895EA1BFB0B680B790B0895AE1B2E
:101BFC00BF0B860B970B0895EA2BFB2B682B792BCD
:101C0C000895F195E195F0400895EE230E2EFD0117
:101C1C00BC0131F0EE0FFF1F661F771F0A94D1F73E
:101C2C000895EE230E2EFD01BC0131F076956795DB
:101C3C00F795E7950A94D1F70895EE0FFF1FEE0F75
:101C4C00FF1FEE0FFF1FEE0FFF1F0895F695E79590
:101C5C00F695E795F695E795F695E79508957695BB
:101C6C006795F795E7950895E62FF72F60E070E0FC
:101C7C0008956E2F7F2FE0E0F0E008956F2F660F30
:101C8C00660B762F08957A9F702D6B9F700DF89FC1
:101C9C00700DE99F700D6A9F602D710DFB9F600D9B
:101CAC00711DE89F600D711D8827FA9FF02D610D45
:101CBC00781FEB9FF00D611D781FEA9FE02DF10D51
:101CCC00681F781F08950024112490E1AA0FBB1FF0
:101CDC00001C111C0E1A1F0A18F40E0E1F1E01C038
:101CEC00A1609A9599F7FD01D00108953F934F9308
:101CFC005F93002411244427552730E2AA0FBB1F01
:101D0C00881F991F001C111C441F551F0E1A1F0AF7
:101D1C00460B570B28F40E0E1F1E461F571F01C0F3
:101D2C00A1603A9559F7FD01BC01D001CA015F9140
:101D3C004F913F910895C7DFFD010895E894B7FFD7
:101D4C0004C0A095B09511966894F7FD5ADFBBDFDF
:101D5C00FD010EF456DF0895C9DFFD01BC010895A5
:101D6C00ED91FC9111970895ED91FD916D917C9100
:101D7C0013970895ED91FD916D917D910895ED93DB
:101D8C00FD936D937C9308957E936E93FE93EE93E7
:101D9C000895E881F9816A817B810895A881B981D0
:101DAC008A819B810895E883F9836A837B830895F4
:101DBC00A083B1838283938308957A936A93FA9371
:101DCC00EA930895182E862F612D192E972F712DB9
:101DDC001B2EBF2FF12D1A2EAE2FE12D089530970B
:101DEC0060407040089500240A160B0608950024E4
:101DFC000A160B06080609060895EA17FB0768077A
:101E0C0079070895AE17BF078607970708955A9369
:101E1C004A933A932A931A930A9308955D814C81BD
:101E2C003B812A811981088108950991199108959E
:00000001FF
