:0400000069C197C17A
:10000400FDCFFCCFFBCFFACFF9CFF8CFF7CFF6CFA8
:10001400F5CFF4CFF3CFF2CFF1CFF0CFEFCFEECFD8
:10002400EDCF500058006000680070007800530065
:1000340044007700000000000000000800000010E9
:10004400000063004A0052005A0062006A00720015
:100054007A0043004B0042006B005B0059004900EA
:100064004000560100007B0053026B0041004E002B
:100074007E006C00560066004F006E004D007D004F
:1000840046005F006F005100000048005C017A00E8
:1000940043004B005B0200044C005E0064007400EB
:1000A4007C00450055005D00650053005202670066
:1000B40062006A0072000002570047005C0076008C
:1000C400540075006D00630073007B00000269003A
:1000D4004A0052005A0051000001000000007F0055
:1000E400000000000000000161007900710042007E
:1000F40073000000000000000000000050005800E1
:100104006000680070007800530044027702000029
:1001140000000000000800000010000063004A0016
:1001240052005A0062006A0072007A0043004B00D9
:1001340042006B005B00590049004000560100007A
:100144007B0053026B00410055005C006E005D00B3
:100154006C0075007C005F006F005700450047008D
:100164005100000048005C017A0043004B005B0230
:10017400000474004F007E004C00460056007D00D1
:100184006500640076006700670262006A0072001E
:1001940000024E0077005E006D004D0066004700CF
:1001A400540044007300000269004A0052005A00DF
:1001B40051000001000000007F000000000000006A
:1001C400000161007900710042007300000000002A
:1001D400000000000000FF09FF050301020CFF0AF4
:1001E4000806042510FFFF5D4AFF5B2611FFFFFF91
:1001F4004B3C3B2712FFFF4D4C3D281413FFFF5E81
:100204004E3E2A2915FFFF504F403F2B16FFFFFF9C
:1002140051412C1718FFFF52422D2E1A19FFFF537C
:100224005443442F1BFFFFFF45FF301CFFFF3A558B
:100234003231FF46FFFFFFFFFFFFFFFF1DFFFF57A8
:10024400FF4736FFFFFF66675848493700210B39DF
:10025400592423380EFFFFFFFF075FFFFF62FFFFF4
:10026400FFFFFFFFFFFFFFFF5CFFFFFFFFFFFFFF3D
:1002740060FFFFFFFFFFFFFF61FFFFFFFFFFFFFFC7
:10028400FFFFFFFFFFFFFFFFFFFFFFFFFFFFFFFF7A
:10029400FFFFFF22FFFFFFFFFFFFFFFFFFFFFFFF47
:1002A400FFFFFF5AFFFFFFFFFFFFFFFFFFFFFFFFFF
:1002B400FFFF34FF631FFFFFFF1E3364FF6556FF1C
:1002C400FFFFFF35FF0D200F6D001000020000003E
:1002D400F894EE27ECBBF1E0FBBFEBBFE5BFF8E120
:1002E400F1BDE1BD8DE0A2E0BB27ED938A95E9F76E
:1002F40080E094E0A0E6ED930197E9F7E2EDF2E007
:1003040085919591009761F0A591B591059015900F
:10031400BF01F00105900D920197E1F7FB01F0CFC9
:10032400EFE5EDBFE4E0EEBFC0E0D1E0C5C2CFB77A
:10033400C0939900C0B3CB7F9899C460C881C8BBEF
:10034400C0919900CFBF1895E091C403E03059F0F3
:10035400E1E16E1AEEE66E1628F4E62DF0E0E25ABC
:10036400FD4F08C009C0E4E86E1630F4E62DF0E055
:10037400E652FE4F64900895EFEF6E2E0895ED2D32
:10038400DA94E03029F080E29EE40197F1F7F7CFA8
:100394000895EEE103C0E0E501C0EFE0DE2EEFDFFB
:1003A40008952CCE089588EC90E00197F1F7A99870
:1003B400A19A88EC90E00197F1F70895A99AA19881
:1003C4000895A29AAA9885E38A95F1F7A99AA19823
:1003D4008BE18A95F1F7CC249999FECFDD24E8E0EE
:1003E400DE1668F460FE03C0AA9AC39401C0AA98FA
:1003F4006694999BFECF9999FECFD394F0CFC0FE1B
:1004040002C0AA9801C0AA9A999BFECF9999FECFDF
:10041400AA9A999BFECF9999FECFA298999BFECF59
:100424009A99BFDF22C06624CC24DD24E8E0DE16DE
:1004340060F4999BFECF9999FECF66949A9B03C072
:10044400E0E86E2AC394D394F1CF999BFECF999997
:10045400FECF9A99C394999BFECF9999FECFC0FE83
:10046400A0DF9A9B9EDF999BFECF9DDF0895A6DFB8
:10047400E3B3E670E9F72FC0A4DFF9DFEAEFE6158E
:1004840009F08FDF0895A99AA198A29AAA9881DF0A
:10049400AA9AA298A998A19A7EDFE9DFEAEAE6156A
:1004A40009F07FDF0895EDEE6E2EE6DF652CE4DFC4
:1004B4000895DD24D72C5D1409F4089574DF5D14C8
:1004C40011F05D2CF0DF7ADF089578DFE3B3E67096
:1004D40011F0EFDFFBCFA7DF0895E42DE03019F42E
:1004E400E0E0F2E004C0E13019F4EAEDF2E04F019B
:1004F400DD24E8E0DE1640F4ED2DF0E0EB53FC4F94
:10050400AFEFA083D394F5CFEFEFCE2EDD24D71435
:1005140068F5ED2DF0E0EC54FC4FE081D401F0E0FF
:10052400EE0FFF1FAE0FBF1FAD90BC90A6FE10C014
:10053400F501E770F070EB53FC4FBF011080F5013B
:1005440020D2E770A1E015D2E095E121DB01EC9324
:10055400B2FE02C0EFEDCE22B0FE02C0EFEECE221C
:10056400B1FE02C0E7EFCE22D394D1CFD5B2C5BA43
:10057400CD1421F080E49CE90197F1F7DD24EFEF3D
:10058400CE2ED0FC03C0E091C503CE22D1FC03C023
:10059400E091C603CE22D2FC03C0E091C703CE2271
:1005A400D3FC03C0E091C803CE22D4FC03C0E09185
:1005B400C903CE22D5FC03C0E091CA03CE22D6FCE7
:1005C40003C0E091CB03CE22D7FC03C0E091CC035F
:1005D400CE22ED2DF0E0E050FF4FC082D394DD2019
:1005E40071F6E0B3EB7FAE2F989B03C0E4E0F0E03C
:1005F40002C0E0E0F0E0EA2BF0E0F0E0E050FF4F72
:10060400E081E8BB08954394A42DBB2712970CF016
:1006140044240895CC2019F1E0E1E71509F4089584
:10062400DD24D71450F4ED2DF0E0EC54FC4FA08100
:100634006A1609F40895D394F4CFE72D7394F0E087
:10064400EC54FC4F6082E62DD401F0E0EE0FFF1F66
:10065400AE0FBF1FA5D1F07109F0D5DF1CC0DD249A
:10066400D714C8F4ED2DF0E0EC54FC4FA0816A16C9
:1006740081F47A94D71460F4AD2DB0E0AC54BC4F3F
:10068400ED2DF0E0EB54FC4FE081EC93D394F2CFEA
:100694000895D394E5CF0895E199FECFBFBAAEBAD9
:1006A400F50131965F01E09AE0980895E199FECF53
:1006B4006DBABFBAAEBAF50131965F01E29AE19A1A
:1006C4000895AA24BB24DD24EAEDDE1648F4E4DF11
:1006D400AD2DB0E0A050BE4FEDB3EC93D394F4CF66
:1006E400DD24EAEDDE1648F4D7DFAD2DB0E0A652E6
:1006F400BD4FEDB3EC93D394F4CFCEDF4DB2A42D24
:10070400BB2712970CF044240895AA24BB24DD24AB
:10071400EAEDDE1640F4ED2DF0E0E050FE4F60808F
:10072400C5DFD394F5CFDD24EAEDDE1640F4ED2DDC
:10073400F0E0E652FD4F6080B9DFD394F5CF642C2E
:10074400B5DF0895DD24ED2DF0E0E050FF4FAFEF6D
:10075400A083D394DD20B9F70895DD24AD2DBB2704
:10076400AD36E0E0BE0764F5ED2DAAEDB2E0F0E0B1
:10077400EE0FFF1FEA0FFB1FBF01ED2DA0E0B1E05C
:10078400F0E0EE0FFF1FEA0FFB1F0ED1DB01ED932C
:10079400FC93ED2DA0E0B2E0F0E0EE0FFF1FEA0FB6
:1007A400FB1FBF01ED2DA6E2B0E0F0E0EE0FFF1F4E
:1007B400EA0FFB1FF9D0DB01ED93FC93D394CECF6A
:1007C4000895E1E05E2E6FDEE8DDE4E05E2E6BDE90
:1007D400E4DDE2E05E2E67DEE0DD0895E1E0E715AA
:1007E40009F00895AFDFEDDFE7E05E2E5CDEAA24BA
:1007F400BB243DDEE0EEE61509F439DEE0EFE61554
:1008040011F435DE3EC0E62DE53411F4662430C023
:10081400E63119F4E1E06E2E2BC0EE3119F4E2E07A
:100824006E2E26C0E63219F4E3E06E2E21C0E532C6
:1008340019F4E4E06E2E1CC0EE3219F4E5E06E2EDD
:1008440017C0E63319F4E6E06E2E12C0ED3319F446
:10085400E7E06E2E0DC0EE3319F4E8E06E2E08C00A
:10086400E63419F4E9E06E2E03C0EA3559F021C0EC
:10087400F501AAE0B0E08CD05F01E62DF0E0AE0E09
:10088400BF1EB7CFF501EE3FAFEFFA0711F465DFF6
:1008940004C0EF3FAFEFFA0711F437DF0AC0E0916D
:1008A400B403D401F0E0EE0FFF1FEA0FFB1FA08298
:1008B400B18287DF77240895EFEFE8BBE5BBE2BBA5
:1008C400E4B3E863E4BBEFEFE7BB5524E1E04E2E6D
:1008D4007724E0E0F2E04F0135DFF3DED4DDE5B765
:1008E400E260E5BFEBB7E064EBBF7894EEDDE1EEE8
:1008F400E61529F5EADDE4E1E61509F052DDE5DD6A
:10090400E7E7E61509F04DDDE0DDE1EEE61509F077
:1009140048DDDBDDE0EFE61509F043DDD6DDE4E19B
:10092400E61509F03EDDD1DDE0EFE61509F039DD2D
:10093400CCDDE7E7E61509F034DD50DF18C0E0E070
:10094400E093C403E0EEE61521F4E1E0E093C40390
:10095400BCDDE0EFE61519F4B8DDCC2402C0E1E01B
:10096400CE2EF2DCEFEFE61511F054DEB6DDBECF8D
:10097400FFCFEE230E2EEA2F19F0EE0F0A94E9F7BB
:100984000895F695E795F695E795F695E795089514
:10099400FA9FF02DEB9FF00DEA9FE02DF10D0895E5
:1009A400ED91FC91119708950590F491E02D08952F
:00000001FF
