:080000006EC193C4FDCFFCCFDB
:10000800FBCFFACFF9CFF8CFF7CFF6CFF5CFF4CFB4
:10001800F3CFF2CFF1CFF0CFEFCFEECFEDCF860019
:10002800DD00DC00D900D800D700D600D500D40008
:10003800D300D200D100D0000020001000009100B1
:10004800CC00C900C800C700C600C500C400C30072
:10005800C200C100C000CD009000000000000000F8
:1000680000009100B001C00087009D00A900B70002
:10007800A6009600AC00B9009700A500A700B40040
:10008800B3008000000200000000C400C300C200EA
:10009800CD018D00A8009900A300AD00B500B10006
:1000A800BD00B800A400B0009300A100C700C600BE
:1000B800C5000001B2009500BC00A2009400B60083
:1000C80098009200A0009C0000018900CC00C900A3
:1000D800C800800083008C008100850081008C00AE
:1000E80000008300840088008200C100A000000096
:1000F80000000000000000008600DD00DC00D900E0
:10010800D800D700D600D500D400D300D200D10043
:10011800D0000020001000009100CC00C900C800E9
:10012800C700C600C500C400C300C200C100C000AB
:10013800CD00900000000000000000009100B00118
:10014800C0008700BD00BC00B900B800B700B60009
:10015800B500B400B300B200B100B00080000002E6
:1001680000000000C400C300C200CD018D00AD0036
:10017800AC00A900A800A700A600A500A400A30041
:10018800A200A1009200C700C600C50000019D00A2
:100198009C009900980097009600950094009300A1
:1001A800A00000018900CC00C900C80080008300BD
:1001B8008C008100850081008C0000008300840091
:1001C80088008200C100A0000000000000000000BC
:1001D8000000FF09FF050301020CFF0A08060425B9
:1001E80010FFFF5D4AFF5B2611FFFFFF4B3C3B27DB
:1001F80012FFFF4D4C3D281413FFFF5E4E3E2A2987
:1002080015FFFF504F403F2B16FFFFFF51412C17A2
:1002180018FFFF52422D2E1A19FFFF535443442F43
:100228001BFFFFFF45FF301CFFFF3A553231FF46E9
:10023800FFFFFFFFFFFFFFFF1DFFFF57FF4736FFD1
:10024800FFFF66675848493700210B39592423387E
:100258000EFFFFFFFF075FFFFF62FFFFFFFFFFFFCC
:10026800FFFFFFFF5CFFFFFFFFFFFFFF60FFFFFFD8
:10027800FFFFFFFF61FFFFFFFFFFFFFFFFFFFFFF24
:10028800FFFFFFFFFFFFFFFFFFFFFFFFFFFFFF2253
:10029800FFFFFFFFFFFFFFFFFFFFFFFFFFFFFF5A0B
:1002A800FFFFFFFFFFFFFFFFFFFFFFFFFFFF34FF21
:1002B800631FFFFFFF1E3364FF6556FFFFFFFF3517
:1002C800FF0D200F6D001000040003000200010064
:1002D800010006000000F894EE27ECBBF1E0FBBF3C
:1002E800EBBFE5BFF8E1F1BDE1BD8DE0A2E0BB27C2
:1002F800ED938A95E9F780E094E0A0E6ED93019705
:10030800E9F7ECEDF2E085919591009761F0A59100
:10031800B59105901590BF01F00105900D920197D8
:10032800E1F7FB01F0CFEFE5EDBFE4E0EEBFC0E0A1
:10033800D1E07AC4E0910D04E03059F0E1E15E1AB1
:10034800EEE65E1628F4E52DF0E0E25AFD4F08C00F
:1003580009C0E4E85E1630F4E52DF0E0E652FE4F01
:1003680054900895EFEF5E2E0895E42D4A94E030FE
:1003780031F0A89580E29EE40197F1F7F6CF089551
:10038800EEE103C0E0E501C0EFE04E2EEEDF089598
:1003980033CE08959398E8E06E2A8B9A88EC90E023
:1003A8000197F1F70895939AE7EF6E228B980895D5
:1003B800E0E46E2A8E9A969885E38A95F1F7939AE7
:1003C800E7EF6E228B988BE18A95F1F77724839972
:1003D800FECF4424E8E04E1668F450FE03C0969A17
:1003E800739401C096985694839BFECF8399FECF51
:1003F8004394F0CF70FE02C0969801C0969A839BF2
:10040800FECF8399FECF969A839BFECF8399FECF2A
:10041800EFEB6E228E98839BFECF8399FECF869951
:10042800B7DF839BFECFB6DFA895089555247724C0
:100438004424E8E04E1660F4839BFECF8399FECFF8
:100448005694869B03C0E0E85E2A73944394F1CFE8
:10045800839BFECF8399FECF8699739470FE98DFB5
:10046800839BFECF8399FECF869B92DF839BFECF33
:10047800A8950895A895869902C0839B01C0FBCFD3
:100488001BC0A89590DFAA24BB24869902C0839B31
:1004980013C0F50131965F010A2C0B2861F47ADF4D
:1004A800EEEE5E2E85DF7FDFE5DFEEEEE51509F087
:1004B8006FDFAA24BB24E9CFB9DF089579DF73DFA2
:1004C800D9DF68DFEAEFE51509F062DF0895939A4E
:1004D800E7EF6E228B98E0E46E2A8E9A969850DFAA
:1004E800969AEFEB6E228E989398E8E06E2A8B9A94
:1004F80049DF59DFBFDFEAEAE51509F049DF4ADFDE
:100508000895EDEE5E2EDADF5090EA03D7DF089506
:10051800E0E0E093EA03E091EB03E17029F0E09179
:10052800EA03EF5FE093EA03E091EB03E27029F05E
:10053800E091EA03EC5FE093EA03E3DF08954424E3
:10054800E0E14E1640F4E42DF0E0E351FC4FA0E06A
:10055800A0834394F5CF4424E8E04E1668F4E42DD4
:10056800F0E0E350FC4FA0E0A083E42DF0E0EB5F67
:10057800FB4FA0834394F0CFEFEF7E2EE1E0E093B2
:100588000E044424E091EC034E1608F077C0E42DE5
:10059800F0E0E652FC4FE081A0E0B3E0F0E0EE0FBF
:1005A800FF1FAE0FBF1FAD90BC90B0FE02C0EFE7BB
:1005B8007E22B1FE03C0E0E0E0930E04A7FE5CC01B
:1005C800E091EB03E27089F1EFE7AE22BB24E6E0AD
:1005D800F0E0EA15FB0519F4EDE5F0E025C0E7E0E9
:1005E800F0E0EA15FB0519F4E3E0F0E01DC0EDE5E5
:1005F800F0E0EA15FB0519F4ECE5F0E015C0ECE5D0
:10060800F0E0EA15FB0519F4E9E5F0E00DC0E1E5D5
:10061800F0E0AE16BF0628F0E9E5F0E0EA15FB05C4
:1006280008F403C0F50131975F01F501EF70F07030
:10063800E351FC4FBF011080F50171D3E770A1E0D1
:1006480066D3E129DB01EC93A3FE07C0F50167D36C
:10065800E770F070EB5FFB4F06C0F50160D3E77001
:10066800F070E350FC4FBF011080EA2DE770A1E065
:100678004ED3E129DB01EC93439484CFE2B3E068E5
:10068800E721E2BBE0910E04E03011F4AE9801C01E
:10069800AE9A4424E0E47E2E40FC03C0E091ED03D2
:1006A8007E2A41FC03C0E091EE037E2A42FC03C08F
:1006B800E091EF037E2A43FC03C0E091F0037E2A19
:1006C80044FC03C0E091F1037E2A45FC03C0E0919D
:1006D800F2037E2A46FC03C0E091F3037E2A47FC1E
:1006E80003C0E091F4037E2AE42DF0E0E050FF4FD0
:1006F80070824394442071F64424E0E47E2E40FC4A
:1007080003C0E091F5037E2A41FC03C0E091F603A3
:100718007E2A44FC03C0E091F9037E2A45FC03C00D
:10072800E091FA037E2AE42DF0E0E054FD4F708258
:100738004394E0E4E41509F74424772440FC03C01B
:10074800E091FD037E2A41FC03C0E091FE037E2A6E
:1007580042FC03C0E091FF037E2A43FC03C0E09102
:1007680000047E2A44FC03C0E09101047E2A45FC73
:1007780003C0E09102047E2AE42DF0E0E050FE4F31
:1007880070824394E0E4E415C1F64424772440FCE5
:1007980003C0E09105047E2A41FC03C0E0910604F1
:1007A8007E2A42FC03C0E09107047E2A43FC03C072
:1007B800E09108047E2A44FC03C0E09109047E2AE3
:1007C80045FC03C0E0910A047E2AA42DB0E0A05C99
:1007D800BD4FE72DE373EC934394E0E4E415B1F6E1
:1007E8000895772009F451C0A091EC03A03109F4D1
:1007F80008954424E091EC034E1660F4E42DF0E0F3
:10080800E652FC4FA0815A1619F4E1E04E2E0895E5
:100818004394F0CFE091EC03EF5FE093EC03E150F9
:10082800F0E0E652FC4F5082E52DA0E0B3E0F0E0A6
:10083800EE0FFF1FAE0FBF1F7BD2F07131F0A091FA
:10084800EB03E1E0EA27E093EB03E52DA0E0B3E05A
:10085800F0E0EE0FFF1FAE0FBF1F6AD2F07231F04B
:10086800A091EB03E2E0EA27E093EB03E52DA0E09B
:10087800B3E0F0E0EE0FFF1FAE0FBF1F59D2F073C9
:1008880011F046DE8ED0442427C04424E091EC03C6
:100898004E1600F5E42DF0E0E652FC4FA0815A1602
:1008A800B9F4E091EC03E150E093EC03E091EC0340
:1008B8004E1660F4A42DB0E0A652BC4FE42DF0E033
:1008C800E552FC4FE081EC934394F0CF4424089523
:1008D8004394DCCFE1E04E2E0895E1E0CE2EDD20FA
:1008E80089F0E3B3EF734E2EE42DF0E0E050FE4FB5
:1008F800E081E7BBE42DF0E0E05CFD4FE081E62914
:10090800E1BB0DC0E6B3F0E0E050FF4FA081E0B3DB
:10091800E373F0E0E054FD4FE081EA2BE4BBCC2424
:10092800089594BA8FB60000C3B3CF73CF3389F458
:1009380061BA97BAC0B3CC6C9880C6B3D1E0C8810D
:10094800C929C4BBD2E09924D92CCC2881F48FBE04
:100958001895988097BAC05CC881C629C1BB9924EC
:10096800DD2EC0E4C4BBCC2811F48FBE1895CF91FE
:10097800CF91C92C8FBE1895E199FECFBFBAAEBAF8
:10098800F50131965F01E09AE0980895E199FECF6C
:100998005DBABFBAAEBAF50131965F01E29AE19A43
:1009A8000895E091EB03E17019F4E2E0F0E002C091
:1009B800ECEDF0E05F014424EAED4E1648F4DCDF8C
:1009C800A42DB0E0A050BD4FEDB3EC934394F4CF09
:1009D8000895AA24BB24D0DFEDB3EA3E11F047D036
:1009E8000895E1E0F0E05F01C7DFEDB3E093EB03CA
:1009F800D8DF0895E091EB03E17019F4E2E0F0E04C
:100A080002C0ECEDF0E05F014424EAED4E1640F43C
:100A1800E42DF0E0E050FD4F5080B8DF4394F5CF6F
:100A2800E1E0F0E05F015090EB0369C04424E42D5D
:100A3800F0E0E050FF4FA0E0A08343944420B9F7D2
:100A48004424E42DF0E0E054FD4FA0E0A083E42D21
:100A5800F0E0E050FE4FA083E42DF0E0E05CFD4FB5
:100A6800A0834394E0E4E41561F737DF0895E1E0FB
:100A7800E093EB034424A42DBB27AD36E0E0BE078A
:100A8800BCF4E42DA0E0B3E0F0E0EE0FFF1FEA0FA6
:100A9800FB1FBF01E42DA0E0B1E0F0E0EE0FFF1F67
:100AA800EA0FFB1F49D1DB01ED93FC934394E3CF9D
:100AB800A1DFE0E0E093EB034424A42DBB27AD368F
:100AC800E0E0BE07BCF4E42DA0E0B3E0F0E0EE0FF8
:100AD800FF1FEA0FFB1FBF01E42DA6E2B0E0F0E024
:100AE800EE0FFF1FEA0FFB1F27D1DB01ED93FC93ED
:100AF8004394E3CF7FDFAA24BB24EAEE5E2E46DFD1
:100B08000895E1E0E093EA03FCDC3EDCE4E0E093F6
:100B1800EA03F7DC39DCE2E0E093EA03F2DC34DCF8
:100B28000895A091EC03A13009F008957FDFE9DF73
:100B3800E7E0E093EA03E5DCE0E0E093EA03A1DC28
:100B4800E0EEE51509F496DCE0EFE51511F492DC2A
:100B580043C020DCE52DE53411F4552430C0E631DE
:100B680019F4E1E05E2E2BC0EE3119F4E2E05E2EBE
:100B780026C0E63219F4E3E05E2E21C0E53219F40E
:100B8800E4E05E2E1CC0EE3219F4E5E05E2E17C0DC
:100B9800E63319F4E6E05E2E12C0ED3319F4E7E00F
:100BA8005E2E0DC0EE3319F4E8E05E2E08C0E63480
:100BB80019F4E9E05E2E03C0EA3579F02AC0E09125
:100BC800EA03AAE0EA9FF001E093EA03E52DA09189
:100BD800EA03EA0FE093EA03B2CFE8E1E1BDE0E01F
:100BE800E1BDE091EA03EE3F11F441DF02C0EF3FBF
:100BF80011F400DF0EC0E091DA03A0E0B3E0F0E00A
:100C0800EE0FFF1FAE0FBF1FE091EA03F0E0ED9378
:100C1800FC9377DF7DDCE0E0E093EC03A895E8E166
:100C2800E1BDEFE0E1BD0895E8E1E1BDE0E0E1BD4F
:100C3800E7BBE0E4E4BBE0E0E1BBE8BBE5BBE2BB6B
:100C4800979A8F9AE093EB03E093EC03C2DEA895A2
:100C5800E8E1E1BDEFE0E1BD3ADC5ADCE5B7E2608E
:100C6800E5BFEBB7E064EBBFE1B3EC7C6E2ECC24C0
:100C7800DDDED2E09924789483DBE0E4E5BB01DC97
:100C8800E1EEE51531F5F6DBE4E1E51509F080DB89
:100C9800F1DBE7E7E51509F07BDBECDBE1EEE515D9
:100CA80009F076DBE7DBE0EFE51509F071DBE2DB65
:100CB800E4E1E51509F06CDBDDDBE0EFE51509F0B3
:100CC80067DBD8DBE7E7E51509F062DB63DB29DFE3
:100CD8001CC0E0E0E0930D04E0EEE51521F4E1E04E
:100CE800E0930D04C7DBE0EFE51519F4C3DB7724C7
:100CF80002C0E1E07E2E4EDB1DDBEFEFE51529F0AB
:100D080070DD442011F41BDCE8DDB9CFFFCFEE2302
:100D18000E2EEA2F19F0EE0F0A94E9F70895F695CA
:100D2800E795F695E795F695E795F695E79508958D
:100D3800ED91FC91119708950590F491E02D089597
:00000001FF
