:040000000C948101DA
:100004000C9466030C9400000C9400000C94000003
:100014000C9400000C9400000C9400000C9400005C
:100024000C9400000C9400000C9400000C9400004C
:100034000C9400000C9400000C9400000C9400003C
:100044000C9400000C9400000C9400000C9400002C
:1000540050005800600068007000780053004400AD
:1000640077000000000000000008000000100000FD
:1000740063004A0052005A0062006A0072007A006B
:1000840043004B0042006B005B00590049004000F4
:10009400560100007B0053026B0041004E007E00BD
:1000A4006C00560066004F006E004D007D00460057
:1000B4005F006F005100000048005C017A004300BB
:1000C4004B005B0200044C005E00640074007C0082
:1000D400450055005D006500530052026700620050
:1000E4006A0072000002570047005C00760054006A
:1000F40075006D00630073007B00000269004A0014
:1001040052005A0051000001000000007F0000006E
:1001140000000000000161007900710042007300DA
:1001240000000000000000000000500058006000C3
:100134006800700078005300440277020000000059
:100144000000000800000010000063004A00520094
:100154005A0062006A0072007A0043004B004200B9
:100164006B005B00590049004000560100007B0011
:1001740053026B00410055005C006E005D006C0092
:1001840075007C005F006F00570045004700510078
:10019400000048005C017A0043004B005B0200044D
:1001A40074004F007E004C00460056007D00650040
:1001B400640076006700670262006A007200000251
:1001C4004E0077005E006D004D006600470054004D
:1001D40044007300000269004A0052005A005100B2
:1001E4000001000000007F0000000000000000018A
:1001F40061007900710042007300000000000000FB
:1002040000000000FF09FF050301020CFF0A0806B5
:10021400042510FFFF5D4AFF5B2611FFFFFF4B3CE7
:100224003B2712FFFF4D4C3D281413FFFF5E4E3E4B
:100234002A2915FFFF504F403F2B16FFFFFF514166
:100244002C1718FFFF52422D2E1A19FFFF53544347
:10025400442F1BFFFFFF45FF301CFFFF3A5532318F
:10026400FF46FFFFFFFFFFFFFFFF1DFFFF57FF4795
:1002740036FFFFFF66675848493700210B39592478
:1002840023380EFFFFFFFF075FFFFF62FFFFFFFF43
:10029400FFFFFFFFFFFF5CFFFFFFFFFFFFFF60FFAC
:1002A400FFFFFFFFFFFF61FFFFFFFFFFFFFFFFFFF8
:1002B400FFFFFFFFFFFFFFFFFFFFFFFFFFFFFFFF4A
:1002C400FF22FFFFFFFFFFFFFFFFFFFFFFFFFFFF17
:1002D400FF5AFFFFFFFFFFFFFFFFFFFFFFFFFFFFCF
:1002E40034FF631FFFFFFF1E3364FF6556FFFFFFEC
:1002F400FF35FF0D200F6D00100003000000F8947F
:10030400EE27ECBBF1E0FBBFEBBFE5BFF8E1F1BDCD
:10031400E1BD8DE0A2E0BB27ED938A95E9F780E08B
:1003240094E0A0E6ED930197E9F7E0E0F3E085912E
:100334009591009761F0A591B59105901590BF0135
:10034400F00105900D920197E1F7FB01F0CFEFE585
:10035400EDBFE4E0EEBFC0E0D1E00C947D04E09199
:10036400C403E03059F0E1E16E1AEEE66E1628F4AB
:10037400E62DF0E0E457FD4F08C009C0E4E86E162E
:1003840030F4E62DF0E0E85FFD4F64900895EFEF60
:100394006E2E0895ED2DDA94E03029F080E29EE48B
:1003A4000197F1F7F7CF0895EEE103C0E0E501C04E
:1003B400EFE0DE2EEFDF089521CE0895C398BB9AB7
:1003C40088EC90E00197F1F70895C39ABB980895DB
:1003D400BC9AC49885E38A95F1F7C39ABB988BE1DC
:1003E4008A95F1F7CC24B399FECFDD24E8E0DE163C
:1003F40068F460FE03C0C49AC39401C0C4986694B0
:10040400B39BFECFB399FECFD394F0CFC0FE02C00E
:10041400C49801C0C49AB39BFECFB399FECFC49ACB
:10042400B39BFECFB399FECFBC98B39BFECFB399D9
:10043400FECFB499C1DFB39BFECF1EC06624CC248B
:10044400DD24E8E0DE1660F4B39BFECFB399FECF63
:100454006694B49B03C0E0E86E2AC394D394F1CFAE
:10046400B39BFECFB399FECFB499C394B39BFECF95
:10047400B399FECFB39BFECFA1DF0895A6DFB49955
:1004840002C0B39B01C0FBCF3BC0A2DFF7DFEAEFA2
:10049400E61509F091DF0895C39ABB98BC9AC498F5
:1004A40083DFC49ABC98C398BB9A80DFE7DFEAEA8B
:1004B400E61509F081DF0895EDEE6E2EE6DF652C7A
:1004C400E4DF0895DD24E2E0E41509F0D394839990
:1004D40002C0D394D394819902C0E4E0DE0E5D148B
:1004E40009F408956BDF5D1411F05D2CE5DF6DDF19
:1004F40008956BDFB49902C0B39B02C0E3DFFACF67
:100504009DDF0895E42DE03061F0E13019F4EAED67
:10051400F2E009C0E23041F4819903C0EAEDF2E06F
:1005240002C0E0E0F2E04F01DD24E8E0DE1640F432
:10053400ED2DF0E0EB53FC4FAFEFA083D394F5CF58
:10054400EFEFCE2EDD24D71498F5ED2DF0E0EC542A
:10055400FC4FE081D401F0E0EE0FFF1FAE0FBF1F90
:10056400AD90BC90A6FE12C0F501E770F070EB539D
:10057400FC4FBF011080F5010E94E304E770A1E085
:100584000E94DB04E095E121DB01EC93B2FE02C0A2
:10059400EFEBCE22B0FE02C0EFEDCE22B1FE02C0E0
:1005A400EFEECE22B3FE02C0EEEFCE22D394CBCF39
:1005B400D2B2C2BACD1421F080E49CE90197F1F7DC
:1005C400DD24EFEFCE2ED0FC03C0E091C503CE2294
:1005D400D1FC03C0E091C603CE22D2FC03C0E0915B
:1005E400C703CE22D3FC03C0E091C803CE22D4FCBF
:1005F40003C0E091C903CE22D5FC03C0E091CA0335
:10060400CE22D6FC03C0E091CB03CE22D7FC03C09C
:10061400E091CC03CE22ED2DF0E0E050FF4FC082FC
:10062400D394DD2071F6E9B3F0E0E050FF4FE081B0
:10063400E5BB08954394A42DBB2713970CF04424E1
:100644000895CC2021F1E0E1E71509F40895DD24B3
:10065400D71450F4ED2DF0E0EC54FC4FA0816A1651
:1006640009F40895D394F4CFE72D7394F0E0EC5497
:10067400FC4F6082E62DD401F0E0EE0FFF1FAE0FB9
:10068400BF1F0E94F204F07109F0D4DF1CC0DD2406
:10069400D714C8F4ED2DF0E0EC54FC4FA0816A1699
:1006A40081F47A94D71460F4AD2DB0E0AC54BC4F0F
:1006B400ED2DF0E0EB54FC4FE081EC93D394F2CFBA
:1006C4000895D394E5CF0895C9B3C881C5BB1895DF
:1006D400E199FECFBFBAAEBAF50131965F01E09A57
:1006E400E0980895E199FECF6DBABFBAAEBAF501AC
:1006F40031965F01E29AE19A0895AA24BB24DD248D
:10070400EAEDDE1648F4E4DFAD2DB0E0A050BE4FB4
:10071400EDB3EC93D394F4CFDD24EAEDDE1648F484
:10072400D7DFAD2DB0E0A652BD4FEDB3EC93D3941B
:10073400F4CFCEDF4DB2A42DBB2713970CF0442485
:100744000895AA24BB24DD24EAEDDE1640F4ED2D41
:10075400F0E0E050FE4F6080C5DFD394F5CFDD2498
:10076400EAEDDE1640F4ED2DF0E0E652FD4F608038
:10077400B9DFD394F5CF642CB5DF0895DD24ED2DD6
:10078400F0E0E050FF4FAFEFA083D394DD20B9F742
:100794000895DD24AD2DBB27AD36E0E0BE0774F52A
:1007A400ED2DAAEDB2E0F0E0EE0FFF1FEA0FFB1F04
:1007B400BF01ED2DAEE2B1E0F0E0EE0FFF1FEA0F56
:1007C400FB1F0E94F604DB01ED93FC93ED2DA0E0EA
:1007D400B2E0F0E0EE0FFF1FEA0FFB1FBF01ED2DAB
:1007E400A4E5B0E0F0E0EE0FFF1FEA0FFB1F0E944C
:1007F400F604DB01ED93FC93D394CCCF0895E1E0B0
:100804005E2E5ADED5DDE4E05E2E56DED1DDE2E07A
:100814005E2E52DECDDD0895E1E0E71509F008957E
:10082400ADDFEDDFE7E05E2E47DEAA24BB2426DE43
:10083400E0EEE61509F422DEE0EFE61511F41EDE23
:100844003FC0E62DE53411F4662430C0E63119F4D6
:10085400E1E06E2E2BC0EE3119F4E2E06E2E26C0DC
:10086400E63219F4E3E06E2E21C0E53219F4E4E037
:100874006E2E1CC0EE3219F4E5E06E2E17C0E6337E
:1008840019F4E6E06E2E12C0ED3319F4E7E06E2E93
:100894000DC0EE3319F4E8E06E2E08C0E63419F406
:1008A400E9E06E2E03C0EA3561F022C0F501AAE04A
:1008B400B0E00E94EA045F01E62DF0E0AE0EBF1E38
:1008C400B6CFF501EE3FAFEFFA0711F462DF04C0D3
:1008D400EF3FAFEFFA0711F434DF0AC0E091B4033D
:1008E400D401F0E0EE0FFF1FEA0FFB1FA082B182DC
:1008F40086DF77240895889AE1B3E067E1BBEFEFE0
:10090400E4BBEBBBE8BBE5BBE2BB5524E2E04E2E07
:100914007724E0E0F2E04F0131DFEFDEBDDDE5B743
:10092400E260E5BFEBB7E064EBBF7894E2DDE1EEB3
:10093400E61529F5DEDDE4E1E61509F03DDDD9DD56
:10094400E7E7E61509F038DDD4DDE1EEE61509F058
:1009540033DDCFDDE0EFE61509F02EDDCADDE4E19D
:10096400E61509F029DDC5DDE0EFE61509F024DD23
:10097400C0DDE7E7E61509F01FDD4EDF18C0E0E053
:10098400E093C403E0EEE61521F4E1E0E093C40350
:10099400B0DDE0EFE61519F4ACDDCC2402C0E1E0F3
:1009A400CE2EDDDCEFEFE61511F04BDEABDDBECF76
:1009B400FFCFEE230E2EEA2F19F0EE0F0A94E9F77B
:1009C4000895F695E795F695E795F695E7950895D4
:1009D400FA9FF02DEB9FF00DEA9FE02DF10D0895A5
:1009E400ED91FC91119708950590F491E02D0895EF
:00000001FF
