:020000040800F2
:1000000000000120FD880008012F0008052F0008CE
:10001000092F00080D2F0008112F00080000000014
:10002000000000000000000000000000152F000884
:10003000192F0008000000001D2F0008212F0008C4
:100040004D8900084D8900084D8900084D89000838
:100050004D8900084D8900084D8900084D89000828
:100060004D8900084D8900084D8900084D89000818
:100070004D8900084D8900084D8900084D89000808
:100080004D8900084D8900084D89000800000000D6
:100090000000000000000000000000004D2B0008E0
:1000A0004D8900084D8900084D8900084D890008D8
:1000B0004D8900084D8900084D8900084D890008C8
:1000C0004D8900084D8900084D8900084D890008B8
:1000D0004D8900084D8900084D8900080000000086
:1000E000D52B00084D8900084D890008000000004C
:1000F0000000000000000000000000004D89000822
:10010000000000004D8900084D8900084D89000855
:1001100000000000000000000000000000000000DF
:100120004D8900084D8900084D8900084D89000857
:100130004D890008000000000000000000000000E1
:10014000000000000000000000000000252F000853
:100150004D8900084D8900084D8900084D89000827
:100160004D8900084D8900080000000000000000D3
:10017000000000000000000000000000000000007F
:10018000000000004D890008000000000000000091
:040190004D8900088D
:1001C0000348044B834202D0034B03B118477047E6
:1001D000940000209400002000000000054806491B
:1001E0000B1AD90F01EBA301491002D0034B03B145
:1001F0001847704794000020940000200000000081
:1002000010B5064C237843B9FFF7DAFF044B13B15E
:100210000448AFF300800123237010BD9400002038
:10022000000000005089000808B5044B1BB10449C8
:100230000448AFF30080BDE80840CFE700000000AD
:10024000980000205089000808B410B514469DB0ED
:1002500011B11368002B1ED100214FF42272ADF8AA
:100260001420029106914FF6FF7220AB0491079182
:10027000ADF8162002A91F9A019300F0C7FA0028D2
:1002800019DB029B206000221A7006981DB0BDE8A1
:10029000104001B070474FF4C16202910691ADF871
:1002A00014201946DFDA8B23036000201DB0BDE85F
:1002B000104001B070470020E8E700BF0CB430B533
:1002C0001D4B9DB01D680C4610B10B68002B20D152
:1002D00000234FF42272ADF81420029306931A46BD
:1002E0004FF6FF7121AB04920792ADF81610209AD9
:1002F0000193284602A900F089FA031E19DB029A2D
:1003000023600021117006981DB0BDE8304002B096
:1003100070474FF4C162ADF81420029006901A465F
:10032000DEDA8B2300202B601DB0BDE8304002B028
:1003300070470020E8E700BF0000002000B50B4C2C
:1003400025681446EE681A4685B003460D464CB142
:1003500007490095CDE901143046064900F022F81E
:1003600001F0D2F804490C46F3E700BF000000207A
:10037000788C0008888C0008A08A000808B513460D
:100380000022FFF7DBFF00BF0CB400B583B004AB65
:1003900053F8042B019300F097FB03B05DF804EBD6
:1003A00002B070470EB410B583B005AB064C53F8DD
:1003B000042B01930146206800F086FB03B0BDE8E2
:1003C000104003B0704700BF0000002070B50D4E14
:1003D0000D4D761BB61006D0002455F8043B0134B1
:1003E0009847A642F9D1094E094D761B08F0B0FA9C
:1003F000B61006D0002455F8043B01349847A642B5
:10040000F9D170BDFC8C0008FC8C0008008D000840
:10041000FC8C0008024B0146186800F0BFB800BF12
:1004200000000020024B0146186800F055B800BFDC
:1004300000000020830730B548D0541E002A3FD06A
:10044000CAB2034601E0013C3AD303F8012B9D07F1
:10045000F9D1032C2DD9CDB245EA05250F2C45EA5B
:10046000054536D9A4F1100222F00F0C03F1200E3D
:10047000E6444FEA121C03F1100242E9045542E936
:10048000025510327245F8D10CF1010214F00C0F34
:1004900003EB021204F00F0C13D0ACF1040323F0B1
:1004A00003030433134442F8045B9342FBD10CF082
:1004B00003042CB1CAB21C4403F8012B9C42FBD1AB
:1004C00030BD64461346002CF4D1F9E703461446C8
:1004D000BFE71A46A446E0E7002958D030B551F8E6
:1004E000043C83B0002BA1F10404B8BFE4180190D0
:1004F00001F0D4FD284A0198136833B1A3420DD905
:10050000216804EB010C63452FD06360146003B0D5
:10051000BDE8304001F0C4BDA34210D81A465B6864
:10052000002BF9D1116802EB010C644519D02FD3CF
:100530006360546003B0BDE8304001F0B1BD1168A4
:1005400002EB010CA44516D022D8216804EB010C63
:100550006345EDD11D685B682944C4E9001354600C
:10056000D5E7236819441160D1E71D685B68294409
:10057000C4E90013CAE7246821445418A342116057
:10058000C5D1D3E900432144C2E90013BFE7704756
:100590000C230360BBE700BFB0000020F8B5CD1C02
:1005A00025F0030508350C2D38BF0C25002D064617
:1005B00023DBA94221D8254F01F070FD3A6822B310
:1005C000144603E063682246FBB11C4623685B1BAC
:1005D000F8D40B2B15D8636894420CBF3B60536072
:1005E000304601F05DFD04F10B00231D20F00700F3
:1005F000C21A01D01B1AA350F8BD0C23336000208F
:10060000F8BD23601C442560EAE77968C9B1294632
:10061000304600F097FD431C0CD0C41C24F00304AA
:10062000A04205D0211A304600F08CFD013001D0E7
:100630002560D5E70C233046336001F031FD002002
:10064000F8BD304600F07EFD7860E0E7B0000020A5
:100650002DE9F0478F689F420C461D46164638D854
:100660008246888910F4906F0ED108683D462A466C
:10067000314601F097FCA2682368D21B2B44A2608C
:1006800023600020BDE8F0874B69096903EB43084C
:10069000236808EBD878A3EB01096B1C4FEA6808C4
:1006A0004B444345424684BF98464246430513D5D2
:1006B00011465046FFF772FF074608B321694A46C4
:1006C00001F0D6FBA38923F4906343F08003A38158
:1006D00007E008681F46CAE7504601F0E3FC0746FA
:1006E00050B107EB0900A8EB09032761C4F8148097
:1006F000A36020602F46BAE721695046FFF7ECFE61
:100700000C23CAF80030A38943F040034FF0FF30B8
:10071000A381B7E72DE9F04F936883B09146002B92
:100720006ED017688D6880460C460868083744E02C
:10073000A38913F4906F2ED0D4E90415A0EB010A1D
:1007400005EB450505EBD5750AEB06006D1001308C
:10075000A8422A4684BF05462A465B0537D511467E
:100760004046FFF71BFF00283BD05246216901900D
:1007700001F07EFBA289019B22F4906242F080028C
:10078000A281A5EB0A0203EB0A006561A260236166
:1007900020603546B2465946524601F003FCA06837
:1007A000D9F808102368451B8E1B03EB0A00A560CF
:1007B0002060C9F808601EB3083757E902B6002E5A
:1007C000FAD0B542AA46B3D93546B246E3E7404629
:1007D00001F068FC03460028D3D121694046FFF7A9
:1007E0007BFE0C23C8F80030A389002243F04003AD
:1007F0004FF0FF30A381C9E9012203B0BDE8F08FBB
:100800000020C9F8040003B0BDE8F08F2DE9F04FD7
:1008100092468A8915069DB0884681461C4603D5B6
:100820000A69002A00F0EF80002209929AF800304D
:100830007E4D039420228DF8292030228DF82A2025
:100840000126002B72D0544603E014F8013F002B20
:1008500076D0252BF9D1B4EB0A0B74D12278002A7B
:1008600064D000234FF0FF32CDE9052304930793B2
:100870008DF853301A93013404E0049A06FA03F316
:1008800013430493A246052214F8011B284601F0E5
:100890009FFA431B0028F0D1049BD80644BF2022B6
:1008A0008DF8532019079AF8001044BF2B228DF8B9
:1008B00053202A2954D1039A116804320029039243
:1008C0007CDB07919AF801100AF1010A2E2959D010
:1008D000574C0322204601F07BFA40B1049B001BD9
:1008E000402404FA00F0034304930AF1010A1AF8C1
:1008F000011B50488DF82810062201F069FA0028E3
:1009000062D04D4B002B52D003AA00924B4B424673
:1009100004A94846AFF3008007467A1C06D0099B1D
:100920003B4409939AF80030002B8CD1B8F80C3076
:100930005B0654BF09984FF0FF301DB0BDE8F08F43
:10094000B4EB0A0BF2D05B46524641464846FFF7ED
:100950007FFE0130EAD0099B22785B4409937EE751
:10096000A1F13002092AB1D8079B1AF8011F03EB45
:10097000830302EB4303A1F13002092AF5D92E29A2
:100980000793A5D19AF801102A2927D1039B9AF839
:1009900002101A6805920433002A0AF10200039338
:1009A000B8BF4FF0FF338246B8BF059390E7039B73
:1009B000073323F0070308330393B0E7494243F0BA
:1009C0000203079104937DE703AA00921B4B424662
:1009D00004A9484600F05EFA07469EE7A1F13002FE
:1009E0000023092A05930AF1010A3FF671AF1AF8AC
:1009F000011F03EB830302EB4303A1F13002092A39
:100A0000F5D9059364E74021FFF7C8FDC8F8000059
:100A1000C8F8100018B14022C8F8142004E70C23CD
:100A2000C9F800304FF0FF3087E700BFB88C0008EE
:100A3000C08C0008C48C00080000000051060008AB
:100A40009368013B002B936011DA10B49469A342C0
:100A500009DB0A2907D01368581C10601970084672
:100A60005DF8044B70475DF8044B00F067BC1368F9
:100A7000581C106019700846704700BF9BB1F8B54C
:100A8000134406460F46541E5D1E01E0AC4208D0DA
:100A900014F8011F3A463046FFF7D2FF431CF5D148
:100AA000F8BD0020F8BD0020704700BF936810B566
:100AB000144613B95360184610BD00F03DFF0023E3
:100AC000C4E9013310BD00BF2DE9F04F88469FB047
:100AD00015461C46814618B18369002B00F0A280A0
:100AE000924B984500F0A480914B984500F0B1805E
:100AF000904B984508BFD9F80C80B8F80C3018070F
:100B000040F19D80D8F81030002B00F09880002331
:100B10000B932978884E059420238DF831303023AB
:100B20008DF832300127002974D02C460B4604E0A2
:100B300014F8013F002B00F08F80252BF8D1B4EB87
:100B4000050B40F08C802378002B63D000234FF0FE
:100B5000FF32CDE90723069309938DF85B301C9390
:100B6000013404E0069A07FA03F31343069325467B
:100B7000052214F8011B304601F02AF9831B0028D6
:100B8000F0D1069BD90644BF20228DF85B2029783E
:100B90001A0744BF2B228DF85B202A2970D1059AB1
:100BA0001168043200290592C0F29B80099169788E
:100BB00001352E2976D0614C0322204601F008F938
:100BC00038B1069B001B402404FA00F0034306934F
:100BD000013515F8011B5A488DF83010062201F036
:100BE000F7F8002800F08380564B002B6DD005AA43
:100BF0000092554B424606A94846AFF30080039049
:100C0000039B013306D00B9B039A297813440B9363
:100C100000298AD1B8F80C305B0617D40B981FB0A6
:100C2000BDE8F08F00F068FE404B98457FF45CAF64
:100C3000D9F80480B8F80C3018073FF563AF414687
:100C4000484600F0DFFB00283FF461AF4FF0FF3073
:100C5000E5E7D9F8088050E7B4EB050BDAD0AA46EF
:100C6000C5F1010503E0934536D91AF8011F424644
:100C70004846FFF7E5FE013005EB0A02F3D1C9E76C
:100C8000A1F13002092A94D8099B15F8011F03EB42
:100C9000830302EB4303A1F13002092AF5D92E297F
:100CA000099388D169782A292BD1059BA9781A68DC
:100CB00007920433002A05F102000593B8BF4FF0F4
:100CC000FF330546B8BF079375E7059B073323F04D
:100CD00007030833059396E70B9A23785A440B923F
:100CE00032E7494243F00203099106935FE705AA00
:100CF0000092154B424606A9484600F0CBF80390F7
:100D00007EE7A1F130020023092A079305F10105CE
:100D10003FF651AF15F8011F03EB830302EB4303CA
:100D2000A1F13002092AF5D9079344E7AC890008FC
:100D30008C8900086C890008B88C0008C08C0008F9
:100D4000C48C0008000000007D0A000810B4054CA7
:100D50008446134620685DF8044B0A466146FFF757
:100D6000B3BE00BF000000202DE9F84F92461F4699
:100D70000A698B68DDF828909A42B8BF1A46CAF80B
:100D8000002091F843300C46064613B10132CAF8F0
:100D90000020226891065DD5DAF800300233CAF8E7
:100DA0000030226812F0060F11461ED1E168CB1AFE
:100DB000002BD8BF114618DD04F1190B4FF00008C5
:100DC00005E0E568DAF80030ED1A45450CDD012351
:100DD0005A4639463046C847013008F10108F0D17B
:100DE0004FF0FF30BDE8F88F216894F84330003BA6
:100DF00018BF01238A060AD5E1185A1C302081F851
:100E00004300224494F8451082F84310023304F161
:100E1000430239463046C8470130E1D0236803F029
:100E20000603042B1DD0A3682269934225DD4FF0F1
:100E300000089B1A98441A34002501E045451CDA45
:100E40000123224639463046C847013005F10105E5
:100E5000F4D1C5E712F0060F12D0003B18BF0123F2
:100E6000D5E7DAF80030E1682269C91AA36893422D
:100E700021EAE178DDDC0029DDDC0020BDE8F88F27
:100E8000E168DAF80030CB1A002BD8BF114693DCAA
:100E9000ABE700BF2DE9F0470C4684B09046227EB8
:100EA0000C990746994604F14300002A33D0A2F179
:100EB0005803DDB2202D67D8202B65D8DFE813F06A
:100EC000DE00640064006400640064006400640088
:100ED000640064006400A3006E00640064006400A9
:100EE00064006E00640064006400640021007F0000
:100EF000C00064006400AE0064007F006400640011
:100F0000E50023681A0640F104810B6862691D1D23
:100F10000D601B681A60002382462361CDF80090A3
:100F2000434603AA21463846FFF71EFF013020D072
:100F30002369524641463846C847013019D02368D4
:100F4000E068039E9B0719D5831B002B16DD04F177
:100F5000190A002504E0E068039E831BAB420DDD07
:100F60000123524641463846C847013005F1010584
:100F7000F1D14FF0FF3004B0BDE8F087B042B8BF08
:100F8000304604B0BDE8F087012384F84220236195
:100F900004F1420A002384F84330BFE723681A06AD
:100FA00002D45E0600F1C1800D682A6804350D6028
:100FB0001546002A6BDBDFF884C10A2610E023689F
:100FC0001D0640F19C800B681D1D0D601D68DFF83B
:100FD0006CC16F2A0CBF08260A26002384F8433010
:100FE0006268A260002A7FDB236823F00403236089
:100FF000002D5BD1002A79D18246082E65D0A0EB66
:101000000A0020618AE70B680122186804330B602C
:1010100004F1420A84F842002261BBE70B6862686F
:10102000181D0860D3F800A00021504600F0D0FE43
:10103000002800F08180A0EB0A0060602061A9E731
:10104000236843F0200323607822DFF8F4C084F89B
:1010500045200A68151D0D601D0643D4590641D56B
:101060001588DE0744BF43F020032360002D44D1E0
:10107000236823F0200323601026AEE7582384F86A
:101080004530DFF8B8C02368E3E72368DCE762682F
:10109000A2602D21002AC5F1000584F8431002DB6F
:1010A00023F004032360DFF894C00A268246B5FBD0
:1010B000F6F306FB13512A461CF801100AF8011D2D
:1010C000B2421D46F3D2082E99D12368D90796D58E
:1010D000626823699A4292DC30230AF8013C0AF1E3
:1010E000FF3A8CE71568BCE7002DDFD19CF8003093
:1010F00084F8423004F1420A7FE710266DE713F0CE
:10110000400F0B6803F104050D600CBF1D681D88BE
:101110005DE713F0400F0B68626903F104050D6091
:101120001B6814BF1A801A60F5E60A68B2F900500D
:1011300004320A602A463CE760687FE7CC8C0008EE
:10114000E08C000838B5074D0022044608462A60A6
:1011500001F022FA431C00D038BD2B68002BFBD0D5
:10116000236038BDB800002000000000000000002F
:10117000000000000000000000000000000000006F
:1011800090F800F06DE9024520F007016FF0000CC7
:1011900010F0070491F820F040F049804FF000046F
:1011A0006FF00700D1E9002391F840F000F108004A
:1011B00082FA4CF2A4FA8CF283FA4CF3A2FA8CF382
:1011C0004BBBD1E9022382FA4CF200F10800A4FAE9
:1011D0008CF283FA4CF3A2FA8CF3E3B9D1E904233D
:1011E00082FA4CF200F10800A4FA8CF283FA4CF374
:1011F000A2FA8CF37BB9D1E9062301F1200182FA2E
:101200004CF200F10800A4FA8CF283FA4CF3A2FA33
:101210008CF3002BC6D0002A04BF04301A4612BA41
:10122000B2FA82F2FDE8024500EBD2007047D1E944
:10123000002304F00305C4F100004FEAC50514F0D3
:10124000040F91F840F00CFA05F562EA05021CBFA4
:1012500063EA050362464FF00004A9E710B51A4C93
:10126000002924689AB02ADB009004904FF40270A1
:10127000ADF80C0013D001394FF6FF7002910591C3
:10128000ADF80E0069462046FFF7C0FA421C01DAAD
:101290008B232360009B00221A701AB010BD4FF6FA
:1012A000FF7002910591ADF80E0069462046FFF7E8
:1012B000ADFA431C01DA8B2323601AB010BD8B23D7
:1012C00023604FF0FF30F8E70000002030B5141E17
:1012D0009BB005462CDB4FF4027200910491ADF8EF
:1012E0000C2014D04FF6FF711A46013CADF80E10D9
:1012F0001E9B029469460594FFF788FA421C01DAA6
:101300008B232B60009B00221A701BB030BD4FF660
:10131000FF711A46ADF80E101E9B029469460594A3
:10132000FFF774FA431C01DA8B232B601BB030BD2E
:101330008B2303604FF0FF30F8E700BFF8B50D4690
:101340001446064608B1836943B3254B9C422AD014
:10135000244B9C4229D0244B9C4208BFF468A389AB
:10136000A269A2601A0722D5236903B322686169C2
:10137000D31AEDB299422F4629DD0133A168013914
:10138000A160511C2160157062699A4216D0A38930
:10139000DB0701D50A2D11D03846F8BD00F0ACFAB4
:1013A0000F4B9C42D4D17468D9E7B468D7E7214683
:1013B000304600F027F838B92369D7E72146304690
:1013C00000F034F90028E7D04FF0FF37E4E721467A
:1013D000304600F02BF90028F6D122680123CDE732
:1013E000AC8900088C8900086C89000810B4044C92
:1013F00003460A4620685DF8044B1946FFF79EBF76
:10140000000000203C4B70B51D6806460C460DB12F
:10141000AB69E3B1394B9C421FD0394B9C424DD054
:10142000384B9C4208BFEC68B4F90C3018079AB2EC
:1014300019D5216911B312F001002FD00020A0604E
:1014400060694042A06100292ED0002070BD28466E
:1014500000F052FA294B9C42DFD16C68B4F90C3091
:1014600018079AB2E5D4D1063ED5520728D421698F
:1014700043F00803A3819AB20029DCD102F4207062
:10148000B0F5007FD7D02146304600F011FCB4F90A
:101490000C3021699AB212F00100CFD1950758BFE4
:1014A0006069A0600029D0D1120658BF0846CDD58A
:1014B00043F04003A3814FF0FF3070BDAC68B3E749
:1014C000616B51B104F14402914204D03046FFF700
:1014D00003F8B4F90C300022626321690022C4E9E8
:1014E000001223F02403C3E7092243F040033260D3
:1014F0004FF0FF30A38170BD00000020AC890008D0
:101500008C8900086C89000808B5062000F086FE6A
:10151000012001F057F800BF8B891A072DE9F0412F
:101520000C4680463FD44A68002A58DDE66A002E01
:1015300052D00022D8F80050C8F8002013F480528E
:1015400051D10123216A4046B047431C5ED0A38994
:10155000E66A5F0705D56368C01A636B0BB1236C3D
:10156000C01A216A024600234046B047411C3CD1C4
:10157000D8F80030002B38D01D2B01D0162B4DD1C0
:1015800023690022C4E90032616BC8F8005019B326
:1015900004F14403994202D04046FEF79DFF00202B
:1015A0006063BDE8F0810E69B6B10D680E609A0700
:1015B0000CBF4B690023AD1B8B600BE02B46324602
:1015C000216AA76A4046B847B0F1000CA5EB0C05AC
:1015D000664413DD002DF1DC0020BDE8F0810A6CCB
:1015E000002AA3DCF8E7606DB3E70023636023699A
:1015F0002360A389DB04C7D56065C5E7A38943F0F1
:1016000040034FF0FF30A381BDE8F081D8F80030EF
:10161000002B9CD01D2B06D0162B04D0A38943F0A1
:101620004003A381D9E7C8F80050D5E738B50B6966
:10163000BBB10D46044608B18369B3B10D4B9D4261
:1016400011D00D4B9D4213D00C4B9D4208BFE56855
:10165000B5F90C302BB129462046BDE83840FFF7DC
:101660005BBF002038BD6568F2E700F045F9E5E7AB
:10167000A568EDE7AC8900088C8900086C89000832
:1016800038B540B303690446E3B1174B1D680DB18B
:10169000AB69CBB1154B9C420FD0154B9C4221D06E
:1016A000144B9C4208BFEC68B4F90C3053B121468E
:1016B0002846BDE83840FFF72FBF6C68B4F90C30FE
:1016C000002BF4D1002038BD284600F015F9074B57
:1016D0009C42E2D1F1E7084B08491868BDE8384060
:1016E00000F0C2BAAC68DFE700000020AC89000857
:1016F0008C8900086C890008688900082D1600088C
:1017000000207047014900F0AFBA00BF2D16000855
:101710000020704770B568224D1E02FB05F50E468D
:1017200005F17401FEF73AFF044640B100210C3088
:10173000C4E90016A06005F16802FEF77BFE2046B2
:1017400070BD00BF274B2DE9F0411E68B369074605
:1017500053B348364FF00408D6E90134013B04D5B1
:101760001EE05A1C04F168041AD0B4F90C50013B75
:10177000002DF6D11C4B6566C4E90055C4E902533F
:10178000C4E90455A5610822294604F15C00FEF76E
:1017900051FEC4E90D55C4E912552046BDE8F0815B
:1017A00035682DB12E46D7E7304600F01FF8D0E758
:1017B0004FF4D6713846FEF7F1FE044668B1056075
:1017C000C0F804800C302946A06025464FF4D07242
:1017D000FEF730FE34602E46BEE70C2330603B60DF
:1017E000DBE700BF688900080100FFFF2DE9F84F23
:1017F000344B35491A68816290424FF00003C0E9CA
:101800001233036504BF012383610546FFF79AFF86
:1018100068602846FFF796FFA8602846FFF792FF0A
:101820006F68E86000240423C7E9024308222146C8
:10183000C7E90044C7E904447C66BC6107F15C0069
:10184000FEF7F8FDDFF88CB0AE68DFF88CA0DFF8AB
:101850008C90DFF88C801D4BC7F828A0C7E9087B67
:10186000C7F82C90C7F830800822F360C6E900441E
:10187000C6E904447466B460B461214606F15C00B4
:10188000FEF7D8FDC6E9086BC6E90AA9C6F830809C
:10189000EE680F4BF360C6E90044C6E90444746681
:1018A000B460B4612146082206F15C00FEF7C2FD77
:1018B0000123C6E9086BC6E90B98C6F828A0AB61FE
:1018C000BDE8F88F688900080517000809000100C5
:1018D000120002008D230008B5230008F52300083C
:1018E00015240008024B0349186800F0BDB900BF79
:1018F000688900082D160008836903B976E77047E8
:10190000704700BF704700BF704700BF704700BFFF
:10191000024B0349186800F087B900BF000000209F
:1019200001170008024B0349186800F07DB900BF99
:1019300000000020111700089368002B00F085803C
:101940002DE9F04FB1F90C300C461907804683B0F1
:10195000174698B225D523691BB310F002033D68E2
:101960002DD04FF0000ADFF8BCB25646B9465E45AE
:101970003346524628BF5B464046002E52D0216A6D
:10198000A76AB847002856DDD9F808301B1A8244E8
:10199000361AC9F80830002BE9D1002003B0BDE8A1
:1019A000F08F21464046FFF72DFD002840F036819C
:1019B000B4F90C303D6898B210F00203D1D110F0A8
:1019C000010944D14E46009746B38205D4F808B0C9
:1019D00040F18380B3455A4600F2B28010F4906F14
:1019E00040F0BF8020680192494600F0DBFAA3680E
:1019F000019AA3EB0B012368A1601344B246236054
:101A00000026009B9868A0EB0A00D144986000284B
:101A1000C3D0B4F90C0080B2002ED6D1D5E900961F
:101A20000835D1E7D5E900A60835A0E721464046AC
:101A3000FFF7FCFD80B3B4F90C3043F040034FF0E6
:101A4000FF30A38103B0BDE8F08F002070471E4631
:101A5000AA46994618461D46009756B388B34A468B
:101A6000D4E904132068B24228BF3246884205D91F
:101A7000A16803EB010B5A4500F3A680934263DC97
:101A8000216AA76A2A464046B847B0F1000BD2DD6A
:101A9000B9EB0B09CAD00120009A9368A3EB0B03A2
:101AA0005D44A6EB0B069360002B3FF476AF002E4F
:101AB000D4D10AF1080353E902569A460833002E9E
:101AC000F9D032460A21284600F082F9002800F0B9
:101AD0009C800130A0EB0509C1E72068236998428A
:101AE00016D86369B34213D86FF00042B24228BFE0
:101AF0003246216A92FBF3F2A76A02FB03F34046E7
:101B00004A46B847B0F1000A95DDA6EB0A0678E729
:101B1000B345DA4628BFB2465246494600F042FA7B
:101B2000A3682268A3EB0A035244A3602260002B3F
:101B3000EBD121464046FFF779FD0028E5D07AE752
:101B40002068B34632464EE72946019200F02AFA51
:101B5000019AA3689B1AA3602368134423609346E9
:101B600096E723682169A3EB010B636903EB430A42
:101B70000AEBDA7A0BF101034FEA6A0A3344534560
:101B8000524684BF9A46524643052CD511464046DC
:101B9000FEF704FD00283BD05A462169019000F071
:101BA00067F9A289019B22F4906242F08002A2812F
:101BB00003EB0B002361AAEB0B03C4F814A0A36092
:101BC0002060B34632460EE729465A4600F0EAF94D
:101BD00023685B44236021464046FFF727FD002829
:101BE0003FF456AF27E7404600F05CFA0346002872
:101BF000DED121694046FEF76FFCB4F90C300C22AF
:101C000023F08003C8F8002017E7721C914627E7ED
:101C10000C22B4F90C30C8F800200EE74FF0FF306A
:101C2000BCE600BF00FCFF7F2DE9F041884600F1D3
:101C300048070026D7E90154013D0FD4A389012BA1
:101C400005F1FF3506D9B4F90E300133204601D035
:101C5000C04706436B1C04F16804EFD13F68002FB6
:101C6000E8D13046BDE8F0812DE9F84307468846C3
:101C700000F148064FF00009D6E90154013D11D4A6
:101C8000A389012B05F1FF3508D9B4F90E300133D2
:101C9000214603D03846C04749EA00096B1C04F1CD
:101CA0006804EDD13668002EE6D14846BDE8F883D9
:101CB000F0B58B890C46990797B007D504F1470317
:101CC0000122C4E90432236017B0F0BDB4F90E104C
:101CD000002905462DDB6A4600F0C8FB002827DBFB
:101CE000019E06F470464FF48067A6F50056B6FADA
:101CF00086F6394628467609FEF750FC30B3A389AC
:101D00001A4AAA6243F08003C4E90407A381206051
:101D1000002ED9D0B4F90E10284600F0BDFB0028E3
:101D2000D2D0A38923F0030343F00103A381CBE7BF
:101D3000A38913F0800F14BF40274FF48067394602
:101D400028460026FEF72AFC0028D8D1B4F90C302A
:101D50009A05B9D423F0030304F1470243F00203C8
:101D60000121C4E90421A3812260ADE70517000821
:101D700070B50C46B1F90E10002996B016461D46F6
:101D800013DB6A4600F072FB00280EDB019901F4B8
:101D90007041A1F50051B1FA81F14FF48063490916
:101DA00000202960336016B070BDB4F90C300022F9
:101DB0001B062A6004D540230020336016B070BD96
:101DC0004FF480630020336016B070BD0000000047
:101DD00001F0FF01102A2BDB10F0070F08D010F8DC
:101DE000013B013A8B422DD010F0070F42B3F6D1E0
:101DF000F0B441EA012141EA014122F007047FF0F9
:101E000000070023F0E80256083C85EA010586EA4F
:101E1000010685FA47F5A3FA87F586FA47F6A5FA8B
:101E200087F68EB9EED1F0BC01F0FF0102F0070297
:101E300032B110F8013B013A83EA010313B1F8D142
:101E40000020704701387047002D06BF3546033823
:101E5000073815F0010F07D1013015F4807F02BF5C
:101E6000013015F4C03F0130F0BC0138704700BFAD
:101E7000844641EA000313F003036DD1403A41D395
:101E800051F8043B40F8043B51F8043B40F8043B54
:101E900051F8043B40F8043B51F8043B40F8043B44
:101EA00051F8043B40F8043B51F8043B40F8043B34
:101EB00051F8043B40F8043B51F8043B40F8043B24
:101EC00051F8043B40F8043B51F8043B40F8043B14
:101ED00051F8043B40F8043B51F8043B40F8043B04
:101EE00051F8043B40F8043B51F8043B40F8043BF4
:101EF00051F8043B40F8043B51F8043B40F8043BE4
:101F0000403ABDD2303211D351F8043B40F8043B83
:101F100051F8043B40F8043B51F8043B40F8043BC3
:101F200051F8043B40F8043B103AEDD20C3205D393
:101F300051F8043B40F8043B043AF9D2043208D08B
:101F4000D2071CBF11F8013B00F8013B01D30B88FD
:101F500003806046704700BF082A13D38B078DD0DB
:101F600010F003038AD0C3F10403D21ADB071CBFAD
:101F700011F8013B00F8013B80D331F8023B20F817
:101F8000023B7BE7043AD9D3013A11F8013B00F850
:101F9000013BF9D20B7803704B7843708B788370D8
:101FA0006046704788420DD98B1883420AD900EBEE
:101FB000020CBAB1624613F801CD02F801CD994284
:101FC000F9D170470F2A0ED8034602F1FF3C4AB1FF
:101FD0000CF1010C013B8C4411F8012B03F8012F8B
:101FE0006145F9D1704740EA01039B0750D1A2F146
:101FF000100370B501F1200C23F00F0501F1100E54
:1020000000F11004AC441B095EF8105C44F8105C4D
:102010005EF80C5C44F80C5C5EF8085C44F8085C04
:102020005EF8045C44F8045C0EF1100EE64504F121
:102030001004E9D1013312F00C0F01EB031102F08F
:102040000F0400EB031327D0043C24F003064FEAEF
:10205000940C1E441C1F8E465EF8045B44F8045F1B
:10206000B442F9D10CF1010402F0030203EB840342
:1020700001EB840102F1FF3C4AB10CF1010C013B80
:102080008C4411F8012B03F8012F6145F9D170BD83
:1020900002F1FF3C03469BE72246EBE7704700BF97
:1020A000704700BFF8B51446F9B1CAB106460D46EF
:1020B00000F01AFAA04202D32F463846F8BD214656
:1020C0003046FEF76BFA07460028F6D0224629462E
:1020D000FFF7CEFE30462946FEF7FEF93846F8BD3A
:1020E0002746FEF7F9F93846F8BDBDE8F840114635
:1020F000FEF754BA38B5446C0CB1002038BD8021CD
:102100000546FEF74BFA0246686430B1031F7C3285
:1021100043F8044F9342FBD1EFE74FF0FF3038BD57
:102120001F29F8B5054608D8466C0C4617464EB12F
:1021300056F8240046F82470F8BD162303604FF0CB
:10214000FF30F8BD8021FEF729FA0646686440B1E9
:10215000031F00F17C05002143F8041F9D42FBD1C1
:10216000E6E74FF0FF30F8BD1F2938B5054620D807
:10217000426C0C466AB152F8213053B1012B16D093
:10218000591C10D00025204642F824509847284674
:1021900038BD284600F0F8F8224601462846BDE83A
:1021A000384000F0DBB816230360012038BD002062
:1021B00038BD162303604FF0FF3038BD1F292AD8E1
:1021C000426C38B50C46054682B152F8243002EB19
:1021D00084024BB1591C19D0012B15D00025204683
:1021E00015609847284638BD012038BD8021FEF78C
:1021F000D5F90246686458B1031F00217C3043F8CA
:10220000041F9842FBD1E0E7032038BD022038BD0F
:102210004FF0FF3038BD4FF0FF30704738B5144BEA
:102220001F281D681FD86A6C044662B152F820301E
:102230004BB1012B15D0591C0FD0002542F820506E
:102240009847284638BD284600F09EF822460146A9
:102250002846BDE8384000F081B816232B600120E5
:1022600038BD002038BD16232B604FF0FF3038BD3D
:1022700000000020124B1F2870B51E6808D80D46BC
:10228000716C044649B151F8240041F8245070BDE6
:10229000162333604FF0FF3070BD80213046FEF7CB
:1022A0007DF90146706440B1031F00F17C0C0022EF
:1022B00043F8042F6345FBD1E5E74FF0FF3070BDD5
:1022C0000000002038B50B4B1D686C6C0CB1002071
:1022D00038BD80212846FEF761F9686438B1031FD4
:1022E00000F17C0243F8044F9342FBD1EFE74FF03B
:1022F000FF3038BD0000002038B5174B1F281D687F
:1023000026D86A6C044682B152F8243002EB84026B
:102310004BB1591C1AD0012B16D000252046156050
:102320009847284638BD012038BD80212846FEF751
:1023300035F90246686458B1031F00217C3043F828
:10234000041F8342FBD1DFE7032038BD022038BDE4
:102350004FF0FF3038BD00BF0000002070B50C46C4
:10236000084D03460026204611461C462E6000F00C
:10237000FBF8431C00D070BD2B68002BFBD0236002
:1023800070BD00BFB800002000F0DEB810B50C46EC
:10239000B1F90E1000F0B2F8002803DB636D0344BE
:1023A000636510BDA38923F48053A38110BD00BFD2
:1023B000002070472DE9F0410C46B1F90C101F4682
:1023C000CB05054616460BD421F48051A1813B462E
:1023D000B4F90E1032462846BDE8F04100F01EB8B0
:1023E000B4F90E100223002200F068F8B4F90C10C2
:1023F000EAE700BF10B50C46B1F90E1000F05EF828
:10240000A389421C0EBF23F4805343F480536065BC
:10241000A38110BDB1F90E1000F016B838B50C4606
:10242000084D8446114620461A4600232B60644618
:1024300000F0C0F8431C00D038BD2B68002BFBD047
:10244000236038BDB800002038B5074D002204468F
:1024500008462A6000F068F8431C00D038BD2B689D
:10246000002BFBD0236038BDB800002070B50C46AF
:10247000084D03460026204611461C462E6000F0FB
:102480005BF8431C00D070BD2B68002BFBD0236091
:1024900070BD00BFB800002038B5074D00220446CB
:1024A00008462A6000F058F8431C00D038BD2B685D
:1024B000002BFBD0236038BDB800002038B50C4697
:1024C000084D8446114620461A4600232B60644678
:1024D00000F052F8431C00D038BD2B68002BFBD015
:1024E000236038BDB800002051F8040C0028A0F18A
:1024F0000400BCBF0B58C018704700BF38B50C466D
:10250000084D8446114620461A4600232B60644637
:1025100000F03AF8431C00D038BD2B68002BFBD0EC
:10252000236038BDB8000020024B58221A604FF0DB
:10253000FF307047B8000020024B58221A604FF05D
:10254000FF307047B8000020024B58221A604FF04D
:10255000FF307047B8000020024B58221A6000205C
:10256000704700BFB8000020024B58221A604FF09D
:10257000FF307047B8000020024B58221A604FF01D
:10258000FF307047B8000020024B58221A604FF00D
:10259000FF307047B8000020044A05491368002B3B
:1025A00008BF0B461844106018467047BC00002056
:1025B000A00D0020024B58221A604FF0FF307047E8
:1025C000B8000020FEE700BF53B94AB9002908BF90
:1025D00000281CBF4FF0FF314FF0FF3000F074B9FE
:1025E000ADF1080C6DE904CE00F006F8DDF804E06A
:1025F000DDE9022304B070472DE9F047089D044649
:102600008E46002B4DD18A42944669D9B2FA82F2A5
:1026100052B101FA02F3C2F1200120FA01F10CFAE1
:1026200002FC41EA030E94404FEA1C48210CBEFB19
:10263000F8F61FFA8CF708FB16E341EA034306FBA2
:1026400007F199420AD91CEB030306F1FF3080F031
:102650001F81994240F21C81023E63445B1AA4B27E
:10266000B3FBF8F008FB103344EA034400FB07F720
:10267000A7420AD91CEB040400F1FF3380F00A8161
:10268000A74240F207816444023840EA0640E41B56
:1026900000261DB1D4400023C5E900433146BDE802
:1026A000F0878B4209D9002D00F0EF800026C5E9A4
:1026B000000130463146BDE8F087B3FA83F6002EBC
:1026C0004AD18B4202D3824200F2F980841A61EB34
:1026D000030301209E46002DE0D0C5E9004EDDE752
:1026E00002B9FFDEB2FA82F2002A40F09280A1EB3A
:1026F0000C014FEA1C471FFA8CFE0126200CB1FB8F
:10270000F7F307FB131140EA01410EFB03F0884287
:1027100008D91CEB010103F1FF3802D2884200F214
:10272000CB804346091AA4B2B1FBF7F007FB1011A6
:1027300044EA01440EFB00FEA64508D91CEB040444
:1027400000F1FF3102D2A64500F2BB800846A4EB9F
:102750000E0440EA03409CE7C6F12007B34022FA8A
:1027600007FC4CEA030C20FA07F401FA06F31C43B9
:10277000F9404FEA1C4900FA06F3B1FBF9F8200CC6
:102780001FFA8CFE09FB181140EA014108FB0EF00C
:10279000884202FA06F20BD91CEB010108F1FF3A5C
:1027A00080F08880884240F28580A8F10208614468
:1027B000091AA4B2B1FBF9F009FB101144EA014176
:1027C00000FB0EFE8E4508D91CEB010100F1FF3421
:1027D0006CD28E456AD90238614440EA0840A0FBB9
:1027E0000294A1EB0E01A142C846A64656D353D08F
:1027F0005DB1B3EB080261EB0E0101FA07F722FAB3
:1028000006F3F1401F43C5E9007100263146BDE8DB
:10281000F087C2F12003D8400CFA02FC21FA03F33E
:10282000914001434FEA1C471FFA8CFEB3FBF7F0BF
:1028300007FB10360B0C43EA064300FB0EF69E42E4
:1028400004FA02F408D91CEB030300F1FF382FD27D
:102850009E422DD9023863449B1B89B2B3FBF7F625
:1028600007FB163341EA034106FB0EF38B4208D9FE
:102870001CEB010106F1FF3816D28B4214D9023E3F
:102880006144C91A46EA004638E72E46284605E75D
:102890000646E3E61846F8E64B45A9D2B9EB02082E
:1028A00064EB0C0E0138A3E74646EAE7204694E7BE
:1028B0004046D1E7D0467BE7023B614432E73046F1
:1028C00009E76444023842E7704700BF10B50023AF
:1028D00094B0CDE90A33CDE90C33CDE90333CDE92A
:1028E0000533224901930793086C214A40F0805038
:1028F0000864096C01F080510191019902931368F9
:1029000023F4404343F400431360136803F440434B
:10291000029301204FF480314FF48002029B022485
:102920001923CDE90801CDE90E424FF4A8711093A7
:102930000422072308A8CDE91112139300F0B2FC7A
:1029400008B172B6FEE70F210346CDE903144FF438
:10295000805203A82146CDE90532079300F0BAFE64
:1029600008B172B6FEE714B010BD00BF00380240D7
:10297000007000400FB400B5A3B0249A22B325AB79
:10298000802102A80193FEF769FC002815DB04D121
:1029900023B05DF804EB04B0704702A8FEF7F0FB2B
:1029A00002464FF0FF3392B202A90B4800F014FC2C
:1029B00023B05DF804EB04B07047084B084A09489F
:1029C0004FF48771FDF7BAFC074B054A054840F202
:1029D0000911FDF7B3FC00BFC0000020EC8900081E
:1029E000208A0008DC890008CC89000800B5002492
:1029F0008BB001F0BFF8FFF769FFCDE90544CDE9E1
:102A000007444A4B019409941A6B494842F0040266
:102A10001A631A6B02F004020192019A02941A6B73
:102A200042F080021A631A6B02F080020292029A4C
:102A300003941A6B42F001021A631A6B02F001024E
:102A40000392039A04941A6B42F002021A631B6BFE
:102A500003F002034FF4005104932246049B00F05C
:102A6000E9FF22463348FF2100F0E4FF01254FF43F
:102A700000532F4805A9CDE90535FF26CDE90744C8
:102A800000F0E6FE2C48079405A9CDE9056400F0A6
:102A9000DFFE02232748089305A9CDE905650794C1
:102AA00000F0D6FE4FF401424FF40413224807947D
:102AB00005A9CDE9052300F0CBFE4FF440731D4876
:102AC000079405A9CDE9053400F0C2FE224621464F
:102AD000172000F0C5FF172001F000F8224621461C
:102AE000282000F0BDFF282000F0F8FF134814490B
:102AF0004FF4E1320C23C0E90012C0E90244C0E9FE
:102B00000443C0E9064400F037FB08B172B6FEE7A3
:102B100001F01EFA01F0ECF90A48FFF72BFF00F074
:102B200095F801F00FFA00F0A7F8FAE70038024034
:102B3000000802400004024000000240C0000020E3
:102B400000100140F889000872B6FEE71A4B5A6976
:102B5000D00514D519491A4A4FF4807058610B6991
:102B60001178FF290BD017490969C90530B4DBB2C8
:102B700006D5852B15D9FD23137030BC70477047DF
:102B8000114C1248216805688D42F6D9104D6B54DE
:102B90000131216003688B4204BFFF23137030BCF6
:102BA00070470A4C0849013323600020FC23086069
:102BB000137030BC704700BF003C01400000024071
:102BC0000401002000040240900100209401002034
:102BD00008010020184B1A69D1050FD54FF47F0169
:102BE000164A996112781649D2B29A614B691A0451
:102BF00020D5134B4FF400425A61704710B411486E
:102C00000F4C01684FF47F029A610A78D2B29A6140
:102C100063691B040BD50C4B1A6822B11A68013189
:102C2000013A1A600160064B4FF400425A615DF8A8
:102C3000044B7047704700BF0004024004010020AD
:102C4000003C0140640000201802002010B4074A34
:102C5000074C084900237F2023701060DAB2CA5461
:102C60000133802BFAD15DF8044B70471802002025
:102C7000040100209801002038B5294C2378FF2B4F
:102C800000D038BD274B19780129CAB209D0022AD1
:102C900029D06AB119782448FFF76CFEFE2323700F
:102CA00038BD224A1268062A2BD0FD23237038BD76
:102CB0001E4A116803291ED01368012BF5D11C4D43
:102CC0002988013189B2298012681A48FFF752FE1B
:102CD000194B1A491A4A288818800B6001210023D1
:102CE0001160237038BD5878D3F802109A1D00F097
:102CF000DBF8207038BDB3F801300D4D99B22B8050
:102D0000E2E70D4D5878D3F802102A4600F0A0F8FB
:102D10000A4A0B4B15607F221A60207038BD00BF35
:102D200004010020080100203C8A000894010020D2
:102D30001C0200202C8A000898010020640000205A
:102D400018020020F0B5374F3B78834285B00D461E
:102D50001ED01A28044657D8FF2B2FD1324B334AA6
:102D6000002C18BF1A4604F160030021DBB2009367
:102D700008462F4BFDF7A2FA064660B32D48032202
:102D8000314603F0FFFA98BB30463C70FDF74AFB32
:102D90002848EC01C66814F180014FEA556343F1FD
:102DA000000300228E4272EB030319D3214603F085
:102DB000C9FE014648B9084605B0F0BD1D4803F0FC
:102DC00095FE38BBFF233B70C8E71B482246FFF740
:102DD000D1FD0521EFE71948FFF7CCFD0C21EAE70B
:102DE00029461748FFF7C6FD1621084605B0F0BD75
:102DF000024631461348FFF7BDFD3046FDF712FB92
:102E00000521084605B0F0BD21460F48FFF7B2FD89
:102E10000221D0E701460D480391FFF7ABFD03996E
:102E2000C9E700BF68000020608A0008548A0008D3
:102E3000600D002020020020F08A0008A48A00080B
:102E4000D88A0008B48A00086C8A0008848A0008BE
:102E500070B50D460446014682B0104816462A4613
:102E6000FFF788FD20462946FFF76CFF044610B1A6
:102E7000C0B202B070BD80220948019401AB314656
:102E800003F0DAFB019A08B9802AF2D0014605481E
:102E9000FFF770FD052002B070BD00BF1C8B00085D
:102EA000200200202C8B000870B50D460446014618
:102EB00082B0104816462A46FFF75CFD2046294698
:102EC000FFF740FF044610B1C0B202B070BD8022CF
:102ED0000948019401AB314603F092FC019A08B90C
:102EE000802AF2D001460548FFF744FD052002B0D4
:102EF00070BD00BF588B0008200200202C8B0008FA
:102F0000FEE700BFFEE700BFFEE700BFFEE700BF31
:102F1000FEE700BF704700BF704700BF704700BFAB
:102F200000F042BE014801F0B7B900BF54040020D0
:102F300010B582B01D4B00220092586C40F48040C6
:102F400058645C6C04F480440094009C01921C6CF6
:102F500044F080541C641B6C03F0805301930121E6
:102F60006FF00B00019B00F07BFD002201216FF050
:102F70000A0000F075FD002201216FF0090000F049
:102F80006FFD002201216FF0040000F069FD0022B6
:102F900001216FF0030000F063FD002201216FF0BA
:102FA000010002B0BDE8104000F05ABD00380240F8
:102FB00030B5194A016889B000239142CDE9033345
:102FC000CDE90533079301D009B030BD02F5943245
:102FD0000193516C41F010015164506C00F01000ED
:102FE000019001980293136B0C4843F001031363A3
:102FF000136B03F001030293032207234FF4C06510
:1030000003A902240395CDE90623029D049400F050
:103010001FFC09B030BD00BF00100140000002409D
:103020000268116938B50446C068A36821F44051AC
:1030300001432069116103436069D1680343E0697A
:1030400021F4164121F00C0103430B43D360536973
:10305000A069284923F4407303438A42536129D06D
:10306000254B9A4226D000F0D3FBE369B3F5004F1D
:1030700026D16268214D92184FF019014FF00003DC
:103080005B41A0FB0101FFF79FFAA5FB003251094C
:10309000642303FB1103DB003233A5FB0323C3F3DB
:1030A00042121B09246802EB011203F4F873134463
:1030B000A36038BD00F0BCFBE369B3F5004FD8D086
:1030C000636819219A00A0FB01019B0FFFF77CFAAE
:1030D0000A4AA2FB00135B092168642404FB130065
:1030E00000013230A2FB00201B0103EB501088606E
:1030F00038BD00BF00100140001401401F85EB5196
:103100002DE9F84380460F4691461E46D8F80050F8
:1031100001E0731C06D12C6837EA0403F9D10020C2
:10312000BDE8F8833EB100F04BFDA0EB09008642FC
:10313000ECD2D8F8005005F10C0353E8003F23F41B
:10314000D07305F10C0141E80032002AF3D105F1FA
:10315000140353E8003F23F0010305F1140141E893
:103160000032002AF3D1202388F83D3088F83C2033
:1031700088F83E300320D3E760B338B590F83D308F
:10318000044603F0FF0203B32268242384F83D3091
:10319000D36823F400532046D360FFF741FF236830
:1031A0001A6922F490421A615A6922F02A025A617D
:1031B000DA680025202142F40052DA60256484F8A0
:1031C0003D1084F83E10284638BD80F83C20FFF7BB
:1031D000EFFED9E7012070472DE9F843044690F847
:1031E0003D00202846D10D46002940D01746002A30
:1031F0003DD01E4694F83C30012B3BD0012384F88F
:103200003C304FF000092123C4F8409084F83D3051
:1032100000F0D6FCA368A784B3F5805FE7848046FE
:103220002BD0E38C00229BB284F83C207BB92DE0AC
:10323000236815F8012B5A60B4F826C00CF1FF3C46
:103240001FFA8CFCA4F826C0E18C89B2F1B1334698
:10325000424680212046FFF753FFA0B9002DE7D159
:1032600039F8023B2268C3F308035360E4E7012006
:10327000BDE8F8830220BDE8F8832369002BD0D194
:10328000A9461D46CDE70320BDE8F88333464246F4
:1032900040212046FFF734FF0028F4D1202384F892
:1032A0003D30E5E7002800F0A2812DE9F0410368F8
:1032B000DD0782B004462FD59E498A6802F00C02D1
:1032C000042A00F0ED808A6802F00C02082A00F05F
:1032D000E3806368B3F5803F00F0EC80B3F5A02F86
:1032E00000F07581934D2A6822F480322A602A68A2
:1032F00022F480222A60002B40F0E18000F060FC84
:10330000064605E000F05CFC801B642800F20181A9
:103310002B689B03F6D423689F0728D5854A9168BC
:1033200011F00C0F00F09080916801F00C01082959
:1033300000F08680E368002B00F00E817E4B7D4E0E
:1033400001221A6000F03CFC054605E000F038FC64
:10335000401B022800F2DD8033689807F6D53368F9
:10336000226923F0F80343EAC203336023681A0793
:1033700051D458072FD56F4A136C13F080537FD068
:1033800000256E4E3368D90540F1B380A368012B48
:1033900000F0C380052B00F02C81664E326F22F0C6
:1033A00001023267326F22F004023267002B40F0D4
:1033B000B98000F005FC41F28838074605E000F0CE
:1033C000FFFBC01B404500F2A480336F9807F6D482
:1033D000002D40F00681A069C8B1564DAB6803F0DE
:1033E0000C03082B00F0C980534B002202281A66F8
:1033F00000F0098100F0E4FB044605E000F0E0FB8A
:10340000001B022800F285802B689B01F6D4002067
:1034100002B0BDE8F08163690BB3474B454E012212
:10342000C3F8802E00F0CCFB054604E000F0C8FB9A
:10343000401B02286DD8736F9B07F7D5236898E768
:10344000526856023FF576AF3A4A1268950744D55E
:10345000E268012A41D0012002B0BDE8F081364A7D
:10346000344EC2F8803E00F0ABFB054604E000F0AD
:10347000A7FB401B02284CD8736F9F07F7D4DDE7EA
:103480000193136C43F080531364136C03F0805367
:103490000193019B012574E74A6850027FF519AF3B
:1034A000244A126891037FF537AF6268002A7FF4DF
:1034B00033AFD0E71F4A136843F48033136000F042
:1034C0007FFB1C4E054604E000F07AFB401B64289D
:1034D0001FD833689A03F7D51DE7164920690A6893
:1034E00022F0F80242EAC0020A601A077FF541AFF3
:1034F00091E7336843F48073336000F061FB074663
:103500003368DA053FF542AF00F05AFBC01B0228D2
:10351000F6D9032002B0BDE8F081064A136F43F0EC
:103520000103136700F04CFB024F064641F2883856
:103530000BE000BF0038024000004742007000402E
:1035400000F03EFB801B4045E3D83B6F9B07F7D55F
:10355000002D3FF440AF44E0424A434E136000F078
:103560002FFB054604E000F02BFB401B0228D0D8BF
:1035700033689907F7D42368F9E601283FF448AF88
:103580006B68E26903F4800191427FF464AF226AC0
:1035900003F03F0191427FF45EAF616A47F6C0726B
:1035A0001A40B2EB811F7FF456AFA26A520803F4AF
:1035B0004031013AB1EB024F7FF44DAFE26A03F0C4
:1035C0007063B3EB026F14BF0120002020E7264B8D
:1035D0001A6842F480221A601A6842F480321A6033
:1035E0006DE7214A136C23F080531364F3E6012046
:1035F00070471D4B1A6F42F004021A671A6F42F0AF
:1036000001021A678EE700F0DBFA064605E000F0DB
:10361000D7FA801B02283FF67CAF2B689901F6D4BD
:10362000D4E90731626A0B4343EA8213D4E90A21E1
:10363000520843EA0163013A0A4943EA024301227C
:103640006B600A6600F0BCFA074D044605E000F026
:10365000B7FA001B02283FF65CAF2B689A01F6D53B
:10366000D5E600BF0000474200380240164908B5C1
:103670008B6803F00C03042B1BD0082B17D14A686E
:103680004B68496813F4800302F03F0213D10F48DE
:10369000C1F38811A1FB0001FEF796FF0A4B5B689E
:1036A000C3F3014301335B00B0FBF3F008BD0748EF
:1036B00008BD074808BD0648C1F388110023A1FBD7
:1036C0000001FEF781FFE9E7003802400024F40022
:1036D00040787D01002800F08780484A136803F095
:1036E00007038B422DE9F0410D46044609D2CBB2C7
:1036F0001370136803F007038B4202D00120BDE86A
:10370000F0812368980714D5590704D53C498A6885
:1037100042F4E0528A601A0704D539498A6842F4B3
:1037200060428A603649A0688A6822F0F00202434B
:103730008A60DF0721D56268012A57D0931E012BCA
:103740002F4B1B684DD99907D8D52D4EB36823F060
:1037500003031343B36000F033FA41F2883807469D
:1037600004E000F02DFAC01B404544D8B3686268FD
:1037700003F00C03B3EB820FF3D1204A136803F07C
:103780000703AB4206D9EBB21370136803F00703CB
:10379000AB42B3D123685A0706D51949E0688A6855
:1037A00022F4E05202438A601B0707D5144A2169BC
:1037B000936823F4604343EAC1039360FFF756FF25
:1037C0000F4A104C92681049C2F303120346A25CE0
:1037D0000E48D34000680B6000F0A8F90020BDE857
:1037E000F0819801B1D489E701207047044B1B6830
:1037F0009E03AAD482E7032081E700BF003C024079
:1038000000380240688B0008700000206C00002027
:10381000044B05499B68054A0868C3F38223D35CBF
:10382000D84070470038024070000020788B0008B4
:10383000044B05499B68054A0868C3F34233D35CCF
:10384000D84070470038024070000020788B000894
:103850002DE9F04F00220C68704E85B013464FF0F2
:10386000010A894604E00133102B02F1020278D0EC
:103870000AFA03F101EA040BA143F4D1D9F804C018
:103880000CF003014D1E012D6ED9032940F0AE80CE
:103890009140CD4307683D4029431CF4403F0160FF
:1038A000E1D05F4D00210391696C41F4804169646E
:1038B000696C01F480410391039923F0030101F144
:1038C000804101F59C3103F00307D1F808E0BF0007
:1038D0000F25BD402EEA0508524DA84217D005F528
:1038E0008065A84200F086804F4DA84200F0878096
:1038F0004E4DA84200F08A804D4DA8420CBF4FF0BB
:10390000040E4FF0070E0EFA07F748EA0708C1F851
:103910000880B1686FEA0B071CF4801F0CBF3940A8
:103920004BEA0101B160F5681CF4001F0CBF3D407B
:103930004BEA0505F56075681CF4003F0CBF3D407F
:103940004BEA0505756031681CF4803F03F1010303
:103950000CBF39404BEA0101102B316002F1020229
:1039600086D105B0BDE8F08FD9F80C50876805FA0C
:1039700002F8032505FA02FE27EA0E0748EA0707C0
:10398000876047686FEA0E0527EA0B0ECCF3001735
:103990009F4047EA0E074760C76807EA050ED9F857
:1039A0000870974047EA0E070229C76001FA02F142
:1039B0007FF470AF4FEAD30E00EB8E0E03F00708D2
:1039C000DEF820700097D9F810704FEA880807FADF
:1039D00008F701970F2707FA08F8009F27EA080859
:1039E000019F47EA0807CEF8207053E7032595406A
:1039F000ED43D1E70AFA07F748EA070887E74FF0EF
:103A0000020E0EFA07F748EA070880E74FF0030EA8
:103A10000EFA07F748EA070879E700BF003C0140C3
:103A2000003802400000024000080240000C024042
:103A30000010024002B90904816170470749CA6851
:103A400003024FF6FF0003F4E0630240134343F028
:103A5000BF6343F40033CB60704700BF00ED00E06C
:103A60001C4BDB68C3F3022300B5C3F1070EBEF1A4
:103A7000040F03F1040C28BF4FF0040EBCF1060F35
:103A80001BD9033B4FF0FF3C0CFA03FC22EA0C026B
:103A90004FF0FF3C0CFA0EFC21EA0C019940002883
:103AA00041EA02010CDB00F16040090100F56140D0
:103AB000C9B280F800135DF804FB00221346E7E763
:103AC000054B00F00F0009010344C9B219765DF8F7
:103AD00004FB00BF00ED00E0FCEC00E0002808DB88
:103AE0004109044A00F01F00012303FA00F042F8E4
:103AF0002100704700E100E00138B0F1807F10D272
:103B000010B44FF0E023084C58614FF0F00C84F8EB
:103B100023C00022072110469A615DF8044B196109
:103B200070470120704700BF00ED00E038B50E4A35
:103B30000E4B12781B6805464FF47A70B0FBF2F01A
:103B4000B3FBF0F0FFF7D8FF08B90F2D01D9012022
:103B500038BD0446024629464FF0FF30FFF780FF8C
:103B6000034B20461D6038BD690000207000002016
:103B70006C00002008B50B4B1A6842F400721A6002
:103B80001A6842F480621A601A6842F480721A60FD
:103B90000320FFF753FF0F20FFF7C8FFFFF7C8F917
:103BA000002008BD003C0240034A044B11681B780A
:103BB0000B441360704700BF5004002069000020D0
:103BC000014B1868704700BF5004002038B5044608
:103BD000FFF7F6FF631C054602D0044B1B781C441C
:103BE000FFF7EEFF431BA342FAD338BD6900002064
:103BF000034AD2F8883043F47003C2F88830704723
:103C000000ED00E030B5036889B00024B3F1A04FA7
:103C1000CDE90344CDE90544079401D009B030BD96
:103C2000184D01942B6B184843F001032B632B6B49
:103C300003F0010301934FF4C053039302234FF0A9
:103C4000030C03A904930A23CDE906C3019AFFF7E5
:103C5000FFFD6B6B43F080036B6302946B6C43F46A
:103C600080436B646B6C03F4804322460121029312
:103C70004320029BFFF7F4FE4320FFF72FFF09B01C
:103C800030BD00BF0038024000000240D0F8000301
:103C900003F02ABCD0F8000303F03EBCD0F80003C8
:103CA00003F044BC704700BFD0F8000303F02CBC05
:103CB000D0F8000303F02CBC90F8CC33012B01D0DA
:103CC0000020704710B504460F48C4F8D0034FF0E9
:103CD000A04101600821002281600221C0E9033275
:103CE000C0E90612C0F8004300F020FA40B90648C7
:103CF00000F0BEFE0146204603F0F2FB002010BD9E
:103D0000FEF722FFF3E700BF5404002008B5D0F807
:103D1000D00300F075FE032896BF024B0220185C0A
:103D200008BD00BF808B000808B5D0F8D00300F0B4
:103D30007DFE032896BF024B0220185C08BD00BF21
:103D4000808B000808B5D0F8D00300F095FE03285A
:103D500028BF0120C0B208BD08B5D0F8D00300F0DC
:103D600077FE032896BF024B0220185C08BD00BFF7
:103D7000808B0008D0F8D00300F074BE10B584B07A
:103D8000D0F8D0039DF8184000949DF81C40019491
:103D9000BDF82040029400F07DF903289ABF024B41
:103DA000185C022004B010BD808B000808B5D0F864
:103DB000D00300F0A9F9032896BF024B0220185C3B
:103DC00008BD00BF808B000810B584B0D0F8D003C8
:103DD0009DF818400094079C0194BDF8204002947F
:103DE0009DF82440039400F0F3F903289ABF024B96
:103DF000185C022004B010BD808B0008D0F8D003FE
:103E000000F02ABE08B5C820FFF7E0FE002008BD7C
:103E1000D0F8D0332C2000FB013191F83B301BB19E
:103E200081F854200020704781F855200020704709
:103E3000D0F8D0332C2202FB013191F83B3013B182
:103E400091F85400704791F855007047FFF7BEBED7
:103E500010B5022992B00DD0052909D11D48FEF7F1
:103E600089FD1D490122002002F052FA014658BB8B
:103E700012B010BD1948FEF77DFD17491848012200
:103E800002F046FA0146C8B9134906A802F0A8FF95
:103E90000028EDD1134C05E09DF8093053B12046C0
:103EA000FEF768FD694606A803F01AF80DF109014E
:103EB0000028F1D006A802F0DDFFD9E70A4812B0C9
:103EC000BDE81040FEF756BD084812B0BDE81040EE
:103ED000FEF750BD848B0008600D0020A88B000801
:103EE000300B0020C88B0008B48B0008948B0008AE
:103EF00008B511491148012203F046F848B91049A4
:103F00000E4803F077F860B90C4803F0ADF878B9C3
:103F100008BDFEF719FE0A49084803F06BF80028AF
:103F2000F2D0FEF711FE054803F09EF80028EFD00E
:103F3000BDE80840FEF708BE513E000858070020C3
:103F400074000020014803F099B800BF5807002012
:103F500008B50349034802F0F3FF034B187008BD8E
:103F6000600D0020D08B0008640D002000207047F9
:103F700000207047014608B5034804F045F9B0FA3F
:103F800080F0400908BD00BF5807002010B5034667
:103F90008EB0144603292AD8DFE801F0021C11056F
:103FA00008460EB010BD134801AA194604F03EF9A8
:103FB000D0B9BDF80C305B0A23600EB010BD0D48BF
:103FC00001AA194604F032F970B9BDF80C3023602B
:103FD0000EB010BD074801AA194604F027F918B918
:103FE000029B23600EB010BD01200EB010BD042056
:103FF000D7E700BF5807002010B590B004460093E3
:104000000D480B46214604F037F908B910B010BD31
:10401000094803AA214604F009F99DF81930282B14
:1040200007D03A2B05D0042B14BF0120032010B079
:1040300010BD0320EAE700BF5807002010B590B07C
:104040000446009312480B46214604F05DF908B976
:1040500010B010BD0E4803AA214604F0E7F89DF801
:104060001930272B0ED007D9282B0ED03A2B14BF8E
:104070000120032010B010BD042B14BF0120032029
:1040800010B010BD022010B010BD0320E0E700BF4B
:10409000580700202DE9F04F90F8F85285B0012D17
:1040A0009DF838609DF83C70BDF8408027D04FF0F7
:1040B0002C0C0CFB010C04460025D00902F07F0AF1
:1040C0004FF0010B84F8F8B28CF838308CF83910C6
:1040D0008CF83AA08CF83B008CF83D508CF83F707F
:1040E0008CF83C60ACF84080CDE9017800962068FF
:1040F00000F0E6FE84F8F85205B0BDE8F08F02202B
:1041000005B0BDE8F08F00BF90F8F832012B0BD05E
:1041100010B504460123006884F8F83201F044F831
:10412000002084F8F80210BD0220704700284DD00E
:104130002DE9F04190F8F93204688AB0064603F0A0
:10414000FF02002B3CD02046032386F8F932E36BB4
:10415000344613F4807308BF336100F007FD54F850
:1041600010CB0FCC6D460FC50FCC0FC594E80300E4
:1041700085E80300371D97E80E00604600F0AAFCB2
:104180003068012100F0FAFCB446EE465CF8108B72
:10419000BCE80F00AEE80F00BCE80F00AEE80F006F
:1041A00094E8030085E80300404697E80E0000F01D
:1041B0009DFD0123002086F8F9320AB0BDE8F081A8
:1041C00080F8F822FFF71EFD3068BDE70120704738
:1041D00070B54FF02C0C0CFB010C9DF81040059EA7
:1041E000BDF818509DF81CE08CF83B208CF83F304F
:1041F000ECB90324022B8CF83DE08CF8424020D02F
:10420000A3421ED0012B27D02C2202FB0103002445
:1042100083F83910A3F860401946027C5E64006898
:10422000DD641C653831BDE8704000F0F3BE4FF02E
:10423000020E8CF842E0032BE6D8DFE803F01C0DF9
:1042400002022C2303FB01036AB993F855403CB1E9
:10425000022283F84220D7E72C2303FB010300222C
:1042600083F84220D0E793F85420002AF8D00222A5
:1042700083F84220C8E7012CC6D1002AC4D12C23E0
:1042800003FB010315B983F85540BDE793F855408A
:10429000002CE5D0B8E700BF2DE9F04F056885B0E8
:1042A0000446284600F01EFD012802D005B0BDE8F6
:1042B000F08F206800F012FD0028F7D0206800F091
:1042C0000DFD10F4001F20681CBF4FF40013436164
:1042D00000F004FD10F4801F20681CBF4FF4801311
:1042E000436100F0FBFC10F0806F20681CBF4FF0B2
:1042F0008063436100F0F2FC10F0020F20681CBFE5
:104300000223436100F0EAFC10F0005F206840F0F7
:10431000BD8000F0E3FCC60100F1EA80206800F0F7
:10432000DDFC000700F1DD80206800F0D7FCC1064D
:10433000266800F1C780304600F0D0FC8201B5D578
:10434000206800F02BFFA26807462068002A00F0D2
:10435000B58005F5A06500264FF02C0864E05FFAF3
:1043600086F900F5A06B0BEB491A4FEA4913DAF80E
:1043700008200193520700F14381DAF80820D305A1
:1043800000F17681DAF80820910640F15E81202262
:10439000CAF80820DAF80820920500F13E81DAF820
:1043A0000820D30740F10481206958B1DAF81020C1
:1043B00008FB094CC2F3120EDCF84820A2EB0E02F7
:1043C000CCF8502008FB094C012200238CF8612016
:1043D000CCF85C30CAF808209CF83F2012F0FD02AF
:1043E00000F05481012A0DD1019B53F80B0040F0DD
:1043F000005043F80B00494620468CF86020FFF738
:1044000051FC2069012808FB094100F07D8191F8E9
:10441000543083F0010381F854302068A2680136DB
:10442000B24205F1200549D906F00F0327FA03F33C
:10443000DB07F4D52B68190491D4F1B200F5A06C18
:104440000CEB411A4FEA411EDAF8083013F004036E
:1044500040F0EE80DAF808B01BF0200F00F0828008
:104460004FF0200CCAF808C008FB014C9CF83DE056
:10447000BEF1010FD3D18CF83D304FF002038CF820
:10448000603000F091FE2068A268C8E74FF000534A
:104490004361D5F84034DF073FF53BAF1021284694
:1044A00000F0A4FB284600F0CBFB0121206800F0BF
:1044B00093FC2046FFF7F2FB20682AE74FF00073D9
:1044C0004361F3E6B36923F01003B361376AC7F3BE
:1044D0004342022A00F0E380B36943F01003B36162
:1044E00029E72046FFF7D2FB2068082343611CE739
:1044F0002668D6F840340293D6F840340393039BE1
:1045000023F02E030393029B980707D5029BD9073C
:1045100000F13981039B43F002030393029B1A07C6
:1045200015D5039B43F008030393029B5B0740F1FF
:104530002E81A169022900F03B81E368012B04BFB1
:104540004EF66022C6F804242046FFF7ADFB029B1E
:104550009F0603D5039B43F020030393039BC6F8F8
:104560004034DBE6DAF8083013F4007B40F0FB80DF
:10457000DAF8083013F0010300F0D180DAF80820EF
:1045800008FB01435206C3F85CB005D5012283F84D
:104590003D204023CAF8083008FB01420123CAF835
:1045A000083082F8613000F0FFFD2068A26836E72D
:1045B000DAF8082012F0020200F08D8008FB0940B2
:1045C00090F86120012A00F0DB80052A00F0D880F5
:1045D000062A00F00681082A00F00381032A00F071
:1045E0001E81072A00F0C88090F860200223204630
:1045F000CAF808304946FFF755FB2068A2680EE765
:1046000008FB094204234FF0060CCAF8083049465B
:1046100082F861C000F0C8FDBCE62068494600F0A1
:10462000C3FD4FF40073CAF808302068A268F6E6AC
:1046300008FB01430422CAF80820062283F86120FF
:1046400000F0B2FD2068A268E9E6DAF80820120757
:1046500000F1A180DAF80820530500F1B480DAF8FF
:10466000082011067FF596AE08FB09428023CAE7B1
:1046700008FB09424FF480734FF0070CCAF808306A
:10468000494682F861C000F08FFD83E62068494604
:1046900000F08AFD10232069CAF80830B2E6C7F39B
:1046A0000A12002A3FF418AF07F00F074FF02C084A
:1046B00008FB0748D8F8441000293FF40DAFD8F89C
:1046C0005030D8F84C001344834240F2DD8004237C
:1046D00088F8603000E7DAF80830D9061CD508FB06
:1046E000094090F83F30032B00F0EA8013F0FD03FF
:1046F00004D1C3652369002B00F0E8801023CAF8B9
:1047000008302068A2688AE6B1F840208B6CB3FBC1
:10471000F2F3D8073FF57BAE2068A2687FE6DAF8AF
:1047200008B01BF0400F69D1DAF8083013F0080325
:1047300040F09D80DAF808B01BF0100F7ED008FB27
:1047400001424FF0030CD36592F83D3082F861C00E
:1047500033B9134692F83C2012B9012283F83D2068
:1047600000F022FDCAE74FF40073CAF8083000F0E9
:104770001BFD2068A26852E6C36D0133C3650422A5
:1047800080F8602032E72046FFF784FAC2E6204630
:10479000FFF78EFADBE608FB094208234FF0050C11
:1047A000CAF80830494682F861C000F0FDFCF1E526
:1047B000029B206803F4C023B3F5802F18BF0121AA
:1047C00000F00AFBC0E608FB09424FF480634FF09B
:1047D000080CCAF80830494682F861C000F0E4FCD1
:1047E000D8E508FB0940C26D0132022AC26516D91C
:1047F0000422002380F86020C365F7E608FB01422D
:10480000D365042382F86130012382F83D3000F043
:10481000CBFC4023CAF808302068A268FFE54FF0BF
:10482000020380F86030019B53F80B2022F0804295
:1048300042F0004243F80B200222D7E6DAF80830B3
:104840001B0649D52369002B7BD008FB0143DA6D99
:104850000132022ADA6500F28A804FF0020283F800
:1048600060208023CAF808302068A268D7E508FBDA
:1048700001430822CAF80820052283F8612000F0CD
:1048800093FC2068A268CAE53046019200F000FA65
:10489000019AD8F84430B8F84000134406F5A066F1
:1048A000C8F84430D8F8503006EB47111344824220
:1048B000C8F8503009694FEA471331D026680BE633
:1048C000C2654946206800F06FFC17E7032380F8B3
:1048D00061302068494643E7DAF808305B0538D490
:1048E000DAF808309B077FF59AAD08FB014393F88F
:1048F0006120012A44D0032A5FD0042A5DD0052A12
:104900006DD0062A5ED0082A5CD00223CAF808308F
:1049100008FB0143204693F86020FFF7C3F9FBE64C
:10492000C1F3C9410029C9D09A5922F0804242F00E
:1049300000429A5198F8543083F0010388F85430BB
:10494000BCE708FB0143062283F8612000F02CFC41
:1049500087E708FB0143082283F8612000F024FC6C
:104960004FF48063CAF808302068A26857E5042233
:104970000020D86583F860202046FFF793F970E7A0
:1049800083F8602093F83F20023A012ABDD82269BB
:1049900062B1012AB9D1DA6C002AB6D0B3F840006E
:1049A000013A0244B2FBF0F2D207AED593F855209B
:1049B00082F0010283F85520A7E74FF0020283F846
:1049C0006020A2E708FB0142D36D0133022BD365BF
:1049D00008D90023D365042382F8603095E783F873
:1049E000602092E74FF0020382F860305CF80E30EE
:1049F00023F0804343F000434CF80E3085E700BFBE
:104A000090F8F832012B0ED010B504460121006851
:104A100084F8F81200F01EFA206800F09FF80020D9
:104A200084F8F80210BD0220704700BF90F8F832F9
:104A3000012B0BD010B504460123006884F8F8322E
:104A400000F016FC002084F8F80210BD0220704728
:104A5000006800F0DFB900BF2C2303FB010191F8CF
:104A6000600070472C2303FB0101086D704700BFF5
:104A7000006800F01FBA00BF006800F00FBA00BF66
:104A800082B00023124A019302E00369002B08DB85
:104A9000019B01330193019B9342F6D9032002B09D
:104AA0007047002301930369094A43F0010303613E
:104AB00003E0036913F0010306D0019B0133019366
:104AC000019B9342F5D9E9E7184602B0704700BF51
:104AD000400D030084B010B50DF10C0C8CE80E00F5
:104AE000089B012B044622D1836B0F9A23F4803359
:104AF0008363C36823F4840323F04003C360C36863
:104B0000012A23F44013C36023D02046FFF7B8FFE7
:104B1000069B012B07D1A36843F00603A360A3689B
:104B200043F02003A360BDE8104004B07047C368A1
:104B300043F04003C360FFF7A3FF0C9B23B9A36BB3
:104B400043F48033A363E3E7A36B23F48033A363CD
:104B5000DEE7C36843F48013C360D6E70346002052
:104B60009A6842F001029A60704700BF0346002035
:104B70009A6822F001029A60704700BF38B5C36896
:104B8000012923F0C0430546C36018D0A9B9C36802
:104B900043F080430C46C36001E0322C0DD001206D
:104BA000FFF714F86B69DB0704F10104F5D4A4F1F5
:104BB0003200B0FA80F0400938BD012038BDC3682A
:104BC00043F000530024C36001E0322CF5D00120F3
:104BD000FEF7FCFF6B69DA0704F10104F5D5A4F1D7
:104BE0003200B0FA80F04009E6E700BF82B000234F
:104BF000124A019302E00369002B08DB019B013399
:104C00000193019B9342F6D9032002B070478901BA
:104C1000002341F020010193084A016103E0036988
:104C200013F0200306D0019B01330193019B9342B3
:104C3000F5D9E9E7184602B0704700BF400D030000
:104C400082B00023114A019302E00369002B08DBC4
:104C5000019B01330193019B9342F6D9032002B0DB
:104C60007047002110230191084A036103E00369A2
:104C700013F0100306D0019B01330193019B934273
:104C8000F5D9EBE7184602B0704700BF400D0300AE
:104C90005FEA920C70B5054602F003061BD000F5E2
:104CA000805E0A4600230133DEF8004042F8044BE0
:104CB0009C45F8D101EB8C0066B105F580550644A2
:104CC0002968002321FA03F200F8012BB04203F116
:104CD0000803F7D170BD0846EEE700BF426980695E
:104CE00010407047406900F00100704784B070B513
:104CF000044605A880E80E000023C4F8003EA36B1C
:104D000043F40013A363A36B23F40023A363A36BF7
:104D100023F48023A363E36B1546DA0549D5079B8B
:104D2000012BD4F8003447D023F00403C4F8003436
:104D300010212046FFF75AFF06462046FFF780FF66
:104D40003043C0B2003818BF012065B1002204F51D
:104D5000A0634FF0FF361146013295429E60D96044
:104D600003F12003F8D14FF0FF330022A261636109
:104D7000E36BDB0515D5134A134B4FF400716162E9
:104D8000A262C4F80031089B1BB9A36943F0100369
:104D9000A361A2690D4B1343A361BDE8704004B049
:104DA00070470B4A0B4B80216162A262C4F800314C
:104DB000E9E7D4F80034B7E743F00403C4F800345B
:104DC000B6E700BF000200010003E000080020A3D6
:104DD00080006000E0004000D0F8003423F00303BE
:104DE000C0F80034D0F8002401F003031343012974
:104DF000C0F8003400F5806006D0022904BF41F2FB
:104E000070734360002070474BF68033436000208E
:104E1000704700BF30B583B000250195D0F840340D
:104E20000193019B23F02E030193019B044643F45D
:104E30008073C4F840346420FEF7C8FE019B23F45D
:104E400080730A20C4F84034FEF7C0FE284603B041
:104E500030BD00BF82B000230193D0F840340193ED
:104E6000019B23F02E030193019B13F4805F019BB0
:104E700001D101290AD0DB0405D521B9019B23F416
:104E80008053C0F84034002002B0704743F4805390
:104E9000C0F84034019B002002B0704782B000236C
:104EA0000193D0F8403401930198C0F3414002B01F
:104EB000704700BF00F58060806880B2704700BF17
:104EC0002DE9F04182B000EB411E0EF5A0659DF882
:104ED00024C09DF82070BDF828604FF0FF34AC600E
:104EE000BCF1030F7CD8DFE80CF00271025240F2F3
:104EF0009D44EC6014064FD4C46BE40503D5EC6804
:104F000044F06004EC60EC6844F00204EC60D0F81B
:104F10001854012401F00F0104FA01F12943C0F8EB
:104F200018148169002441F0007181612546002137
:104F30000191D0F840040190022F019805D1C0F3EF
:104F40004140022818BF4FF400319B0503F0FE5387
:104F5000C6F30A06D20202F4F042334313434FEA87
:104F60008C4202F4402213432B430CF0FD0C0B4304
:104F7000BCF1010FCEF8003505D1DEF8003543F065
:104F80000053CEF80035204602B0BDE8F08140F273
:104F90009D64EC601406B6D5EC6844F48074EC6053
:104FA000EC6844F00204EC60D0F8184401F00F08FB
:104FB000012101FA08F12143C0F81814816941F078
:104FC0000071816100244FF40045B0E740F22524D0
:104FD000EC60140697D5EC6844F4C074EC60DFE72D
:104FE000EC6844F00204EC60D0F8185401F00F01B2
:104FF000012404FA01F12943C0F81814816912F060
:10500000800F41F00071816114BF4FF4004500250D
:105010008DE700BFF0B5C36B91F801C0DB0583B02D
:1050200002D50B79002B54D000EB4C1303F5A06391
:105030004D69002D3AD1CE784FF4002E0124002E78
:1050400045D00F8904FB07F78C7A0F61640704F0E1
:10505000C044C7F3120744EA0E043C431C610AB182
:10506000CC685C61D0F808441F6827F000571F60C7
:10507000E4431F68640704F000543C431C601C6850
:105080000194019C24F08044019400F58067002E77
:1050900034D0019A42F400420192019A42F0004257
:1050A0000192019A1A60002003B0F0BD0C89CE78FD
:1050B0006F1E2744B7FBF4F7BFB2B7F5807F3C46BD
:1050C00028BF4FF480744FEAC44E002EB9D12F464A
:1050D000BAE7012A27D0002AA6D14B79012BA3D108
:1050E00000EB4C102C4AC0F81025D0F8003523F006
:1050F000804343F00043C0F80035D4E7019C24F41A
:1051000000440194019C44F000440194019C1C6003
:10511000002AC8D1002DC6D0CB79032B17D8DFE8E1
:1051200003F0290F290FCB7913F0FD0F00EB4C137F
:1051300003F5A06302BFDC6824F07004DC6077E74D
:105140003A69EB1C92B2C3F38F039A421ED3ABB2FF
:1051500003339B08CA68A6D000EB0C3000F58050E2
:1051600002EB830352F8041B01609A42FAD100203B
:1051700003B0F0BDC26AEB1C92B2C3F38F039A4234
:10518000E5D2836943F020038361E0E7836943F05C
:1051900080638361DBE700BF0000088000F580606A
:1051A000406980B2704700BF30B482B000EB41115B
:1051B00000230193D1F80035D1F800558468A40686
:1051C00001F5A0624FEA934301D5002D26DA13F0D2
:1051D000010FD1F8003543F08043C1F8003521D1EB
:1051E00083689B061AD4C36A13F47F0FD1F8003585
:1051F00035D123F00043C1F80035D1F8003543F034
:105200000043C1F8003502E01368002B06DA019B69
:1052100001330193019BB3F57A7FF5D9002002B0E9
:1052200030BC7047D0F8103413F47F0FD1F800353C
:1052300015D123F00043C1F80035D1F8003543F013
:105240000043C1F8003502E01368002BE6DA019B49
:1052500001330193019BB3F57A7FF5D9DEE743F083
:1052600000430020C1F8003502B030BC704700BFD9
:1052700030B583B000230193836823F0010310212C
:1052800083600446FFF7B2FC05462046FFF7D8FCD2
:105290002843C0B204F5A062003818BF012004F50D
:1052A000E0619446DCF8003023F0802343F0804333
:1052B0004CF8203B8C45F5D1136823F4004343F0B0
:1052C0004043136002E01368002B06DA019B0133B0
:1052D0000193019BB3F57A7FF5D920328A42EBD155
:1052E0004FF0FF33C4F814346361A36843F0010343
:1052F000A36003B030BD00BF034B03EB8002034447
:105300005268187A53681847900D0020064B1A5CB3
:1053100042B903EB80020121195452681844136802
:10532000007A184700207047900D002030B4054CDB
:1053300004EB800504446D68207AAC68A44630BC58
:10534000604700BF900D002030B4054C04EB800591
:1053500004446D68207AEC68A44630BC604700BF06
:10536000900D0020044B03EB000C03EB80039CF832
:1053700008005B681B691847900D0020274A1368D6
:1053800070B43BB304689C4209D013693BB3A34299
:105390003CD002290CBF0020122070BC704753681B
:1053A0008568AB421ED01369CBB19C42F1D15369E1
:1053B000AB42EED1946943699C42EAD10123C1B961
:1053C00002EB031270BC9389B3F5807F14BF0020F9
:1053D000102070471469F4B10568A5420CD0184636
:1053E00070BC7047436996689E42DCD10023002957
:1053F000E6D0102070BC704755698468A542EED194
:10540000946940698442D9D01846E9E785685369B0
:10541000AB42BED1CEE72046BFE700BF6C0D0020F7
:105420002A4BF0B41A68056895421DD01C69AC423D
:1054300007D0002A2ED0002C44D000242046F0BCF7
:1054400070475E698768BE42F3D19E694769BE4274
:10545000EFD1012299B903EB02114FEA021C8989AD
:10546000541C4A1C92B228E084685E68A642DDD1D2
:105470009C684669A642D9D100220029EBD003EBF3
:1054800002114FEA021C89890029D6D1541C4FF41D
:10549000807212E00124002903EB02114FEA021C82
:1054A00082684A6042698A6043F80C504FF00002FB
:1054B0008A8114BF4FF480720122634420469A818E
:1054C000F0BC704702240122E5E700BF6C0D00200C
:1054D000016881B191F800C0BCF1200F13D90A46D0
:1054E000634603E012F8013F202B0CD93A2BF9D187
:1054F00001318A4202D04FF0FF307047BCF1300FCB
:10550000F9D1013202600020704700BF38B50D4666
:1055100040B1036804462BB11A781AB18088DA8842
:10552000904203D0092000232B6038BD5878FFF744
:10553000E3FE10F00100F5D12368F5E72DE9F04115
:10554000C56A00F130080446012340782A464146E6
:10555000FFF7FAFEC0B9226AA369E070AA1A9A425C
:1055600007460ED2A678012E01D80AE0A36960781A
:105570001D442A4601234146013EFFF7E5FE012E68
:10558000F4D13846BDE8F08101273846BDE8F08106
:10559000F8B5C37804465BB92378032B0FD00022FB
:1055A00060781146FFF7DEFE003818BF0120F8BD15
:1055B000FFF7C4FF0028FAD12378032BEFD1267917
:1055C000012EECD104F130074FF40072002138466F
:1055D000FAF730FF5223256984F8303084F83130EF
:1055E000412384F8333084F8163233467226E0685B
:1055F00084F8146284F815622E0A612284F8185225
:1056000084F819622E0C2D0E84F8322084F81722AB
:1056100084F81B52E26984F81C02050A84F81D52C2
:10562000050C000E5521013284F81F02AA2084F8CF
:105630002E1284F82F0239466078E26284F81A62EA
:1056400084F81E52FFF780FE00232371A7E700BFF6
:1056500038B5C37804460D466BB92A4660780123F5
:1056600004F13001FFF762FE00281CBF4FF0FF3548
:105670000120E56238BDFFF761FF0028EDD038BD9D
:1056800030B5421E00F10A044FF0000E2E2507E04F
:1056900001EB0E0C0EF1010E8CF80930A24212D073
:1056A000944612F8013F202BACF1070CF6D0052BE5
:1056B00008BFE5238445EBD101EB0E0C0EF1010E82
:1056C0008CF80950E4E78E4400238EF80930C37A41
:1056D0000B72C3690B60D0F81630CB801B0C8B802B
:1056E00030BD00BF70B54FF0FF360023B142044615
:1056F000C370C6620CD00D460A464078012304F1FF
:105700003001FFF713FE10B1E662042070BDE562C0
:10571000B4F82E224AF655239A421AD194F8303022
:10572000E92B07D0236B0D4A03F0FF13934201D0FE
:10573000022070BDD4F86630094A23F07F439342BB
:1057400009D0D4F88200074B984214BF02200020F1
:1057500070BD032070BD002070BD00BFEB00900045
:105760004641540046415433F0B5002385B00B60E8
:105770000F461446FFF7ACFE051EC0F2C480904BE6
:1057800053F82560002E00F0CB803E60337804F0A3
:10579000FE047BB17078FFF7AFFDC7070AD4002C79
:1057A00000F0AA8010F0040400F0A6800A2420462D
:1057B00005B0F0BDE8B2002333707070FFF7A6FDAE
:1057C000C50700F19C800CB14407EFD4002130469E
:1057D000FFF788FF022876D0042800F0988001287F
:1057E00098BF002500F28780B6F83B30B3F5007F04
:1057F00040F08180B6F8462002B9726D96F84030CC
:10580000B261591E0129B37075D896F83D1088B25F
:10581000708100286FD0481E08426CD1B6F84170E4
:105820003781380767D1B6F8430000B9306DB6F854
:105830003EE0BEF1000F5ED002FB03F30EEB171447
:105840001C44A04257D3001B8842B0FBF1FC52D34A
:105850004FF6F5718C4565D840F6F5718C450EEB29
:1058600005000CF102012C44F561B46271613062F3
:1058700079D8002F3FD0034401EB410001F0010132
:1058800001EB50017362012001F2FF11B2EB512FC5
:1058900031D34FF0FF33C6E90333802232714949D7
:1058A000494A0B883070106801339BB286420B80E6
:1058B000F38004BF0023136013699E424FF000047D
:1058C0001AD1146118E06C4606F5F77306F22E2023
:1058D00021461A7902B19A6841F8042B1033984294
:1058E000F7D104F1100754F8045B03208DB9BC42D2
:1058F000F9D104280BD00D24204605B0F0BD0324B7
:10590000204605B0F0BD0B24204605B0F0BD0124B3
:10591000F2E729463046FFF7E5FE0128E7D863E7BE
:105920000C24E9E70EEB05013162B6F85A10F56177
:105930000CF102032C443943B4627361DBD19B0048
:1059400003F2FF13F16D7162B2EB532FD3D3B6F8AC
:1059500060204FF0FF338021012AC6E90333317103
:1059600008D003209BE7002FC5D003447362490091
:10597000022089E7F36A691C994204D03046FFF798
:1059800067FE0028EDD1B6F82E224AF655230021F5
:105990009A423171E5D1326B0C4B9A42E1D103F15D
:1059A000FF53D6F8142203F5005320339A42D8D17E
:1059B000D6F81822D6F81C32C6E90332D1E700BF68
:1059C000680D00208C0D00206C0D002052526141AA
:1059D0002DE9F8430378022B04460D46164606D0FF
:1059E000032B6AD0012B27D00220BDE8F883076A79
:1059F000C36A07EB11279F4200F09080C378002B09
:105A000040F0B68004F13008607801233A46414600
:105A1000FFF78CFC00284AD1E7626D0005F4FF75A2
:105A200008EB050108F80560C6F3072201234A7058
:105A3000E3700020BDE8F883026AC36A01EB5107F6
:105A400002EB5728984563D0C378002B40F08A803A
:105A500004F130096078012342464946FFF766FCAD
:105A600028BBC4F82C8015F0010507F10108C7F325
:105A700008075ED019F8073003F00F0343EA061356
:105A800009F807300123276AE370E36A07EB582718
:105A90009F4278D02046FFF751FD0028A5D16078BD
:105AA00001233A464946FFF741FC002839D04FF020
:105AB000FF33E3620120BDE8F883026AC36A02EBA8
:105AC000D118984527D0C378002B57D104F130075F
:105AD0006078012342463946FFF728FC0028E6D1CA
:105AE000C4F82C80AD0005F4FE7526F070427B5999
:105AF00003F0704379191A43130C7A55100A8B700E
