:020000040800F2
:10000000000001206D9F000875310008773100085D
:10001000793100087B3100087D31000800000000C4
:100020000000000000000000000000007F31000818
:10003000813100080000000083310008853100088C
:10004000BD9F0008BD9F0008BD9F0008BD9F000820
:10005000BD9F0008BD9F0008BD9F0008BD9F000810
:10006000BD9F0008BD9F0008BD9F0008BD9F000800
:10007000BD9F0008BD9F0008BD9F0008BD9F0008F0
:10008000BD9F0008BD9F0008BD9F00080000000044
:10009000000000000000000000000000BD9F0008FC
:1000A000BD9F0008BD9F0008BD9F0008BD9F0008C0
:1000B000BD9F0008BD9F0008BD9F0008BD9F0008B0
:1000C000BD9F0008BD9F0008BD9F0008BD9F0008A0
:1000D000BD9F0008BD9F0008BD9F000800000000F4
:1000E000BD9F0008BD9F0008BD9F000800000000E4
:1000F000000000000000000000000000BD9F00089C
:1001000000000000BD9F0008BD9F0008BD9F0008C3
:1001100000000000000000000000000000000000DF
:10012000BD9F0008BD9F0008BD9F0008BD9F00083F
:10013000BD9F00080000000000000000000000005B
:100140000000000000000000000000008D310008E9
:10015000BD9F0008BD9F0008BD9F0008BD9F00080F
:10016000BD9F0008BD9F00080000000000000000C7
:10017000000000000000000000000000000000007F
:1001800000000000BD9F000800000000000000000B
:04019000BD9F000807
:1001C0000348044B834202D0034B03B118477047E6
:1001D000A4000020A40000200000000005480649FB
:1001E0000B1AD90F01EBA301491002D0034B03B145
:1001F00018477047A4000020A40000200000000061
:1002000010B5064C237843B9FFF7DAFF044B13B15E
:100210000448AFF300800123237010BDA400002028
:1002200000000000C09F000808B5044B1BB1044942
:100230000448AFF30080BDE80840CFE700000000AD
:10024000A8000020C09F000800B50B4C256814468C
:10025000EE681A4685B003460D464CB10749009535
:10026000CDE901143046064900F022F800F0ECFE1A
:1002700004490C46F3E700BF0000002074A6000804
:1002800084A600084CA2000808B513460022FFF718
:10029000DBFF00BF0CB400B583B004AB53F8042BF4
:1002A000019300F09FF903B05DF804EB02B07047D2
:1002B0000EB410B583B005AB064C53F8042B019374
:1002C0000146206800F08EF903B0BDE8104003B08D
:1002D000704700BF0000002070B50D4E0D4D761B1D
:1002E000B61006D0002455F8043B01349847A642C6
:1002F000F9D1094E094D761B09F062FEB61006D001
:10030000002455F8043B01349847A642F9D170BD4A
:10031000F8A60008F8A60008FCA60008F8A6000841
:10032000024B0146186800F0BFB800BF0000002073
:10033000024B0146186800F055B800BF00000020CD
:10034000830730B548D0541E002A3FD0CAB20346B6
:1003500001E0013C3AD303F8012B9D07F9D1032CAE
:100360002DD9CDB245EA05250F2C45EA054536D9EC
:10037000A4F1100222F00F0C03F1200EE6444FEA24
:10038000121C03F1100242E9045542E902551032F1
:100390007245F8D10CF1010214F00C0F03EB0212BC
:1003A00004F00F0C13D0ACF1040323F00303043367
:1003B000134442F8045B9342FBD10CF003042CB1CC
:1003C000CAB21C4403F8012B9C42FBD130BD6446E9
:1003D0001346002CF4D1F9E703461446BFE71A464A
:1003E000A446E0E7002958D030B551F8043C83B06A
:1003F000002BA1F10404B8BFE418019001F0EEFB5A
:10040000284A0198136833B1A3420DD9216804EB3F
:10041000010C63452FD06360146003B0BDE8304029
:1004200001F0DEBBA34210D81A465B68002BF9D15D
:10043000116802EB010C644519D02FD3636054603E
:1004400003B0BDE8304001F0CBBB116802EB010CFA
:10045000A44516D022D8216804EB010C6345EDD1E8
:100460001D685B682944C4E900135460D5E723681C
:1004700019441160D1E71D685B682944C4E9001381
:10048000CAE7246821445418A3421160C5D1D3E9B6
:1004900000432144C2E90013BFE770470C23036007
:1004A000BBE700BFC0000020F8B5CD1C25F0030558
:1004B00008350C2D38BF0C25002D064623DBA9423C
:1004C00021D8254F01F08AFB3A6822B3144603E095
:1004D00063682246FBB11C4623685B1BF8D40B2BD8
:1004E00015D8636894420CBF3B605360304601F0FE
:1004F00077FB04F10B00231D20F00700C21A01D086
:100500001B1AA350F8BD0C2333600020F8BD2360F4
:100510001C442560EAE77968C9B12946304600F0F5
:100520009FFB431C0CD0C41C24F00304A04205D044
:10053000211A304600F094FB013001D02560D5E748
:100540000C233046336001F04BFB0020F8BD3046F1
:1005500000F086FB7860E0E7C00000209368013B74
:10056000002B936011DA10B49469A34209DB0A29C5
:1005700007D01368581C1060197008465DF8044BCA
:1005800070475DF8044B00F079BC1368581C10608C
:1005900019700846704700BF9BB1F8B51344064672
:1005A0000F46541E5D1E01E0AC4208D014F8011F36
:1005B0003A463046FFF7D2FF431CF5D1F8BD002084
:1005C000F8BD0020704700BF936810B5144613B9FA
:1005D0005360184610BD00F04FFF0023C4E90133FB
:1005E00010BD00BF2DE9F04F88469FB015461C4650
:1005F000814618B18369002B00F0A280924B984588
:1006000000F0A480914B984500F0B180904B984544
:1006100008BFD9F80C80B8F80C30180740F19D805D
:10062000D8F81030002B00F0988000230B93297825
:10063000884E059420238DF8313030238DF83230E8
:100640000127002974D02C460B4604E014F8013F22
:10065000002B00F08F80252BF8D1B4EB050B40F078
:100660008C802378002B63D000234FF0FF32CDE93C
:100670000723069309938DF85B301C93013404E043
:10068000069A07FA03F3134306932546052214F846
:10069000011B304601F03CF9831B0028F0D1069B7A
:1006A000D90644BF20228DF85B2029781A0744BF61
:1006B0002B228DF85B202A2970D1059A116804320B
:1006C00000290592C0F29B800991697801352E2995
:1006D00076D0614C0322204601F01AF938B1069B0E
:1006E000001B402404FA00F003430693013515F87B
:1006F000011B5A488DF83010062201F009F9002834
:1007000000F08380564B002B6DD005AA0092554B0C
:10071000424606A94846AFF300800390039B01338D
:1007200006D00B9B039A297813440B9300298AD196
:10073000B8F80C305B0617D40B981FB0BDE8F08FEB
:1007400000F07AFE404B98457FF45CAFD9F8048006
:10075000B8F80C3018073FF563AF4146484600F043
:10076000F1FB00283FF461AF4FF0FF30E5E7D9F827
:10077000088050E7B4EB050BDAD0AA46C5F10105B5
:1007800003E0934536D91AF8011F42464846FFF761
:10079000E5FE013005EB0A02F3D1C9E7A1F1300211
:1007A000092A94D8099B15F8011F03EB830302EB78
:1007B0004303A1F13002092AF5D92E29099388D1E2
:1007C00069782A292BD1059BA9781A6807920433E6
:1007D000002A05F102000593B8BF4FF0FF3305462C
:1007E000B8BF079375E7059B073323F0070308336A
:1007F000059396E70B9A23785A440B9232E74942C5
:1008000043F00203099106935FE705AA0092154B96
:10081000424606A9484600F0CBF803907EE7A1F1D6
:1008200030020023092A079305F101053FF651AF75
:1008300015F8011F03EB830302EB4303A1F1300220
:10084000092AF5D9079344E71CA00008FC9F00087B
:10085000DC9F0008B4A60008BCA60008C0A60008DB
:10086000000000009905000810B4054C84461346AA
:1008700020685DF8044B0A466146FFF7B3BE00BF2F
:10088000000000202DE9F84F92461F460A698B6848
:10089000DDF828909A42B8BF1A46CAF8002091F8AD
:1008A00043300C46064613B10132CAF800202268D4
:1008B00091065DD5DAF800300233CAF800302268BC
:1008C00012F0060F11461ED1E168CB1A002BD8BFDB
:1008D000114618DD04F1190B4FF0000805E0E5683A
:1008E000DAF80030ED1A45450CDD01235A46394649
:1008F0003046C847013008F10108F0D14FF0FF3011
:10090000BDE8F88F216894F84330003B18BF0123FD
:100910008A060AD5E1185A1C302081F84300224487
:1009200094F8451082F84310023304F1430239462B
:100930003046C8470130E1D0236803F00603042B9A
:100940001DD0A3682269934225DD4FF000089B1A51
:1009500098441A34002501E045451CDA012322465B
:1009600039463046C847013005F10105F4D1C5E7E5
:1009700012F0060F12D0003B18BF0123D5E7DAF8BA
:100980000030E1682269C91AA368934221EAE1783C
:10099000DDDC0029DDDC0020BDE8F88FE168DAF855
:1009A0000030CB1A002BD8BF114693DCABE700BF59
:1009B0002DE9F0470C4684B09046227E0C990746FC
:1009C000994604F14300002A33D0A2F15803DDB266
:1009D000202D67D8202B65D8DFE813F0DE006400F7
:1009E00064006400640064006400640064006400E7
:1009F0006400A3006E0064006400640064006E0084
:100A0000640064006400640021007F00C000640092
:100A10006400AE0064007F0064006400E5002368A9
:100A20001A0640F104810B6862691D1D0D601B6888
:100A30001A60002382462361CDF80090434603AA42
:100A400021463846FFF71EFF013020D02369524669
:100A500041463846C847013019D02368E068039EF4
:100A60009B0719D5831B002B16DD04F1190A0025FD
:100A700004E0E068039E831BAB420DDD0123524678
:100A800041463846C847013005F10105F1D14FF024
:100A9000FF3004B0BDE8F087B042B8BF304604B0C4
:100AA000BDE8F087012384F84220236104F1420A63
:100AB000002384F84330BFE723681A0602D45E0699
:100AC00000F1C1800D682A6804350D601546002AC2
:100AD0006BDBDFF884C10A2610E023681D0640F1B5
:100AE0009C800B681D1D0D601D68DFF86CC16F2AAE
:100AF0000CBF08260A26002384F843306268A260EF
:100B0000002A7FDB236823F004032360002D5BD1E0
:100B1000002A79D18246082E65D0A0EB0A00206118
:100B20008AE70B680122186804330B6004F1420A5B
:100B300084F842002261BBE70B686268181D0860F8
:100B4000D3F800A00021504600F0E2FE002800F09B
:100B50008180A0EB0A0060602061A9E7236843F070
:100B6000200323607822DFF8F4C084F845200A6867
:100B7000151D0D601D0643D4590641D51588DE07A5
:100B800044BF43F020032360002D44D1236823F0A9
:100B9000200323601026AEE7582384F84530DFF8A1
:100BA000B8C02368E3E72368DCE76268A2602D2110
:100BB000002AC5F1000584F8431002DB23F004038A
:100BC0002360DFF894C00A268246B5FBF6F306FBE5
:100BD00013512A461CF801100AF8011DB2421D46A5
:100BE000F3D2082E99D12368D90796D56268236974
:100BF0009A4292DC30230AF8013C0AF1FF3A8CE772
:100C00001568BCE7002DDFD19CF8003084F8423035
:100C100004F1420A7FE710266DE713F0400F0B68DE
:100C200003F104050D600CBF1D681D885DE713F01E
:100C3000400F0B68626903F104050D601B6814BF67
:100C40001A801A60F5E60A68B2F9005004320A60A8
:100C50002A463CE760687FE7C8A60008DCA60008D3
:100C600038B5074D0022044608462A6001F02CFCE6
:100C7000431C00D038BD2B68002BFBD0236038BD4F
:100C8000C80000200000000000000000000000007C
:100C90000000000000000000000000000000000054
:100CA0000000000000000000000000000000000044
:100CB0000000000000000000000000000000000034
:100CC00090F800F06DE9024520F007016FF0000C8C
:100CD00010F0070491F820F040F049804FF0000434
:100CE0006FF00700D1E9002391F840F000F108000F
:100CF00082FA4CF2A4FA8CF283FA4CF3A2FA8CF347
:100D00004BBBD1E9022382FA4CF200F10800A4FAAD
:100D10008CF283FA4CF3A2FA8CF3E3B9D1E9042301
:100D200082FA4CF200F10800A4FA8CF283FA4CF338
:100D3000A2FA8CF37BB9D1E9062301F1200182FAF2
:100D40004CF200F10800A4FA8CF283FA4CF3A2FAF8
:100D50008CF3002BC6D0002A04BF04301A4612BA06
:100D6000B2FA82F2FDE8024500EBD2007047D1E909
:100D7000002304F00305C4F100004FEAC50514F098
:100D8000040F91F840F00CFA05F562EA05021CBF69
:100D900063EA050362464FF00004A9E710B51A4C58
:100DA000002924689AB02ADB009004904FF4027066
:100DB000ADF80C0013D001394FF6FF700291059188
:100DC000ADF80E006946204601F012F8421C01DA27
:100DD0008B232360009B00221A701AB010BD4FF6BF
:100DE000FF7002910591ADF80E006946204600F0B3
:100DF000FFFF431C01DA8B2323601AB010BD8B2345
:100E000023604FF0FF30F8E70000002030B5141EDB
:100E10009BB005462CDB4FF4027200910491ADF8B3
:100E20000C2014D04FF6FF711A46013CADF80E109D
:100E30001E9B02946946059400F0DAFF421C01DA19
:100E40008B232B60009B00221A701BB030BD4FF625
:100E5000FF711A46ADF80E101E9B02946946059468
:100E600000F0C6FF431C01DA8B232B601BB030BDA2
:100E70008B2303604FF0FF30F8E700BFF8B50D4655
:100E80001446064608B1836943B3254B9C422AD0D9
:100E9000244B9C4229D0244B9C4208BFF468A38970
:100EA000A269A2601A0722D5236903B32268616987
:100EB000D31AEDB299422F4629DD0133A1680139D9
:100EC000A160511C2160157062699A4216D0A389F5
:100ED000DB0701D50A2D11D03846F8BD00F0ACFA79
:100EE0000F4B9C42D4D17468D9E7B468D7E7214648
:100EF000304600F027F838B92369D7E72146304655
:100F000000F034F90028E7D04FF0FF37E4E721463E
:100F1000304600F02BF90028F6D122680123CDE7F6
:100F20001CA00008FC9F0008DC9F000810B4044CC3
:100F300003460A4620685DF8044B1946FFF79EBF3A
:100F4000000000203C4B70B51D6806460C460DB1F4
:100F5000AB69E3B1394B9C421FD0394B9C424DD019
:100F6000384B9C4208BFEC68B4F90C3018079AB2B1
:100F700019D5216911B312F001002FD00020A06013
:100F800060694042A06100292ED0002070BD284633
:100F900000F052FA294B9C42DFD16C68B4F90C3056
:100FA00018079AB2E5D4D1063ED5520728D4216954
:100FB00043F00803A3819AB20029DCD102F4207027
:100FC000B0F5007FD7D02146304600F011FCB4F9CF
:100FD0000C3021699AB212F00100CFD1950758BFA9
:100FE0006069A0600029D0D1120658BF0846CDD54F
:100FF00043F04003A3814FF0FF3070BDAC68B3E70E
:10100000616B51B104F14402914204D03046FFF7C4
:10101000E9F9B4F90C300022626321690022C4E9C5
:10102000001223F02403C3E7092243F04003326097
:101030004FF0FF30A38170BD000000201CA000080D
:10104000FC9F0008DC9F000808B5062001F07EF830
:10105000012001F04FFA00BF8B891A072DE9F041FA
:101060000C4680463FD44A68002A58DDE66A002EC6
:1010700052D00022D8F80050C8F8002013F4805253
:1010800051D10123216A4046B047431C5ED0A38959
:10109000E66A5F0705D56368C01A636B0BB1236C02
:1010A000C01A216A024600234046B047411C3CD189
:1010B000D8F80030002B38D01D2B01D0162B4DD185
:1010C00023690022C4E90032616BC8F8005019B3EB
:1010D00004F14403994202D04046FFF783F900200F
:1010E0006063BDE8F0810E69B6B10D680E609A07C5
:1010F0000CBF4B690023AD1B8B600BE02B463246C7
:10110000216AA76A4046B847B0F1000CA5EB0C0570
:10111000664413DD002DF1DC0020BDE8F0810A6C8F
:10112000002AA3DCF8E7606DB3E70023636023695E
:101130002360A389DB04C7D56065C5E7A38943F0B5
:1011400040034FF0FF30A381BDE8F081D8F80030B4
:10115000002B9CD01D2B06D0162B04D0A38943F066
:101160004003A381D9E7C8F80050D5E738B50B692B
:10117000BBB10D46044608B18369B3B10D4B9D4226
:1011800011D00D4B9D4213D00C4B9D4208BFE5681A
:10119000B5F90C302BB129462046BDE83840FFF7A1
:1011A0005BBF002038BD6568F2E700F045F9E5E770
:1011B000A568EDE71CA00008FC9F0008DC9F000864
:1011C00038B540B303690446E3B1174B1D680DB150
:1011D000AB69CBB1154B9C420FD0154B9C4221D033
:1011E000144B9C4208BFEC68B4F90C3053B1214653
:1011F0002846BDE83840FFF72FBF6C68B4F90C30C3
:10120000002BF4D1002038BD284600F015F9074B1B
:101210009C42E2D1F1E7084B08491868BDE8384024
:1012200000F0C2BAAC68DFE7000000201CA0000894
:10123000FC9F0008DC9F0008D89F00086D11000883
:1012400000207047014900F0AFBA00BF6D110008DF
:101250000020704770B568224D1E02FB05F50E4652
:1012600005F17401FFF720F9044640B100210C306C
:10127000C4E90016A06005F16802FFF761F8204696
:1012800070BD00BF274B2DE9F0411E68B3690746CA
:1012900053B348364FF00408D6E90134013B04D576
:1012A0001EE05A1C04F168041AD0B4F90C50013B3A
:1012B000002DF6D11C4B6566C4E90055C4E9025304
:1012C000C4E90455A5610822294604F15C00FFF732
:1012D00037F8C4E90D55C4E912552046BDE8F08140
:1012E00035682DB12E46D7E7304600F01FF8D0E71D
:1012F0004FF4D6713846FFF7D7F8044668B1056059
:10130000C0F804800C302946A06025464FF4D07206
:10131000FFF716F834602E46BEE70C2330603B60C2
:10132000DBE700BFD89F00080100FFFF2DE9F84F61
:10133000344B35491A68816290424FF00003C0E98E
:101340001233036504BF012383610546FFF79AFF4B
:1013500068602846FFF796FFA8602846FFF792FFCF
:101360006F68E86000240423C7E90243082221468D
:10137000C7E90044C7E904447C66BC6107F15C002E
:10138000FEF7DEFFDFF88CB0AE68DFF88CA0DFF888
:101390008C90DFF88C801D4BC7F828A0C7E9087B2C
:1013A000C7F82C90C7F830800822F360C6E90044E3
:1013B000C6E904447466B460B461214606F15C0079
:1013C000FEF7BEFFC6E9086BC6E90AA9C6F8308079
:1013D000EE680F4BF360C6E90044C6E90444746646
:1013E000B460B4612146082206F15C00FEF7A8FF54
:1013F0000123C6E9086BC6E90B98C6F828A0AB61C3
:10140000BDE8F88FD89F00084512000809000100C8
:1014100012000200BD220008E52200082523000872
:1014200045230008024B0349186800F0BDB900BF0E
:10143000D89F00086D110008836903B976E77047EB
:10144000704700BF704700BF704700BF704700BFC4
:10145000024B0349186800F087B900BF0000002064
:1014600041120008024B0349186800F07DB900BF23
:1014700000000020511200089368002B00F08580C6
:101480002DE9F04FB1F90C300C461907804683B0B6
:10149000174698B225D523691BB310F002033D68A7
:1014A0002DD04FF0000ADFF8BCB25646B9465E4573
:1014B0003346524628BF5B464046002E52D0216A32
:1014C000A76AB847002856DDD9F808301B1A8244AD
:1014D000361AC9F80830002BE9D1002003B0BDE866
:1014E000F08F21464046FFF72DFD002840F0368161
:1014F000B4F90C303D6898B210F00203D1D110F06D
:10150000010944D14E46009746B38205D4F808B08D
:1015100040F18380B3455A4600F2B28010F4906FD8
:1015200040F0BF8020680192494600F0DBFAA368D2
:10153000019AA3EB0B012368A1601344B246236018
:101540000026009B9868A0EB0A00D1449860002810
:10155000C3D0B4F90C0080B2002ED6D1D5E90096E4
:101560000835D1E7D5E900A60835A0E72146404671
:10157000FFF7FCFD80B3B4F90C3043F040034FF0AB
:10158000FF30A38103B0BDE8F08F002070471E46F6
:10159000AA46994618461D46009756B388B34A4650
:1015A000D4E904132068B24228BF3246884205D9E4
:1015B000A16803EB010B5A4500F3A680934263DC5C
:1015C000216AA76A2A464046B847B0F1000BD2DD2F
:1015D000B9EB0B09CAD00120009A9368A3EB0B0367
:1015E0005D44A6EB0B069360002B3FF476AF002E14
:1015F000D4D10AF1080353E902569A460833002E63
:10160000F9D032460A21284600F082F9002800F07D
:101610009C800130A0EB0509C1E72068236998424E
:1016200016D86369B34213D86FF00042B24228BFA4
:101630003246216A92FBF3F2A76A02FB03F34046AB
:101640004A46B847B0F1000A95DDA6EB0A0678E7EE
:10165000B345DA4628BFB2465246494600F042FA40
:10166000A3682268A3EB0A035244A3602260002B04
:10167000EBD121464046FFF779FD0028E5D07AE717
:101680002068B34632464EE72946019200F02AFA16
:10169000019AA3689B1AA3602368134423609346AE
:1016A00096E723682169A3EB010B636903EB430A07
:1016B0000AEBDA7A0BF101034FEA6A0A3344534525
:1016C000524684BF9A46524643052CD511464046A1
:1016D000FEF7EAFE00283BD05A462169019000F04F
:1016E00067F9A289019B22F4906242F08002A281F4
:1016F00003EB0B002361AAEB0B03C4F814A0A36057
:101700002060B34632460EE729465A4600F0EAF911
:1017100023685B44236021464046FFF727FD0028ED
:101720003FF456AF27E7404600F05CFA0346002836
:10173000DED121694046FEF755FEB4F90C300C228B
:1017400023F08003C8F8002017E7721C914627E7B2
:101750000C22B4F90C30C8F800200EE74FF0FF302F
:10176000BCE600BF00FCFF7F2DE9F041884600F198
:1017700048070026D7E90154013D0FD4A389012B66
:1017800005F1FF3506D9B4F90E300133204601D0FA
:10179000C04706436B1C04F16804EFD13F68002F7B
:1017A000E8D13046BDE8F0812DE9F8430746884688
:1017B00000F148064FF00009D6E90154013D11D46B
:1017C000A389012B05F1FF3508D9B4F90E30013397
:1017D000214603D03846C04749EA00096B1C04F192
:1017E0006804EDD13668002EE6D14846BDE8F8839E
:1017F000F0B58B890C46990797B007D504F14703DC
:101800000122C4E90432236017B0F0BDB4F90E1010
:10181000002905462DDB6A4600F0C0FD002827DBC5
:10182000019E06F470464FF48067A6F50056B6FA9E
:1018300086F6394628467609FEF736FE30B3A38988
:101840001A4AAA6243F08003C4E90407A381206016
:10185000002ED9D0B4F90E10284600F0B5FD0028AE
:10186000D2D0A38923F0030343F00103A381CBE784
:10187000A38913F0800F14BF40274FF480673946C7
:1018800028460026FEF710FE0028D8D1B4F90C3007
:101890009A05B9D423F0030304F1470243F002038D
:1018A0000121C4E90421A3812260ADE745120008AB
:1018B00070B50C46B1F90E10002996B016461D46BB
:1018C00013DB6A4600F06AFD00280EDB019901F483
:1018D0007041A1F50051B1FA81F14FF480634909DB
:1018E00000202960336016B070BDB4F90C300022BE
:1018F0001B062A6004D540230020336016B070BD5B
:101900004FF480630020336016B070BD000000000B
:1019100001F0FF01102A2BDB10F0070F08D010F8A0
:10192000013B013A8B422DD010F0070F42B3F6D1A4
:10193000F0B441EA012141EA014122F007047FF0BD
:1019400000070023F0E80256083C85EA010586EA14
:10195000010685FA47F5A3FA87F586FA47F6A5FA50
:1019600087F68EB9EED1F0BC01F0FF0102F007025C
:1019700032B110F8013B013A83EA010313B1F8D107
:101980000020704701387047002D06BF35460338E8
:10199000073815F0010F07D1013015F4807F02BF21
:1019A000013015F4C03F0130F0BC0138704700BF72
:1019B000844641EA000313F003036DD1403A41D35A
:1019C00051F8043B40F8043B51F8043B40F8043B19
:1019D00051F8043B40F8043B51F8043B40F8043B09
:1019E00051F8043B40F8043B51F8043B40F8043BF9
:1019F00051F8043B40F8043B51F8043B40F8043BE9
:101A000051F8043B40F8043B51F8043B40F8043BD8
:101A100051F8043B40F8043B51F8043B40F8043BC8
:101A200051F8043B40F8043B51F8043B40F8043BB8
:101A300051F8043B40F8043B51F8043B40F8043BA8
:101A4000403ABDD2303211D351F8043B40F8043B48
:101A500051F8043B40F8043B51F8043B40F8043B88
:101A600051F8043B40F8043B103AEDD20C3205D358
:101A700051F8043B40F8043B043AF9D2043208D050
:101A8000D2071CBF11F8013B00F8013B01D30B88C2
:101A900003806046704700BF082A13D38B078DD0A0
:101AA00010F003038AD0C3F10403D21ADB071CBF72
:101AB00011F8013B00F8013B80D331F8023B20F8DC
:101AC000023B7BE7043AD9D3013A11F8013B00F815
:101AD000013BF9D20B7803704B7843708B7883709D
:101AE0006046704788420DD98B1883420AD900EBB3
:101AF000020CBAB1624613F801CD02F801CD994249
:101B0000F9D170470F2A0ED8034602F1FF3C4AB1C3
:101B10000CF1010C013B8C4411F8012B03F8012F4F
:101B20006145F9D1704740EA01039B0750D1A2F10A
:101B3000100370B501F1200C23F00F0501F1100E18
:101B400000F11004AC441B095EF8105C44F8105C12
:101B50005EF80C5C44F80C5C5EF8085C44F8085CC9
:101B60005EF8045C44F8045C0EF1100EE64504F1E6
:101B70001004E9D1013312F00C0F01EB031102F054
:101B80000F0400EB031327D0043C24F003064FEAB4
:101B9000940C1E441C1F8E465EF8045B44F8045FE0
:101BA000B442F9D10CF1010402F0030203EB840307
:101BB00001EB840102F1FF3C4AB10CF1010C013B45
:101BC0008C4411F8012B03F8012F6145F9D170BD48
:101BD00002F1FF3C03469BE72246EBE7704700BF5C
:101BE000704700BFF8B51446F9B1CAB106460D46B4
:101BF00000F012FCA04202D32F463846F8BD214621
:101C00003046FEF751FC07460028F6D0224629460A
:101C1000FFF7CEFE30462946FEF7E4FB3846F8BD16
:101C20002746FEF7DFFB3846F8BDBDE8F840114611
:101C3000FEF73ABC2DE9F0478F689F420C461D46DF
:101C4000164638D88246888910F4906F0ED10868FD
:101C50003D462A463146FFF745FFA2682368D21B5E
:101C60002B44A26023600020BDE8F0874B6909691E
:101C700003EB4308236808EBD878A3EB01096B1C3E
:101C80004FEA68084B444345424684BF9846424663
:101C9000430513D511465046FEF706FC074608B328
:101CA00021694A46FFF784FEA38923F4906343F039
:101CB0008003A38107E008681F46CAE75046FFF784
:101CC00091FF074650B107EB0900A8EB0903276114
:101CD000C4F81480A36020602F46BAE721695046FB
:101CE000FEF780FB0C23CAF80030A38943F04003C1
:101CF0004FF0FF30A381B7E72DE9F04F936883B031
:101D00009146002B6ED017688D6880460C46086897
:101D1000083744E0A38913F4906F2ED0D4E904155A
:101D2000A0EB010A05EB450505EBD5750AEB0600AE
:101D30006D100130A8422A4684BF05462A465B053D
:101D400037D511464046FEF7AFFB00283BD0524640
:101D500021690190FFF72CFEA289019B22F4906279
:101D600042F08002A281A5EB0A0203EB0A00656142
:101D7000A260236120603546B24659465246FFF7BD
:101D8000B1FEA068D9F808102368451B8E1B03EB31
:101D90000A00A5602060C9F808601EB3083757E93B
:101DA00002B6002EFAD0B542AA46B3D93546B2469D
:101DB000E3E74046FFF716FF03460028D3D1216929
:101DC0004046FEF70FFB0C23C8F80030A389002221
:101DD00043F040034FF0FF30A381C9E9012203B073
:101DE000BDE8F08F0020C9F8040003B0BDE8F08F13
:101DF0002DE9F04F92468A8915069DB088468146A6
:101E00001C4603D50A69002A00F0EF8000220992DF
:101E10009AF800307E4D039420228DF8292030223C
:101E20008DF82A200126002B72D0544603E014F8C6
:101E3000013F002B76D0252BF9D1B4EB0A0B74D1DE
:101E40002278002A64D000234FF0FF32CDE9052329
:101E5000049307938DF853301A93013404E0049AE5
:101E600006FA03F313430493A246052214F8011B58
:101E70002846FFF74DFD431B0028F0D1049BD806F0
:101E800044BF20228DF8532019079AF8001044BF50
:101E90002B228DF853202A2954D1039A1168043239
:101EA000002903927CDB07919AF801100AF1010ADC
:101EB0002E2959D0574C03222046FFF729FD40B167
:101EC000049B001B402404FA00F0034304930AF12E
:101ED000010A1AF8011B50488DF828100622FFF756
:101EE00017FD002862D04D4B002B52D003AA009260
:101EF0004B4B424604A94846AFF3008007467A1C84
:101F000006D0099B3B4409939AF80030002B8CD1F2
:101F1000B8F80C305B0654BF09984FF0FF301DB085
:101F2000BDE8F08FB4EB0A0BF2D05B465246414657
:101F30004846FFF77FFE0130EAD0099B22785B44D8
:101F400009937EE7A1F13002092AB1D8079B1AF85C
:101F5000011F03EB830302EB4303A1F13002092AC3
:101F6000F5D92E290793A5D19AF801102A2927D14E
:101F7000039B9AF802101A6805920433002A0AF1AA
:101F800002000393B8BF4FF0FF338246B8BF0593FA
:101F900090E7039B073323F0070308330393B0E76D
:101FA000494243F00203079104937DE703AA00929C
:101FB0001B4B424604A94846FEF7FAFC07469EE73B
:101FC000A1F130020023092A05930AF1010A3FF624
:101FD00071AF1AF8011F03EB830302EB4303A1F176
:101FE0003002092AF5D9059364E74021FEF75CFA2F
:101FF000C8F80000C8F8100018B14022C8F8142032
:1020000004E70C23C9F800304FF0FF3087E700BF2A
:10201000B4A60008BCA60008C0A600080000000086
:10202000351C000838B5446C0CB1002038BD802147
:102030000546FEF739FA0246686430B1031F7C3268
:1020400043F8044F9342FBD1EFE74FF0FF3038BD28
:102050001F29F8B5054608D8466C0C4617464EB100
:1020600056F8240046F82470F8BD162303604FF09C
:10207000FF30F8BD8021FEF717FA0646686440B1CC
:10208000031F00F17C05002143F8041F9D42FBD192
:10209000E6E74FF0FF30F8BD1F2938B5054620D8D8
:1020A000426C0C466AB152F8213053B1012B16D064
:1020B000591C10D00025204642F824509847284645
:1020C00038BD284600F0F8F8224601462846BDE80B
:1020D000384000F0DBB816230360012038BD002033
:1020E00038BD162303604FF0FF3038BD1F292AD8B2
:1020F000426C38B50C46054682B152F8243002EBEA
:1021000084024BB1591C19D0012B15D00025204653
:1021100015609847284638BD012038BD8021FEF75C
:10212000C3F90246686458B1031F00217C3043F8AC
:10213000041F9842FBD1E0E7032038BD022038BDE0
:102140004FF0FF3038BD4FF0FF30704738B5144BBB
:102150001F281D681FD86A6C044662B152F82030EF
:102160004BB1012B15D0591C0FD0002542F820503F
:102170009847284638BD284600F09EF8224601467A
:102180002846BDE8384000F081B816232B600120B6
:1021900038BD002038BD16232B604FF0FF3038BD0E
:1021A00000000020124B1F2870B51E6808D80D468D
:1021B000716C044649B151F8240041F8245070BDB7
:1021C000162333604FF0FF3070BD80213046FEF79C
:1021D0006BF90146706440B1031F00F17C0C0022D2
:1021E00043F8042F6345FBD1E5E74FF0FF3070BDA6
:1021F0000000002038B50B4B1D686C6C0CB1002042
:1022000038BD80212846FEF74FF9686438B1031FB6
:1022100000F17C0243F8044F9342FBD1EFE74FF00B
:10222000FF3038BD0000002038B5174B1F281D684F
:1022300026D86A6C044682B152F8243002EB84023C
:102240004BB1591C1AD0012B16D000252046156021
:102250009847284638BD012038BD80212846FEF722
:1022600023F90246686458B1031F00217C3043F80B
:10227000041F8342FBD1DFE7032038BD022038BDB5
:102280004FF0FF3038BD00BF0000002070B50C4695
:10229000084D03460026204611461C462E6000F0DD
:1022A000FBF8431C00D070BD2B68002BFBD02360D3
:1022B00070BD00BFC800002000F0DEB810B50C46AD
:1022C000B1F90E1000F0B2F8002803DB636D03448F
:1022D000636510BDA38923F48053A38110BD00BFA3
:1022E000002070472DE9F0410C46B1F90C101F4653
:1022F000CB05054616460BD421F48051A1813B46FF
:10230000B4F90E1032462846BDE8F04100F01EB880
:10231000B4F90E100223002200F068F8B4F90C1092
:10232000EAE700BF10B50C46B1F90E1000F05EF8F8
:10233000A389421C0EBF23F4805343F4805360658D
:10234000A38110BDB1F90E1000F016B838B50C46D7
:10235000084D8446114620461A4600232B606446E9
:1023600000F0C0F8431C00D038BD2B68002BFBD018
:10237000236038BDC800002038B5074D0022044650
:1023800008462A6000F068F8431C00D038BD2B686E
:10239000002BFBD0236038BDC800002070B50C4670
:1023A000084D03460026204611461C462E6000F0CC
:1023B0005BF8431C00D070BD2B68002BFBD0236062
:1023C00070BD00BFC800002038B5074D002204468C
:1023D00008462A6000F058F8431C00D038BD2B682E
:1023E000002BFBD0236038BDC800002038B50C4658
:1023F000084D8446114620461A4600232B60644649
:1024000000F052F8431C00D038BD2B68002BFBD0E5
:10241000236038BDC800002051F8040C0028A0F14A
:102420000400BCBF0B58C018704700BF38B50C463D
:10243000084D8446114620461A4600232B60644608
:1024400000F03AF8431C00D038BD2B68002BFBD0BD
:10245000236038BDC8000020024B58221A604FF09C
:10246000FF307047C8000020024B58221A604FF01E
:10247000FF307047C8000020024B58221A604FF00E
:10248000FF307047C8000020024B58221A6000201D
:10249000704700BFC8000020024B58221A604FF05E
:1024A000FF307047C8000020024B58221A604FF0DE
:1024B000FF307047C8000020024B58221A604FF0CE
:1024C000FF307047C8000020044A05491368002BFC
:1024D00008BF0B461844106018467047CC00002017
:1024E000D8180020024B58221A604FF0FF30704776
:1024F000C8000020FEE700BF53B94AB9002908BF51
:1025000000281CBF4FF0FF314FF0FF3000F074B9CE
:10251000ADF1080C6DE904CE00F006F8DDF804E03A
:10252000DDE9022304B070472DE9F047089D044619
:102530008E46002B4DD18A42944669D9B2FA82F276
:1025400052B101FA02F3C2F1200120FA01F10CFAB2
:1025500002FC41EA030E94404FEA1C48210CBEFBEA
:10256000F8F61FFA8CF708FB16E341EA034306FB73
:1025700007F199420AD91CEB030306F1FF3080F002
:102580001F81994240F21C81023E63445B1AA4B24F
:10259000B3FBF8F008FB103344EA034400FB07F7F1
:1025A000A7420AD91CEB040400F1FF3380F00A8132
:1025B000A74240F207816444023840EA0640E41B27
:1025C00000261DB1D4400023C5E900433146BDE8D3
:1025D000F0878B4209D9002D00F0EF800026C5E975
:1025E000000130463146BDE8F087B3FA83F6002E8D
:1025F0004AD18B4202D3824200F2F980841A61EB05
:10260000030301209E46002DE0D0C5E9004EDDE722
:1026100002B9FFDEB2FA82F2002A40F09280A1EB0A
:102620000C014FEA1C471FFA8CFE0126200CB1FB5F
:10263000F7F307FB131140EA01410EFB03F0884258
:1026400008D91CEB010103F1FF3802D2884200F2E5
:10265000CB804346091AA4B2B1FBF7F007FB101177
:1026600044EA01440EFB00FEA64508D91CEB040415
:1026700000F1FF3102D2A64500F2BB800846A4EB70
:102680000E0440EA03409CE7C6F12007B34022FA5B
:1026900007FC4CEA030C20FA07F401FA06F31C438A
:1026A000F9404FEA1C4900FA06F3B1FBF9F8200C97
:1026B0001FFA8CFE09FB181140EA014108FB0EF0DD
:1026C000884202FA06F20BD91CEB010108F1FF3A2D
:1026D00080F08880884240F28580A8F10208614439
:1026E000091AA4B2B1FBF9F009FB101144EA014147
:1026F00000FB0EFE8E4508D91CEB010100F1FF34F2
:102700006CD28E456AD90238614440EA0840A0FB89
:102710000294A1EB0E01A142C846A64656D353D05F
:102720005DB1B3EB080261EB0E0101FA07F722FA83
:1027300006F3F1401F43C5E9007100263146BDE8AC
:10274000F087C2F12003D8400CFA02FC21FA03F30F
:10275000914001434FEA1C471FFA8CFEB3FBF7F090
:1027600007FB10360B0C43EA064300FB0EF69E42B5
:1027700004FA02F408D91CEB030300F1FF382FD24E
:102780009E422DD9023863449B1B89B2B3FBF7F6F6
:1027900007FB163341EA034106FB0EF38B4208D9CF
:1027A0001CEB010106F1FF3816D28B4214D9023E10
:1027B0006144C91A46EA004638E72E46284605E72E
:1027C0000646E3E61846F8E64B45A9D2B9EB0208FF
:1027D00064EB0C0E0138A3E74646EAE7204694E78F
:1027E0004046D1E7D0467BE7023B614432E73046C2
:1027F00009E76444023842E7704700BF70B58AB009
:1028000000240594069407940894099401942C4B91
:102810001A6B42F004021A631A6B02F0040201926E
:10282000019A02941A6B42F080021A631A6B02F04A
:1028300080020292029A03941A6B42F001021A6318
:102840001A6B02F001020392039A04941A6B42F08D
:1028500002021A631B6B03F002030493049B194DDD
:10286000224642F2FF31284601F02AF94FF4005384
:1028700005930694079405A9134801F041F848F21E
:10288000FF1305930694079405A9104801F038F842
:1028900042F2FF330593012606960794032308931B
:1028A00005A9284601F02CF84FF4805305930694AF
:1028B000079605A9284601F023F80AB070BD00BFAD
:1028C00000380240000402400008024000000240BC
:1028D00072B6FEE708B50A480A4B03604FF4E133CD
:1028E000436000238360C36003610C224261836103
:1028F000C36101F093FA00B908BDFFF7E9FF00BF1B
:10290000280100200010014008B50D480D4B036060
:102910004FF48273436000238360C36003614361AB
:102920004FF400728261C3610362436283620A23CF
:10293000C36201F00EFB00B908BDFFF7C9FF00BF7D
:10294000D00000200038004000B595B030220021B2
:1029500008A8FDF7F5FC0023039304930593069361
:1029600007930193214A116C41F080511164126C5C
:1029700002F080520192019A02931D4A136823F4D7
:10298000404343F400431360136803F4404302934D
:10299000029B012308934FF48033099302230E9383
:1029A0004FF480030F930F2310939023119304236C
:1029B00012930523139308A800F07EFC88B90F2317
:1029C000039302230493002305934FF4805206924D
:1029D0000793012103A800F0BDFE20B915B05DF8F2
:1029E00004FBFFF775FFFFF773FF00BF00380240DD
:1029F0000070004008B501F0FBF8FFF7A5FFFFF7F6
:102A0000FDFEFFF767FFFFF77FFF01F001FB04F01A
:102A10008DF904F0ABF9FCE70FB400B5A3B024AB1B
:102A200053F8042B2193802101A8FEF7B7F9002861
:102A30000FDB01A8FEF744F94FF0FF3382B201A982
:102A40000A4801F01AFA50B923B05DF804EB04B05B
:102A50007047074B074A26210748FDF7F5FB074B50
:102A6000044A29210448FDF7EFFB00BF280100209C
:102A70003CA000086CA0000848A0000858A000086E
:102A8000024B4FF000529A61704700BF00040240B1
:102A9000024B4FF400529A61704700BF000402409D
:102AA00008B518B18C468646002213E00B4B0C4A41
:102AB00070210C48FDF7C8FB0EEB02000A4BFF210A
:102AC000D960094B9B6813F0010FFAD0064BDB6805
:102AD000037001326245EFD308BD00BF78A0000843
:102AE00028A1000888A0000800380040F8B5044676
:102AF0000F4616461D46FFF7C3FF324BDC60314BD5
:102B00009B6813F0010FFAD02E4BDA683A0EDA60A8
:102B10002C4B9B6813F0010FFAD02A4BDA68C7F3ED
:102B20000742DA60274B9B6813F0010FFAD0254B60
:102B3000DA68C7F30722DA60224B9B6813F0010FB3
:102B4000FAD0204BDA68FFB2DF601E4B9B6813F0AF
:102B5000010FFAD01B4BDB68482C1ED09522194B75
:102B6000DA60184B9B6813F0010FFAD0154BDB6845
:102B70004C2C14D00A20FF24E0B1124BFF22DA6063
:102B80001049896811F0010FFAD00E4BDC68E4B2ED
:102B9000FF2C0FD10138C0B2EEE78722DFE7094BE7
:102BA000FF22DA60074B9B6813F0010FFAD0054B48
:102BB000DB68DFE70DB92046F8BD29463046FFF750
:102BC0006FFFF8E70038004010B5FFF78FFF0446AD
:102BD000FFF75EFF054BFF22DA60044B9B6813F0A2
:102BE000010FFAD0014BDB68204610BD00380040D1
:102BF00030B583B03B4B00221A70FFF749FF0A2221
:102C00000BE0394BFF21D960374B9B6813F0010F64
:102C1000FAD0354BDB68013A92B2002AF1D1002399
:102C20001A4619464020FFF7CFFF002301930423E3
:102C30000DEB03024FF4D5714820FFF7C5FF0546A1
:102C4000012801D0C82414E09DF80730AA2B04D035
:102C50000023184613B3C8240BE09DF8063003F098
:102C60000F03012B01D00023F3E70123F1E7013C1F
:102C7000A4B284B100231A4619467720FFF7A4FFB7
:102C80000128F4D800231A464FF080416920FFF74D
:102C90009BFF0028EBD1201E18BF0120012D07D07B
:102CA00020B1104A137843F00103137003B030BD14
:102CB0000023009360B90028F2D09DF8003013F093
:102CC000400FEDD0074A137843F002031370E7E793
:102CD00004236A4600217A20FFF776FFB0FA80F0DD
:102CE0004009E8E76C0100200038004010B598B1B9
:102CF00084464FF4FA62EAB11C4BFF21D9601B4BAA
:102D00009B6813F0010FFAD0184BDB68DBB2FF2B86
:102D100009D1013A92B2EEE7154B164A4FF48D7184
:102D20001548FDF791FAFE2B14BF002401241CB9AD
:102D3000204610BD0024FAE74FF400716046FFF70B
:102D4000AFFE0A4BFF22DA60084B9B6813F0010FBD
:102D5000FAD0064BDA68FF22DA60044B9B6813F066
:102D6000010FFAD0014BDB68E2E700BF00380040FA
:102D700078A0000818A1000888A0000808B510B1C4
:102D80008446002211E00A4B0A4A97210A48FDF7BF
:102D90005BFA1CF80200094BD860084B9B6813F0E3
:102DA000010FFAD0054BDB6801328A42F1D308BD2E
:102DB00078A0000808A1000888A00008003800409A
:102DC00008B5244BD960234B9B6813F0010FFAD050
:102DD000204BDB6830B34FF40071FFF7CFFF1D4B82
:102DE000FF22DA601B4B9B6813F0010FFAD0194BDE
:102DF000DA68FF22DA60174B9B6813F0010FFAD0F4
:102E0000144BDA68FF22DA60124B9B6813F0010F53
:102E1000FAD0104BDA6802F01F02052A14BF002016
:102E20000120A8B14FF6FF727AB10A4BFF21D96099
:102E3000084B9B6813F0010FFAD0064BDB68DBB23E
:102E4000FF2B02D0013A92B2EEE7101E18BF01200C
:102E500008BD00BF00380040044B1B7813F0010F81
:102E600001D0002070470320704700BF6C01002094
:102E700010B5154B1A6822F040021A601A6842F029
:102E800038021A601A6842F040021A600A242CB113
:102E9000FFF7AEFE10B9013CE4B2F8E714B98CB10B
:102EA000002010BD084B1A6822F040021A601A6810
:102EB00022F0380242F008021A601A6842F040021A
:102EC0001A60ECE70320ECE7003800402DE9F04100
:102ED0000F46144600284FD08046002A4ED02D4B76
:102EE0001B7813F0010F52D0012A16D0294B1B7802
:102EF00013F0020F00D1490200231A465220FFF7B7
:102F0000F5FD064660B3012600231A4619464C20FB
:102F1000FFF75AFED8B1012631E01E4B1B7813F0A3
:102F2000020F00D1490200231A465120FFF7DEFDAF
:102F3000064670B10126FFF7ABFD174BFF22DA60A2
:102F4000154B9B6813F0010FFAD0134BDB68DEB111
:102F500015E04046FFF7CAFE0028ECD10126EAE75B
:102F60000025A542D0D208EB4520FFF7BFFE08B1EF
:102F70000135F6E70126C7E7042600E004262246CD
:102F800039460648FFF748FD3046BDE8F081032684
:102F9000F5E700BF6C010020003800409CA000084D
:102FA0002DE9F0410E461446002872D00746002A4B
:102FB00071D03E4B1B7813F0010F75D0012A08D059
:102FC00000231A4619467720FFF7FEFD30B301258E
:102FD00062E0364B1B7813F0020F00D14902002348
:102FE0001A465820FFF782FD054678B10125FFF704
:102FF0004FFD2F4BFF22DA602D4B9B6813F0010F22
:10300000FAD02B4BDB68002D4BD045E0FE21384633
:10301000FFF7D6FE0028EAD10125E8E700231A468B
:1030200021465720FFF7D0FD08B1012534E01F4BA2
:103030001B7813F0020F14D1710200231A46592095
:10304000FFF754FD054670B94FF00008A0450BD2BC
:10305000FC2107EB4820FFF7B3FEC0B108F10108DF
:10306000F4E73146E9E70125FD210020FFF7A8FE3E
:1030700000B90125FFF70CFD0D4BFF22DA600C4B68
:103080009B6813F0010FFAD0094BDB68BBE7012501
:10309000EAE7042500E00425224631460548FFF70B
:1030A000BBFC2846BDE8F0810325F5E76C01002054
:1030B00000380040CCA0000808B52A4B1B7813F05C
:1030C000010F4AD00D284AD8DFE800F048490749E7
:1030D0004949494949494914253621B14FF40073FA
:1030E0000B8000203AE0204B204A40F29D112048FE
:1030F000FDF7AAF841B110230A4600214920FFF745
:1031000063FD58B3012029E0174B184A4FF4D271E0
:103110001748FDF799F841B110230A4600214A20CB
:10312000FFF752FDD0B1012018E00F4B0F4A4FF4CA
:10313000D5710F48FDF788F841B104230A460021F4
:103140007A20FFF741FD48B1012007E0064B074A0E
:103150004FF4D8710648FDF777F8032008BD042026
:10316000FCE700BF6C01002078A00008FCA000086C
:1031700088A00008FEE7FEE7FEE7FEE7FEE77047EF
:103180007047704708B500F04DFD08BD08B502480E
:1031900004F0B4FA08BD00BFF811002082B000218D
:1031A00000910B4B5A6C42F480425A645A6C02F400
:1031B00080420092009A01911A6C42F080521A6487
:1031C0001B6C03F080530193019B02B0704700BF5A
:1031D0000038024000B589B000230393049305939F
:1031E000069307930268154B9A4202D009B05DF826
:1031F00004FB0021019103F500331A6C42F4804274
:103200001A641A6C02F480420192019A02911A6BBC
:1032100042F002021A631B6B03F002030293029B4B
:103220004FF444430393022304930323069305239B
:10323000079303A9024800F063FBD7E7003800407A
:103240000004024000B589B0002303930493059362
:1032500006930793026803F1804303F588339A428B
:1032600002D009B05DF804FB0021019103F594330D
:103270005A6C42F010025A645A6C02F01002019229
:10328000019A02911A6B42F001021A631B6B03F060
:1032900001030293029B4FF4C06303930223049340
:1032A000032306930723079303A9024800F028FB92
:1032B000D7E700BF00000240002800F0E08170B5B1
:1032C00082B00446036813F0010F3BD09F4B9B680C
:1032D00003F00C03042B2CD09C4B9B6803F00C03D5
:1032E000082B21D06368B3F5803F4FD0B3F5A02FF2
:1032F00052D0964B1A6822F480321A601A6822F46F
:1033000080221A606368002B50D000F097FC0546BD
:103310008E4B1B6813F4003F14D100F08FFC401B50
:103320006428F5D90320B1E1884B5B6813F4800F62
:10333000D8D0864B1B6813F4003F03D06368002B82
:1033400000F09F81236813F0020F54D07F4B9B68DD
:1033500013F00C0F3ED07D4B9B6803F00C03082B41
:1033600033D0E368002B68D0794B01221A6000F05B
:1033700065FC0546754B1B6813F0020F54D100F035
:103380005DFC401B0228F5D903207FE16F4A1368DA
:1033900043F480331360B5E76C4B1A6842F4802223
:1033A0001A601A6842F480321A60ABE700F046FCFB
:1033B0000546664B1B6813F4003FC3D000F03EFC8B
:1033C000401B6428F5D9032060E1604B5B6813F46F
:1033D000800FC6D15D4B1B6813F0020F03D0E3686A
:1033E000012B40F05081594A136823F0F8032169FA
:1033F00043EAC1031360236813F0080F42D06369E6
:103400006BB3534B0122C3F8802E00F017FC054626
:103410004E4B5B6F13F0020F34D100F00FFC401BDA
:103420000228F5D9032031E1484A136823F0F80354
:10343000216943EAC1031360DDE7454B00221A60AE
:1034400000F0FCFB0546414B1B6813F0020FD2D085
:1034500000F0F4FB401B0228F5D9032016E13C4B99
:103460000022C3F8802E00F0E9FB0546374B5B6F66
:1034700013F0020F06D000F0E1FB401B0228F5D943
:10348000032003E1236813F0040F77D02F4B1B6C4C
:1034900013F0805F33D1002301932C4B1A6C42F060
:1034A00080521A641B6C03F080530193019B012529
:1034B000284B1B6813F4807F23D0A368012B34D0E2
:1034C000052B38D0214B1A6F22F001021A671A6FB0
:1034D00022F004021A67A368002B3DD000F0AEFB77
:1034E00006461A4B1B6F13F0020F46D100F0A6FBE5
:1034F000801B41F288339842F3D90320C6E00025AF
:10350000D6E7144A136843F48073136000F096FB07
:103510000646104B1B6813F4807FCED100F08EFB63
:10352000801B0228F5D90320B0E0084A136F43F04E
:1035300001031367CFE7054B1A6F42F004021A67C5
:103540001A6F42F001021A67C5E700BF0038024057
:10355000000047420070004000F070FB0646524BEE
:103560001B6F13F0020F08D000F068FB801B41F2C4
:1035700088339842F3D9032088E0EDB9A369002B82
:1035800000F08380484A926802F00C02082A51D069
:10359000022B17D0454B00221A6600F04FFB044661
:1035A000414B1B6813F0007F42D000F047FB001B2B
:1035B0000228F5D9032069E03B4A136C23F08053BD
:1035C0001364DBE7394B00221A6600F037FB05462F
:1035D000354B1B6813F0007F06D000F02FFB401B1B
:1035E0000228F5D9032051E0E369226A1343626A95
:1035F00043EA8213A26A5208013A43EA0243E26AAA
:1036000043EA0263284A5360284B01221A6600F0FD
:1036100015FB0446244B1B6813F0007F06D100F015
:103620000DFB001B0228F5D903202FE000202DE020
:1036300000202BE0012B2BD01B4B5B6803F4800197
:10364000E269914226D103F03F02216A8A4223D1E6
:10365000616A47F6C0721A40B2EB811F1ED103F4B3
:103660004031A26A5208013AB1EB024F18D103F07F
:103670007063E26AB3EB026F14D1002006E0012010
:103680007047012002E0012000E0002002B070BD80
:103690000120FBE70120F9E70120F7E70120F5E72A
:1036A0000120F3E70120F1E7003802400000474223
:1036B00008B5254B9B6803F00C03042B3FD0082B67
:1036C0003FD1214B5A6802F03F025B6813F4800F30
:1036D00012D01D4B5968C1F388111C480023A1FB6F
:1036E0000001FEF709FF184B5B68C3F30143013388
:1036F0005B00B0FBF3F025E0134B5968C1F3881C65
:103700004FEA4C11B1EB0C006EEB0E0E4FEA8E132C
:1037100043EA90638101091A63EB0E03DB0043EA7D
:103720005173C90011EB0C0C43F100039902002303
:103730004FEA8C2041EA9C51FEF7DEFED3E70348B6
:1037400000E0034808BD00BF0038024040787D011A
:103750000024F400002800F09B8070B50D4604465C
:103760004F4B1B6803F007038B4208D2CBB24C4A85
:103770001370136803F007038B4240F08B802368BB
:1037800013F0020F17D013F0040F04D0454A9368CA
:1037900043F4E0539360236813F0080F04D0414AC8
:1037A000936843F4604393603E4A936823F0F003C8
:1037B000A1680B439360236813F0010F32D0636854
:1037C000012B21D09A1E012A25D9364A126812F0FF
:1037D000020F61D033498A6822F0030213438B60E1
:1037E00000F02CFA06462F4B9B6803F00C0362682E
:1037F000B3EB820F16D000F021FA801B41F2883320
:103800009842F0D9032042E0264A126812F4003FA1
:10381000E0D101203BE0234A126812F0007FD9D1A9
:10382000012034E01E4B1B6803F00703AB4207D9AD
:10383000EAB21B4B1A701B6803F00703AB422DD191
:10384000236813F0040F06D0164A936823F4E0535C
:10385000E1680B439360236813F0080F07D0114A07
:10386000936823F46043216943EAC1039360FFF73F
:103870001FFF0C4B9B68C3F303130B4AD35CD84068
:103880000A4B18600A4B186800F08CF9002070BDD4
:10389000012070470120FAE70120F8E70120F6E750
:1038A000003C02400038024038A100086C000020B3
:1038B00068000020014B1868704700BF6C000020B2
:1038C00008B5FFF7F7FF044B9B68C3F38223034A55
:1038D000D35CD84008BD00BF0038024048A10008B2
:1038E00008B5FFF7E7FF044B9B68C3F34233034A75
:1038F000D35CD84008BD00BF0038024048A1000892
:1039000000230F2B00F2D28070B582B060E0856892
:103910005E000324B44025EA0405CC68B4402C437F
:103920008460456825EA02054C68C4F300129A4099
:103930002A4342605AE0DC08083450F8246003F05F
:10394000070295000F22AA4026EA020E0A69AA4041
:1039500042EA0E0240F824205CE0042200E000224B
:1039600002FA0EF22A430234514D45F82420514AFE
:1039700094686FEA0C0224EA0C054E6816F4801F66
:1039800001D04CEA04054B4CA560E46802EA04054A
:103990004E6816F4001F01D04CEA0405454CE56062
:1039A000646802EA04054E6816F4003F01D04CEA50
:1039B0000405404C6560246822404D6815F4803F42
:1039C00001D04CEA04023B4C226001330F2B6BD830
:1039D00001229A400C6804EA020C32EA0404F4D191
:1039E0004C6804F00304013C012C90D94A6802F0B1
:1039F0000302032A09D0C4685D000322AA4024EA16
:103A000002048A68AA402243C2604A6802F00302A4
:103A1000022A90D004684FEA430E032202FA0EF203
:103A200024EA02044A6802F0030202FA0EF2224378
:103A300002604A6812F4403FC7D0002201921E4A39
:103A4000546C44F480445464526C02F480420192F9
:103A5000019A9C08A51C164A52F8255003F003024F
:103A60004FEA820E0F2202FA0EF225EA0205134AED
:103A700090423FF474AF02F5806290420ED002F59E
:103A8000806290420CD002F5806290420AD002F52A
:103A9000806290423FF461AF072261E701225FE755
:103AA00002225DE703225BE702B070BD704700BFF2
:103AB00000380140003C0140003802400000024054
:103AC0000AB181617047090481617047074AD36870
:103AD00023F4E0631B041B0C000200F4E0600343CA
:103AE00043F0BF6343F40033D360704700ED00E060
:103AF00000B5194BDB68C3F30223C3F1070CBCF11B
:103B0000040F28BF4FF0040C03F1040EBEF1060FA2
:103B100018D9033B4FF0FF3E0EFA0CFC21EA0C01D2
:103B200099400EFA03F322EA0303194300280BDB42
:103B30000901C9B200F1604000F5614080F800134E
:103B40005DF804FB0023E5E700F00F000901C9B2AE
:103B5000024B1954F4E700BF00ED00E014ED00E063
:103B6000002807DB00F01F02400901239340024AAE
:103B700042F82030704700BF00E100E00138B0F1AA
:103B8000807F0BD24FF0E0235861054AF02182F884
:103B900023100020986107221A61704701207047A6
:103BA00000ED00E010B504460E4B18784FF47A7320
:103BB000B3FBF0F30C4A1068B0FBF3F0FFF7DEFF45
:103BC00068B90F2C01D901200AE0002221464FF0EC
:103BD000FF30FFF78DFF054B1C60002000E0012047
:103BE00010BD00BF640000206C00002068000020B1
:103BF00008B50B4B1A6842F400721A601A6842F456
:103C000080621A601A6842F480721A600320FFF71B
:103C10005DFF0F20FFF7C6FFFFF7C0FA002008BDC9
:103C2000003C0240034A1168034B1B780B441360AD
:103C3000704700BF7001002064000020014B18682D
:103C4000704700BF7001002038B50446FFF7F6FF4B
:103C50000546B4F1FF3F02D0044B1B781C44FFF72C
:103C6000EDFF401BA042FAD338BD00BF6400002026
:103C7000034AD2F8883043F47003C2F888307047A2
:103C800000ED00E038B504460268136923F44053A0
:103C9000C1680B431361836802691343426913438C
:103CA000C2691A430168CB6823F4164323F00C035E
:103CB0001343CB600268536923F4407381690B435B
:103CC00053610368314A934206D002F58062934201
:103CD00002D0FFF7F5FD01E0FFF702FEE369B3F55F
:103CE000004F29D00021031849411B1841F1000160
:103CF000C90041EA5371DB00181863684FEA830278
:103D00004FEA937341F10001FEF7F6FB204DA5FB4E
:103D100000325109642303FB11031B013233A5FB5D
:103D200003235B0903F0F00202EB011203F00F031F
:103D3000216813448B6038BD0023021843EB030154
:103D4000121841F10001C90041EA5271D200101865
:103D500041F10001626892185B41FEF7CDFB0C4D0A
:103D6000A5FB00325109642303FB1103DB0032334E
:103D7000A5FB03235B095A0002F4F87202EB01125F
:103D800003F00703216813448B60D4E7001001405F
:103D90001F85EB512DE9F84305460F461646994617
:103DA000DDF820802C68246837EA04030CBF4FF04C
:103DB000010C4FF0000CB4452DD1B8F1FF3FF1D00C
:103DC000B8F1000F05D0FFF739FFA0EB090040451F
:103DD000E8D92A6802F10C0353E8003F23F4D073BA
:103DE0000C3242E800310029F3D12A6802F11403B1
:103DF00053E8003F23F00103143242E80031002968
:103E0000F3D1202385F83D3085F83E30002385F836
:103E10003C30032000E00020BDE8F88358B310B523
:103E2000044690F83D300BB3242384F83D302268DB
:103E3000D36823F40053D3602046FFF723FF2268A2
:103E4000136923F4904313612268536923F02A0312
:103E500053612268D36843F40053D3600020206488
:103E6000202384F83D3084F83E3010BD80F83C308B
:103E7000FFF7E8F9D8E7012070472DE9F04182B05B
:103E80001E4690F83D30DBB2202B54D104460D463F
:103E90009046002953D0002A53D090F83C30012B93
:103EA00051D0012380F83C3000230364212380F8A3
:103EB0003D30FFF7C3FE0746A4F82480A4F826800F
:103EC000A368B3F5805F05D04FF00008002384F8A5
:103ED0003C3012E0236913B14FF00008F6E7A84622
:103EE0000025F3E738F8023B2268C3F30803536068
:103EF000E28C92B2013A92B2E284E38C9BB273B14B
:103F000000963B46002280212046FFF743FFE0B9A0
:103F1000002DE7D015F8012B23685A60E8E70096DA
:103F20003B46002240212046FFF734FF78B920238A
:103F300084F83D3000E0022002B0BDE8F0810120AD
:103F4000FAE70120F8E70220F6E70320F4E7032070
:103F5000F2E700285AD010B50446436A33B94368E3
:103F6000B3F5827F05D00023C36102E00023036123
:103F700043610023A36294F85130002B40D0022308
:103F800084F851302268136823F04003136063689B
:103F900003F48273A26802F404421343E26802F459
:103FA00000621343226902F002021343626902F0C5
:103FB00001021343A26902F400721343E26902F0A2
:103FC00038021343226A02F080021343A26A02F409
:103FD0000052216813430B60638B03F00403626A91
:103FE00002F01002216813434B602268D36923F466
:103FF0000063D36100206065012384F8513010BD57
:1040000084F850302046FFF7E5F8B8E70120704704
:1040100008B50649064802F0E9FC064B1870064947
:10402000064802F0E3FC064B187008BDB0110020F2
:10403000B0A20008B8110020B411002070000020C8
:10404000B91100200020704708B10120704708B561
:10405000FEF70EFF08BD08B10120704708B5FEF756
:10406000FBFE08BD08B10320704708B58C46114619
:104070001A466046FEF72AFF08BD08B103207047C4
:1040800008B58C4611461A466046FEF789FF08BD02
:1040900008B10320704708B50B4611461846FFF7D4
:1040A0000BF808BD08B5044B03EB80025268526858
:1040B0000344187B904708BDE811002008B5084B61
:1040C0001B5C53B9064B01221A5403EB8002526861
:1040D00012681844007B904708BD0020FCE700BF31
:1040E000E811002038B5044C04EB80056D68AD681C
:1040F0000444207BA84738BDE811002038B5044CA3
:1041000004EB80056D68ED680444207BA84738BD4A
:10411000E811002010B5044B03EB800464682469A7
:104120000344187BA04710BDE811002042780078B6
:1041300040EA02207047C278837843EA022243783B
:1041400043EA0223007840EA03207047C27983796A
:1041500043EA0222437943EA0223027942EA032135
:10416000C3F30743C27842EA01221B0243EA126307
:10417000817841EA02221B0243EA1263417841EA54
:1041800002211B02007840EA012043EA11617047D6
:104190000170090A417070470170C1F30723437031
:1041A000C1F307438370090EC17070470270C2F3F8
:1041B00007214170C2F307418170120EC270037172
:1041C000C3F307224271C3F3074282711B0EC3710E
:1041D0007047944632B10A78013102700130BCF167
:1041E000010CF8D1704701700130013AFBD17047E2
:1041F00084469CF800000CF1010C0B780131C01AC8
:10420000013A01D00028F4D07047034600E00133A2
:10421000187808B18842FAD17047000030B4002500
:104220002B4601E001250133012B15D81A01174C4B
:10423000A258002AF6D00468A242F4D1134A02EB35
:104240000312546882689442EDD1104A02EB0312C3
:104250009468026B9442E6D1022B0AD0A1B90B4AB2
:1042600002EB03139B89B3F5807F0BD0002030BC99
:1042700070472DB9022901D01220F8E70020F6E797
:104280000020F4E71020F2E71020F0E7C41100202E
:10429000002000E00130012804D80301034AD3586C
:1042A000002BF7D1023818BF01207047C41100203D
:1042B00070B4002300E00133012B13D81A01244C01
:1042C000A45802689442F6D1214A02EB03125468C2
:1042D00082689442EFD11E4A02EB03129468026B8B
:1042E0009442E8D1022B0DD021B1194A02EB0312FE
:1042F000928952BBF1B9164A02EB0312918901313E
:1043000089B219E00023012B05D81A01104CA258DC
:104310000AB10133F7E7022B15D00D4D1C0105EB57
:10432000031206682E5184685460006B9060002070
:104330009081D9E74FF48071054A02EB0312918115
:10434000581C70BC70470020FBE70020F9E700BF55
:10435000C41100200138012815D80D4B03EB0013C0
:104360009B89B3F5807F03D01BB1013B9BB200E07A
:104370000023074A02EB0012938133B903010020A6
:10438000034AD0507047022070470020704700BF9A
:10439000C4110020002303E05DF8044B7047013393
:1043A000012B11D81A0109498A588242F7D110B459
:1043B0001A0100248C500133012BEDD81A01034956
:1043C0008A588242F7D1F3E7704700BFC41100203A
:1043D0000239036A023B8B4204D94389406B01FBDB
:1043E000030070470020704770B506460D4601F186
:1043F0001A00FFF79BFE3378032B00D070BD0446F4
:1044000005F11400FFF792FE44EA0040F6E770B5AC
:1044100006460C46154691B204F11A00FFF7B8FEA5
:104420003378032B00D070BD290C04F11400FFF782
:10443000AFFEF8E72DE9F04180460E4601F11A0083
:10444000FFF774FE50BB357825F04005013D05EBC4
:10445000450305EB83050127002404E04FF6FF73B5
:10446000984220D101340C2C0DD8124B185D3044E9
:10447000FFF75CFE002FF1D0FE2D12D828F81500B2
:1044800007460135EEE7337813F0400F0DD0FE2DCF
:104490000DD8002328F81530012000E00020BDE8E9
:1044A000F0810020FBE70020F9E70120F7E700207A
:1044B000F5E700BFF0A100082DE9F84380460F465C
:1044C00091464B730F23CB7200240C73214607F1E6
:1044D0001A00FFF75DFE09F1FF3606EB460306EB17
:1044E0008306254602E001340C2C11D84FF6FF73E9
:1044F0009D4202D038F8165001360C4B185D294603
:104500003844FFF745FE002DEDD14FF6FF75EAE781
:104510004FF6FF739D4202D038F816300BB949F0C0
:10452000400987F80090BDE8F88300BFF0A10008BB
:1045300070B582B0054616461C460B22FFF749FEB1
:10454000052C11D807231FE001310F290CD803F0E7
:10455000010C0CEB44045B0814F4803FF4D084F4A9
:10456000883484F02104EFE73388002BEAD0023648
:104570000021EAE75A1E08336B4403F8081C21099E
:104580000F2C0AD913460C4604F00F0202F1300139
:104590003929EFD902F13701ECE77E2102F1080356
:1045A0006B4403F8081C002300E00133934209D256
:1045B000E95C2029F9D105E02020591CE85407299D
:1045C00009D80B46072AF7D802F10801694411F807
:1045D000080C0132F1E702B070BD01464FF00B0C40
:1045E0000020C30143EA50030878013150FA83F3F5
:1045F000D8B2BCF1010CF4D1704700B586464178C1
:10460000013149010020034601E0013301338B42AF
:104610000AD2022BF9D0420802EBC0321EF803C0C6
:104620001CFA82F290B2F1E75DF804FB01460068E3
:1046300038B1024613781F2B06D93A2B04D0013229
:10464000F8E74FF0FF3070473A2B01D00020704759
:10465000034613F8010B303809280CD89A4202D0CF
:104660004FF0FF307047012802D94FF0FF307047FC
:1046700001320A6070474FF0FF30704738B50D4681
:10468000044698B103689BB11A78A2B18188DA8890
:10469000914203D0092000242C6038BD5878FFF7E0
:1046A00001FD10F0010009D12468F5E70920F3E7C6
:1046B0001C460920F0E709200024EDE7092000242A
:1046C000EAE72DE9F041C57815B92846BDE8F08143
:1046D0000446876B00F13C0801233A464146407886
:1046E000FFF70CFD0546A0B90023E370E36AFB1A4F
:1046F000626A9342E9D2A67808E0636A1F44012304
:104700003A4641466078FFF7F9FC013E012EF4D8A5
:10471000DBE70125D9E770B5836B8B4202D1002618
:10472000304670BD04460D46FFF7CBFF0646002815
:10473000F6D101232A4604F13C016078FFF7D2FC50
:1047400010B101264FF0FF35A563E9E738B50446FF
:104750000023C3704FF0FF338363FFF7DCFF60BBC0
:10476000054604F23A20FFF7E1FC4AF65523984249
:1047700025D194F83C30E92B0ED0E36B03F0FF1306
:10478000114A934208D00B22104904F13C00FFF774
:104790002FFDB8B1022513E004F17200FFF7CBFC46
:1047A00020F07F400A4B98420AD004F18E00FFF7B8
:1047B000C2FC084B9842E6D102E0042500E0032544
:1047C000284638BD0125FBE7EB00900050A100080A
:1047D00046415400464154332DE9F04F87B00D4611
:1047E000164600230B60FFF721FF071EC0F211825F
:1047F000934B53F82740002C00F010822C6006F0F9
:10480000FE06237873B16078FFF74CFC10F00105C9
:1048100008D1002E00F0FE8110F0040F00F0FA81A4
:104820000A25F7E100232370F8B26070FFF746FC19
:1048300010F0010F40F0F4811EB110F0040F40F0B1
:10484000F18104F10C0202216078FFF763FC054658
:10485000002840F0E981A289A2F500739BB2B3F56C
:10486000606F00F2E381531E1A4201D00125D1E1AD
:1048700000212046FFF76AFF022800F0C8800026CA
:10488000042800F0D581012800F2D48100F059817C
:1048900004F14700FFF74AFCB4F80C80404540F0B3
:1048A000DF8104F15200FFF741FC074620B904F113
:1048B0006000FFF740FC0746676294F84C20A27046
:1048C000531EDBB2012B00F2CD8107FB02F30093F4
:1048D00094F84990A4F80A90B9F1000F00F0C4814F
:1048E00009F1FF3319EA030F40F0C08104F14D00D4
:1048F000FFF71CFC824620814FEA581BB0FBFBF3FC
:104900000BFB13039BB2002B40F0B28104F14F006C
:10491000FFF70CFC019020B904F15C00FFF70BFCE1
:10492000019004F14A00FFF701FC0146002800F065
:10493000A181009BC318BAFBFBFB5B44019A9A421E
:10494000C0F09A81D21AB2FBF9F04A45C0F09681C4
:104950004FF6F572904240F211814FF0030B40F692
:10496000F572904201D84FF0010B00F10209C4F832
:104970002090A6628A19E26233446363BBF1030F9D
:1049800000F0FF80BAF1000F00F07E81009B1A4416
:104990002263BBF1020F00F0058109EB490309F026
:1049A000010909EB5309C14409F1FF33B3FBF8F8DE
:1049B000B84500F26B814FF0FF33E361A3618023C0
:1049C0002371BBF1030F00F0F08084F800B01D4AA2
:1049D000138801339BB21380E3802046FFF7DAFC93
:1049E00018E1002006AB03EB860343F8100C0136F8
:1049F000032E0ED804F13C00330103F5DF73184495
:104A00000379002BEDD00830FFF795FBEAE700268D
:104A1000EEE700270AE031462046FFF797FE01281F
:104A20007FF62EAF0137032F3FF62AAF06AB03EB1D
:104A3000870353F8106C002EEDD10320F2E700BF7E
:104A4000BC110020E411002001333F2B04D8E218F0
:104A500092F83C20002AF7D03F2B40F2ED8004F181
:104A6000A400FFF763FBB0F5807F40F0E78094F887
:104A7000A82001239340A289934240F0E18004F1F1
:104A80008400FFF763FB871941F100084FF0FF3303
:104A9000BB424FF0000373EB0803C0F0D38004F176
:104AA0009000FFF748FB606294F8AAA084F802A087
:104AB000BAF1010F40F0C88094F8A9304FF0010915
:104AC00009FA03F91FFA89F9A4F80A90B9F1000F5D
:104AD00000F0BC8004F19800FFF72DFB83466C4B7F
:104AE000984200F2B580831C2362A66204F1940010
:104AF000FFF721FB83190093636304F18C00FFF738
:104B00001AFB0644E66200230BFB09F9009A12EB3C
:104B100009095B414F4578EB0303C0F09B8004F12A
:104B20009C00FFF708FB014620632046FFF750FC7E
:104B300001462046FFF7EFFD002840F08D8000265B
:104B400002E00B2381E72036A789B7420DD9A319CC
:104B500093F83C30812BF6D104F13C0306F11400AC
:104B60001844FFF7E8FA0228EDD1B74276D04FF0AB
:104B7000FF33E361A3614FF0040B26E74FF0020B14
:104B8000EDE604F16600FFF7D1FA002878D1BAF11A
:104B9000000F77D104F16800FFF7CDFA20634FEAE8
:104BA000890900E74FEA4909FDE604F16C00FFF7C7
:104BB000BDFA01287FF409AF711C2046FFF7ABFD59
:104BC00000287FF402AF0023237104F23A20FFF79C
:104BD000ADFA4AF6552398427FF4F7AE04F13C0053
:104BE000FFF7A9FA2B4B98427FF4EFAE04F508705B
:104BF000FFF7A1FA284B98427FF4E7AE04F509705D
:104C0000FFF799FAE06104F50A70FFF794FAA061E2
:104C1000DBE60B25284607B0BDE8F08F0C25F9E749
:104C20000325F7E70A25F5E70125F3E70125F1E775
:104C30000125EFE70D25EDE70D25EBE70D25E9E76C
:104C40000D25E7E70D25E5E70D25E3E70D25E1E770
:104C50000D25DFE70D25DDE75546DBE70D25D9E717
:104C60000D25D7E70D25D5E70D25D3E70D25D1E790
:104C70000D25CFE70D25CDE70D25CBE70D25C9E7A0
:104C80000D25C7E70D25C5E70D25C3E70D25C1E7B0
:104C9000FDFFFF7F52526141727241612DE9F04781
:104CA000054691468F1E036A023BBB4200D800278F
:104CB000B8463C460026696B4FEAD40AAB89BAFB7A
:104CC000F3F319442846FFF726FD844658BBA8890C
:104CD000BAFBF0F300FB13AA04F007020123934090
:104CE000DBB209E0A0460026A7421FD023B90AF193
:104CF000010A5045DFD9012305EB0A0292F83C1066
:104D000019405B00DBB201342A6A023AA24202D89F
:104D10008246634600240029E4D101364E45E3D1A2
:104D200008F1020003E04FF0FF3000E00020BDE892
:104D3000F0872DE9F8430546174698468C1E416BCF
:104D4000E6088289B6FBF2F3194402FB136604F00D
:104D50000704012303FA04F4E4B201F1010928462F
:104D6000FFF7D9FC024610B101221EE00124AB1965
:104D700093F83C10214214BF01230023434513D074
:104D8000AB19614083F83C100123EB70013F0CD05C
:104D90009C4014F0FF04EAD11E44AB890124B342C5
:104DA000E4D849460026D8E702221046BDE8F88339
:104DB0002DE9F047012940F2A38004460D4616462E
:104DC000036A8B4240F2A0800378022B7FD042D846
:104DD000012B3ED101EB5108C16A8389B8FBF3F383
:104DE0001944FFF798FC0746002840F08A8004F138
:104DF0003C0A08F10109A389B8FBF3F203FB12880E
:104E000015F0010558D01AF9083003F00F033201EC
:104E100002F47F621343DBB20AF808300123E37027
:104E2000E16AA389B9FBF3F319442046FFF773FC49
:104E30000746002865D1A389B9FBF3F203FB129959
:104E4000002D3BD0C6F307160AF809600123E37072
:104E500057E0022755E0033BDBB2012B56D8C16A6D
:104E600083899B08B5FBF3F31944FFF754FC07460D
:104E7000002846D12378042B0FD026F0704604F189
:104E80003C03A800A289B0FBF2F102FB1100184418
:104E9000FFF751F900F07040064304F13C00AD000B
:104EA000A389B5FBF3F203FB125531462844FFF703
:104EB00073F90123E37024E0F3B2ADE71AF9093086
:104EC00023F00F03C6F303261E43F6B2BCE7C16A04
:104ED00083895B08B5FBF3F31944FFF71CFC074615
:104EE00078B904F13C006D00A389B5FBF3F203FB34
:104EF0001255B1B22844FFF74BF90123E37000E0EB
:104F000002273846BDE8F0870227FAE70227F8E7CC
:104F100070B504460D46164607E03246FFF748FFD7
:104F2000034658B9E369013BE361E36933B12068A3
:104F3000EA1A511C012BF0D90232EFE7184670BD76
:104F4000C379032B02D000231846704770B506467C
:104F5000816884694CB14D1C2A463068FFF728FFF0
:104F6000034620B9013C2946F4E70023F3711846B3
:104F700070BD2DE9F0410668012940F2B480054674
:104F80000C46336A8B4240F2B1803378013B032BED
:104F900000F2AE80DFE803F002354C6501EB51050D
:104FA000F16AB389B5FBF3F319443046FFF7B3FB5D
:104FB00010B14FF0FF3097E06F1CB389B5FBF3F2EF
:104FC00003FB1255354495F83C50F16AB7FBF3F3F7
:104FD00019443046FFF79FFB002840F08B80B389CF
:104FE000B7FBF3F203FB12773E4496F83C0045EA28
:104FF000002014F0010F01D0000975E0C0F30B0090
:1050000072E0F16AB3895B08B4FBF3F319443046EC
:10501000FFF781FB002870D106F13C006400B389E2
:10502000B4FBF3F203FB12442044FFF77FF85BE08C
:10503000F16AB3899B08B4FBF3F319443046FFF7D8
:105040006AFB00285CD106F13C00A400B389B4FBE4
:10505000F3F203FB12442044FFF76DF820F0704098
:1050600042E00069696950EA01034CD0AF68E71B70
:105070000138B6F80C8042464FF0000341F1FF3191
:10508000FDF73AFA7389B0FBF3F0EB79022B08D005
:10509000032B0BD0022B3BD0EB6963B16FF00040C8
:1050A00022E08742F4D830D0601C1DE0AA69BA42E1
:1050B000F0D9601C18E0F16A4FEA9803B4FBF3F3EF
:1050C00019443046FFF727FB20BB06F13C00A40043
:1050D000B389B4FBF3F203FB12442044FFF72BF82F
:1050E00020F0004000E00120BDE8F0810120FBE756
:1050F0000120F9E74FF0FF30F6E74FF0FF30F3E71C
:105100004FF0FF30F0E70120EEE76FF00040EBE7F3
:105110000120E9E74FF0FF30E6E72DE9F0410746CF
:105120000E46D0F8008098F80030042B31D04FF4B0
:105130000013B3424ED916F01F0F4DD13E63BC6829
:105140003CB998F80030022B03D9D8F8304000233E
:10515000FB710CBBB8F80830B3EB561F3ED9D8F83A
:105160003030BB637C63BB6B002B3FD0B8F80C20A6
:10517000B6FBF2F21344BB6308F13C03B8F80C1021
:10518000B6FBF1F201FB12611944F9630020BDE89E
:10519000F0814FF08053CCE7B8F80A50B8F80C30E3
:1051A00003FB05F5AE420FD321463846FFF7E1FE7B
:1051B0000446B0F1FF3F13D0012813D9D8F82030AE
:1051C000834211D9761BEDE721464046FFF700F9EF
:1051D000B863C7E70220DAE70220D8E70220D6E763
:1051E0000120D4E70220D2E70220D0E70220CEE758
:1051F0002DE9F8430746D0F80080894641B9D8F830
:105200001860B6B1D8F82030B34213D8012611E0A7
:10521000FFF7AFFE0546012840F2A080B0F1FF3F46
:1052200000F0A680D8F82030834200F2A1804E46DC
:1052300000E0012698F80030042B01D0344652E0FB
:10524000012231464046FFF729FD0546431E13F172
:10525000030F00F28D8001231A4601464046FFF7F6
:1052600068FD034602287BD001287BD0B9F1000FEE
:1052700018D10222FA71FA79022A64D009F10102E6
:10528000AA421BD0FB690BB90123FB612A464946A0
:105290003846FFF73DFE0346002856D10122FA6149
:1052A0002C4634E0FA79022AE5D1721CAA42E2D0F7
:1052B000BA68B21ABA610322FA71DCE7FA690AB174
:1052C000013200E00222FA612C4620E021463846F5
:1052D000FFF74FFE054678B1012849D0B0F1FF3FF6
:1052E00046D0B44243D00134D8F82030A342EDD8A0
:1052F000012E3AD90224E9E74FF0FF322146404619
:10530000FFF756FD034610B9B9F1000F14D1F3B9F8
:10531000C8F81840D8F81C20D8F82030023B9A4230
:1053200002D8013AC8F81C2098F8043043F0010371
:1053300088F8043025461BE0224649464046FFF7E0
:1053400037FD0346E3E72C46E1E72C46DFE7012B78
:1053500001D001250CE04FF0FF3509E0012507E001
:10536000012505E04FF0FF3502E0002500E00025B3
:105370002846BDE8F8832DE9F843056801296BD973
:1053800007460C4691462B6A8B4267D972B12B783F
:10539000042B02D1C379022B08D04FF0FF324946CB
:1053A0002846FFF705FD0346002858D1A04611E026
:1053B000002231462846FFF7FBFC0346C8B14EE009
:1053C000731CA34203D02B78042B1ED0A0462B6A5B
:1053D000A34226D9264621463846FFF7CAFD044691
:1053E000F8B101283ED0B0F1FF3F3DD02B78042B1F
:1053F000DED1EA692B6A023B9A42E1D20132EA61CC
:105400002B7943F001032B71DAE7A6EB08020023A6
:10541000013241462846FFF78CFC0346F8B9A04606
:10542000D5E72B78042B01D0002318E0B9F1000F49
:1054300002D10023FB7112E0FB79032B01D0002382
:105440000DE0BB684B4511D8BA6913444B450FD3E7
:105450000223FB71002302E0022300E0022318462E
:10546000BDE8F8830223FAE70123F8E70023F6E713
:105470000023F4E72DE9F8430668046B836B002BE7
:1054800000F0818005460F4620343278042A1ED071
:105490004FF40012A24278D9B189B4FBF1F201FBBA
:1054A00012423AB90133AB63696BB9B93389B3EBD3
:1054B000541F0FD92C6306F13C03B289B4FBF2F1FF
:1054C00002FB11441C44EC630020BDE8F8834FF05C
:1054D0008052DFE70023AB630420F6E7B289B4FB18
:1054E000F2F27389013B12EA0308E3D12846FFF781
:1054F00040FD814601284AD9B0F1FF3F49D0336AC7
:10550000834238D8AFB1696B2846FFF771FE8146F8
:10551000002840D0012840D0B0F1FF3F3FD0EB79C8
:1055200043F00403EB713046FFF7CBF828B10120BC
:10553000CBE70023AB630420C7E7B289002106F163
:105540003C00FEF750FE49463046FEF741FFB0638F
:10555000738943450BD90123F3703046FFF7B1F847
:10556000F8B908F10108B36B0133B363F0E7B36B2B
:10557000A3EB0803B363C5F8349049463046FEF701
:1055800027FFA86396E704209FE704209DE70220F9
:105590009BE7012099E7072097E7022095E7012084
:1055A00093E7012091E700002DE9F04104460068EF
:1055B0004769A16BFFF7AFF8054620B9E16B0B789F
:1055C000852B03D002252846BDE8F08120223846ED
:1055D000FEF7FFFD7E7801367601A6F16003B3F594
:1055E000007F51D800212046FFF744FF05460028E0
:1055F000E9D1A16B2068FFF78EF805460028E2D1BB
:10560000E16B0B78C02B01D00225DCE72022B81813
:10561000FEF7DFFD97F823302C331E4AA2FB03234D
:10562000DB08B6EB431F31D34FF0400803E008F12D
:10563000200846451AD900212046FFF71BFF0546E2
:105640000028C0D1A16B2068FFF765F80546002847
:10565000B9D1E16B0B78C12B1AD1B8F5187FE6D21E
:10566000202207EB0800FEF7B4FDE0E7B8F5187F4D
:10567000A9D83846FEF7C1FF0446B81CFEF756FD10
:105680008442A0D002259EE702259CE702259AE7E6
:10569000022598E78988888810B504460B6803605E
:1056A0000B6A836091F82430C3714B6A23F0FF03C7
:1056B000036100234361896AC164FFF72EFD00B1D5
:1056C00010BD2046FFF770FFFAE72DE9F8430446C6
:1056D000884606684FF0FF094F46042508E0852BF1
:1056E00028D000212046FFF7C5FE054600285BD1E3
:1056F000A16B002958D03046FFF70DF80546002869
:1057000052D1E16B0B78002B4DD03278042AE6D0D1
:10571000CA7A02F03F02A271E52B3ED02E2B3ED07A
:1057200022F02000082814BF0020012040450ED0A0
:10573000FF27D6E7236BE3642046FFF735FF0546D6
:1057400090BB73691B7903F03F03A3712CE00F2A10
:1057500019D113F0400F06D091F80D9003F0BF035C
:10576000226BE2641F46BB4201D0FF27B9E74B7BA7
:105770004B4501D0FF27B4E73069FEF75BFE80B1EF
:10578000013FFFB2ADE727B90846FEF726FF4845BF
:105790000AD04FF0FF33E36406E0FF27A1E7FF27BD
:1057A0009FE7FF279DE704250DB10023A36328464B
:1057B000BDE8F883F8B504460F4606680021FFF7F8
:1057C000ACFC024630BB00250EE0E36B93F90030E1
:1057D000DB43DB0FE3B10135BD421BD00121204685
:1057E000FFF748FE0246A8B9A16B3046FEF793FFCB
:1057F000024678B93378042BE7D0E36B1B78E52BAE
:1058000002D01BB90123E5E70123E3E70023E1E729
:105810000025E3E7042A01D01046F8BD0722FBE784
:10582000F8B5044603685E693046FEF7E6FE0146B9
:10583000B01CFEF7ADFC77780137E16C2046FFF72E
:105840006CFC054605E0203600212046FFF712FEDD
:1058500005467DB9A16B2068FEF75DFF054648B996
:1058600020223146E06BFEF7B4FC23680122DA7097
:10587000013FE8D1022D28BF0225E8B2F8BD0000A3
:1058800070B50446FEF71DFF054648B92378032B83
:1058900008D0002211466078FEF73CFC00B10125DB
:1058A000284670BD2379012BF3D104F13C06A2896F
:1058B00000213046FEF797FC4AF6552104F23A20C3
:1058C000FEF766FC0E493046FEF766FC0D4904F50E
:1058D0000870FEF761FCE16904F50970FEF75CFCF5
:1058E000A16904F50A70FEF757FCA26A0132A263AF
:1058F000012331466078FEF701FC00232371C8E7DD
:1059000052526141727241612DE9F04F83B00746F6
:105910008A46D1F8009003681D690024234612E0EE
:10592000013619F806302F2BFAD05C2BF8D04E44F4
:10593000CAF800601F2823D84FF0040824E025F897
:105940001480013433465E1C19F803001F28EED979
:105950002F28E6D05C28E4D0FE2C00F2DF80012165
:1059600004F098FA8046002800F0DA807F28E6D814
:1059700001466D48FEF749FC0028E0D0062085E08E
:105980004FF0000800E0013C44B104F10043013B4A
:1059900035F81330202BF6D02E2BF4D0002325F829
:1059A0001430002C00F0BE800B22202107F14000B3
:1059B000FEF719FC002300E0013335F81320202AFC
:1059C000FAD02E2AF8D01BB148F0030800E0013CC1
:1059D0006CB104F10042013A35F812202E2AF6D1BA
:1059E0004FF0080B4FF0000ACDF804A00AE0A246E1
:1059F0004FF0080B0022019204E04C450BD048F018
:105A000003084B4603F1010935F81360FEB1202E5F
:105A1000F5D02E2EF1D0DA4510D24C450ED07F2E87
:105A200044D8002E4FD148F003085F2607EB0A0345
:105A300083F840604B460AF1010AE3E7BBF10B0F24
:105A400027D04C4501D048F003084C4524D297F8A4
:105A50004030E52B53D0BBF1080F54D0019B03F02D
:105A60000C020C2A03D003F00303032B01D148F0EE
:105A7000020818F0020F06D1019B03F00303012B6B
:105A800046D0042A47D087F84B80002003B0BDE8F9
:105A9000F08F48F00308DAE7019B9B00DBB201932B
:105AA00023464FF00B0B4FF0080AABE700213046BE
:105AB00004F0F0F9064618B1A0F180061B4B9E5D7C
:105AC00048F00208ADE731461948FEF79EFB002872
:105AD000A9D1A6F141039BB2192B04D8019B43F035
:105AE00002030193A2E7A6F161039BB2192B9DD893
:105AF000019B43F001030193203EB6B296E70523D4
