:0800000031C0FECFFDCFFCCFA3
:10000800FBCFFACFF9CFF8CFF7CFF6CFF5CFF4CFB4
:10001800F3CFF2CFF1CFF0CFEFCFEECFEDCF2B2C48
:100028003B3D5B5D2A3F3C3A3E5C7C2200005631FA
:100038002E302031302D30352D32303134200062D1
:100048006F6F742F736462696F732E726B00626FC7
:100058006F742F626F6F742E726B0000F894EE2726
:10006800ECBBF1E0FBBFEBBFE5BFF8E1F1BDE1BDE3
:100078008DE0A2E0BB27ED938A95E9F780E094E054
:10008800A0E6ED930197E9F7EFE5EDBFE4E0EEBFF9
:10009800C0E0D1E096C99D9BFECF9D99FECFE3B30A
:1000A800EF7309F40895A8CF0895F5DFEFEFE1BBEA
:1000B800E881E2BB21960895EEDFE0E0E1BBEFEFD7
:1000C800E2BB0895E8DFE0B30895E5DFE881E2BB2D
:1000D8008AC66DDA76DA78DAE0E0F2E078DA43C1F7
:1000E80066DA60D740C12C97E2E0F0E060E070E0AB
:1000F80070DA78DA7BDAE2E05E2EF1D6E03011F0E1
:10010800E1E017C1E0E0E887E987EA87EB8772DA80
:1001180076DA11F0E1E00DC1E0917E03F0917F0302
:10012800E535AAEAFA0719F5E091B601F091B701A9
:10013800E634A1E4FA07F9F0E091D201F091D30195
:10014800E634A1E4FA07B9F05EDA51DE21F4E09171
:100158004203E03009F40BC0E0914603F0914703F5
:10016800609148037091490353DA39DE81F6E1E082
:1001780054DAE1E0DEC0E0919601F091970150DA9F
:1001880052DA56DA2CDE49F4E091A401F091A50187
:100198006091A6017091A70146DAE0919301F09170
:1001A80094014BDA4DDA1BDE49F4E091A001F0919D
:1001B800A1016091A2017091A30144DA60909101BC
:1001C8007090920141DA1FDA44DAE0938703F093E2
:1001D80088036093890370938A03E0E0E0938B03BC
:1001E800E0938C03E0938D03E0938E03A09190013C
:1001F800A23050F031DAECDCE0938B03F0938C03FF
:1002080060938D0370938E0340908D01E09190016F
:100218002DDA2EDA32DA37DD06DA16DA30DA00DAF3
:10022800D1DDE0DC25DADEDC2CDAF3010FDDF8D9EC
:10023800DEDC2ADA5BDDEE5FFF4F6F4F7F4FE09326
:100248008F03F0939003609391037093920304DA01
:10025800C4DCF301FBDCFDD9E0939703F09398032A
:100268006093990370939A0312DAA73FEFE0BE07F1
:10027800E0E08E07E0E09E0708F479CF08DAA73FB0
:10028800EFEFBE07E0E08E07E0E09E0728F4E4D930
:100298009FDC06DA55244CC0E091AC01F091AD0129
:1002A8006091AE017091AF01FBD9A0918E01B09120
:1002B8008F0199DDD8F59ED9FCD9AAD9A0D911F01A
:1002C800E1E037C0A0918001B09181018091820165
:1002D80090918301A235E2E5BE07E1E68E07E1E4ED
:1002E8009E07C9F4E0916403F09165036091660389
:1002F80070916703E237A2E7FA07A1E46A07A1E66B
:100308007A0749F4DBD9E030A0E0FA07A5E56A07E7
:10031800AAEA7A0709F00AC0E8E6F3E0D8D9ECE6D9
:10032800F3E0D5D9DAD911F0E1E003C0E1E05E2EBF
:10033800E0E02C9608959DD5E03009F44EC5D3DE53
:1003480008952497E0917A03F0917B0376D955209C
:1003580049F0E0917403F091750362D98ADC8FD972
:100368004BDC70D96DD924960895552089F4BAD9F3
:10037800C5D9CAD9E2E0EA9F1A920A92D2D927D9F6
:10038800E03019F5D1D9EF7FFF7F607070700EC033
:10039800A9D9D3D9B9D9D7D954DCDAD918D9E03001
:1003A800A1F4C2D9EF7FFF7F6F7F7F70E093800356
:1003B800F09381036093820370938303CDD9D5D9D9
:1003C80010F0DBD908F0E4D908C5FCC4ADD9E25077
:1003D800F04060407040E6D956DCE6D9F9DBEDD94B
:1003E8000895F4D999F1A1EAB3E0ED91FD91319620
:1003F800FE93EE93EFD9109739F0F1D921F4EAD9A9
:100408006A167B0609F006C0F4D9E0E0E0936003C1
:10041800F6D9E3C4F8D9EF70C1F4A7EAB3E0F8D984
:10042800DED941F0F0D912DCDF01E42D1FD983DCDD
:10043800309709F00AC0F0D9C0D997DFE03009F049
:10044800C1C472D9CCDC09F3F0D913C0D2D9E1E028
:10045800E093A003FED9B1D9E8D9DED9C0DC49F4CC
:1004680001DAE093A703F093A8036093A9037093BC
:10047800AA0301DA03DAA1DCC6D909DAA5D8E0E2D1
:10048800F0E0A5D80895ADDFE03089F405DA09F485
:10049800B6D99CD909F4A1C403DAA53EA1F300DAC0
:1004A800AE3289F300DAE87009F497C4ECCF8AC455
:1004B800FDD9A23009F083C4E6DF0895E0918B03EB
:1004C800F0918C0360918D0370918E0388DC71F03C
:1004D800B7D8A0918B03B0918C0380918D03909134
:1004E8008E03E7D9E03011F0E1E03BC7A9D8E4D9A1
:1004F800E0D937C724978DDCE8D95FD92DD9FED844
:1005080092D810918003EAD9EBD99F01552061F068
:1005180023D913D988D81068EAD9E050F240DF010E
:10052800DDD98FDBE7D99F0197D852DB68D8B9F5B9
:1005380024D940F0E2D919F0E0E072DC14C6E6E014
:100548006CD82DC0552081F4D9010ADC309749F4C4
:10055800D4D931F4D901EFEFFFEFED93FC9318C034
:10056800CFD92E5F3F4F0DC0D901FEDB38DC39F4FF
:10057800C4D921F4D901C7D902DC0AC0C1D92C5F7A
:100588003F4FA0E8B3E044D91F5F103089F6B6CFDB
:10059800CBD81FD84DD811DC91DF42DCE4C5E1E0AF
:1005A8003FDCE1C5289737DCB3D9C7D8B6D9552081
:1005B80019F4AED9A3D8B1D9B5D97ED909DB1FD8DA
:1005C80011F0B5D9EDC4552069F4EA854FD888D91A
:1005D8008F01D801C5DB24D8ADD9B1D9D801ED93A5
:1005E800FC930DC0AA85AFD8A0E8B1E02ADB82D978
:1005F8008F01D801B9DB9ED997D8D801C0DB94D830
:10060800EEDB49F462D984D9FDDB28F4EA85FB8561
:100618006C857D85DED7A0D8AF3FEFEFBE07EFEF43
:100628008E07EFE09E0719F097D8E1DB11F48CD91B
:10063800C4D878D9C2DB42DFF5DBB2C48AD9AC8131
:10064800BD815A96ED93FC93FBD70EDBAC81BD813F
:100658005496ED93FC9390C77FD980D9E0E0F2E0FF
:1006680080D9A881A41568F4E88100D875D805D880
:1006780020D9E03011F0E1E0B6C3E881EF5FE8830C
:10068800F0CFE0E0B0C3ADDEE030E9F49FD871F020
:1006980007D9A53E19F004D9A03039F4EFD8AFD75F
:1006A80091F4B1D8F4D85FD90895EDCFACD830978C
:1006B80019F4E5E0B2D707C051D958D921F4ACD81C
:1006C80058D9E03019F0E0E0F0E00895AED846D906
:1006D800C3DF0DD908959DDBE2E0E51511F4E1E0F3
:1006E800A0C080D7EC81E0783E2FEC81EF77EC83D7
:1006F800B0D841D9E0E0E093B303B4D845D9552048
:1007080011F44BD941D9E0918001E03059F4EC81E2
:10071800E03009F085C0E0E0E0936003E0E1E093B9
:100728006B0357C000E811E03DD98ED08F01E1E09E
:10073800F0E0E017F10709F473C061D8A4DEE030F7
:1007480019F0E1E06DDB26C741D839F094D82DD9EE
:100758002FD93AD7ECD6E03089F7EC81E03021F098
:1007680000240016010609F017C073D804D9E1E087
:10077800E51521F420D976D840DB09F002C00DD95F
:10078800FAD824D839F4EC8171D73197EA939CD000
:1007980047DB00C7E8E045C019D809F441C0D1DDFE
:1007A800F3D812D9B1F07FD8E071D1F1303059F0D7
:1007B800A091AB03B091AC038091AD039091AE03CF
:1007C80006D91BDB09F001C02BC0E1E0E093B303BD
:1007D800ABCF15D873D704D966D8E07119F0E2E029
:1007E800E0939F03A091C003A130A9F40ED999F416
:1007F800A091C803B091C9038091CA039091CB031B
:100808003DD8FBDA41F4A091C203B091C303FBD7F2
:10081800EA17FB0709F001C0E9D6E0E001DBBAC638
:10082800E4E0E0938403E1E0FBDAB4C6E981FA810D
:10083800E491E03039F0ECD8A491E881EA1709F4A2
:100848001FC4F4CFE0E01CC4E4DAAFD8E8D830E045
:1008580008E0AC81BD811D91AC83BD83103029F4C3
:10086800303071F1AED6DCDA87C61F3219F4DBD826
:10087800D7DA82C61E3239F4303011F1083001F56A
:1008880038E00BE0E6CF0317D9F0E6E2F0E09CD6BB
:100898001A93CCDFE030A1F4113290F0103880F4D4
:1008A800113610F01B3708F003C018D8B0971E2F68
:1008B800A5E5B3E0E32F3F5FD9D61CD81083C9CF95
:1008C800E1E0F0E0ADDA58C62F97A5DAFE013696DA
:1008D8007BD66BD8ABD831F041D848D809F04DC099
:1008E80023D728D8D0DE8F016FD821F451D72CD840
:1008F80040D843C057D832D8E0E2F0E032D852D8D6
:10090800FE01389661D692D849F4B8D795D8A9F59A
:1009180044D83AD842D864D8E0E030C0F8013B96D1
:10092800A0E1A0833FD884D68BD8A8D785D829F54D
:100938000BD843D74BDD86D88FDE0ED870D8EEE2C1
:10094800E0938001E0E1E0938B0106D871D678D876
:100958007CD865D8EEE2E093A001E093A101E0E144
:10096800E093AB01E091B303E03019F06ED871D792
:1009780067D8DAD622DAB4DB01C0E1E053DA62964E
:100988000895ECD765D831F440D809F426C22AD6A0
:10099800E4E043D617C2E2D75BD839F487D7A23050
:1009A80009F41BC21FD6E4E038D60CC254D819F497
:1009B80050D703D713C059D8309709F00EC2A0D723
:1009C80006D8F2D60FD9EED6C7D909DA09F005C28A
:1009D80052D8F3D6CADCE03009F0F4C1A5D6FFD965
:1009E80059F4BCD7C3D709F0EDC135D819F49CD652
:1009F800CBD702C040D8BDD797D6E093B703F093C2
:100A0800B8036093B9037093BA03E0DC8DD6B3D70B
:100A1800E4C101DAFAD711F037D835C037D83097A2
:100A280049F1C4DFE03079F520D833D8AA81BB81F9
:100A3800A017B10710F40A811B81F5D7309781F010
:100A4800F2D7C2D5C4D7B9D910D8BED5ABD770D2D2
:100A5800E030C9F4F801AC81BD814CD7EC83FD834B
:100A68001ED8F801F6D524D811D8E01BF10BEA837B
:100A7800FB83D4CF14D825D8C0D910F42BD833D8B9
:100A8800E0E0D0D979C5AED552D776C5C4D9E091C2
:100A9800BF03E03011F4E0E097C0E0E0E093BF036B
:100AA800EDD6ADD509F08FC0AED6F1D628D809D885
:100AB800D8015C9664D976D7CCD6C2D7DFD67DD993
:100AC8000FDB82C02497AC81A13011F403D804C095
:100AD800AC81A23039F4F5D7AD81BE818F8198857C
:100AE80077D810D8F7D713D88DD940F0F3D70FD8C7
:100AF8007ED8AD83BE838F83988702C04ED7D8D760
:100B08000BD8A0D5BCD5A130E0E8BE07E0E08E0741
:100B1800E0E09E0728F0E0E0F0E860E070E092D5C1
:100B280050D552D5B3D750D574DFE03011F0E1E09D
:100B38001AC3A5D5F1D756D8E5D7EED750D901F7BE
:100B4800A5DFC8D73AD6E0E00EC365D95ED711F065
:100B58009BD737C0E6D7309719F4E9E05ED531C0A6
:100B680084D797D7DED7E017F10720F400918503E3
:100B7800109186031BDFE03021F591D7F80169D584
:100B8800A091B303B091B4038091B5039091B603DB
:100B980039D920F484D7F8015CD5A5D7E0E0F2E094
:100BA800E017F10719F013D72AD559F400938003F9
:100BB800109381035AD7E0938203F0938303E0E014
:100BC80003C064DF0FD5E1E030D908951ED711F0D6
:100BD8005BD719C0FCD630D7B1F461D7B0D639D5B8
:100BE80067D7A0918003B09181039BD7EA1BFB0BC9
:100BF800E0938503F093860394D7309719F446DF82
:100C0800E03009F4EAC0EED4DDC02497A5D5ADD50F
:100C180010F0B3D510F0E0E0A4C386D513D5B8D54D
:100C28000FD5A7D6E03091F3E1E09BC36D97F1D8DB
:100C3800E0919F03E03011F427D743C02091A1032E
:100C48003091A2031BD6E887F9876A877B8701D68C
:100C5800EAD4E1E8EA93FCD6A1F5C4D4C7D4CAD44F
:100C6800CED479F5F90113D64AD7FE013C96ACD417
:100C7800F8013B965BD7D801E5EEEC932ED509F544
:100C8800FDD5BDD4F1F4BFD502D639D7F8013B96CE
:100C98009BD4FE013E964AD7F1D5CED691F4F80101
:100CA800E385E07161F0C4D488D590DB3DD5A7D445
:100CB80041F4CBD68CD6C4D637D5BED611F4E0E0F5
:100CC80001C0E1E0ADD8A19608952497A4D846D6EE
:100CD800BFD631F587D48AD4DFD519F4E4E09DD4A2
:100CE8001FC0CCD527D68FD5D2D509D7DCD5E07192
:100CF80049F085D5C8DBE03099F468D519F0E7E00C
:100D08008CD40EC021D67BD459F4D801E5EEEC93EF
:100D18001BD692D629F49DD550D577DF83D82CC41D
:100D280006D62AC472D611F0AFD616C094D629F4C6
:100D380090D543D532D628D606C0E5D53ED59BD624
:100D480018D6E03049F461DFE03031F4C3D6CBD6B1
:100D58009DDEE03009F441C045D434C058D82FE9AD
:100D680033E040EC53E001E2D9011C91DA01EC9147
:100D7800D901EC93E12FDA01EC932F5F3F4F4F5FDE
:100D88005F4F0150003081F749D8F6C32BD405D600
:100D9800F2D558D6EBD5B1F40ED6CDD674D715C04A
:100DA800E2E0E51511F4E1E00BC071D4C4D66BD7CD
:100DB8000CC02BD621F485D608C027D629F0E3E04D
:100DC800E0938403E1E0089585D6E0938003F093EF
:100DD80081036093820370938303E0E00895E881C0
:100DE800EFB9779BFECF21960895EFEFEFB9779B88
:100DF800FECFEFB108950FD8E0E0E91531F4AE81E8
:100E0800A13511F0A83509F401C007C0AA81BB813A
:100E18008C819D81E9E0F9D68DD5C298EE8193D673
:100E2800ED8191D6EC818FD6EB818DD6EA818BD678
:100E3800AE81A83411F4E7E801C0E5E984D600E002
:100E4800D4DF1E2FEF3F19F40F5F0030C9F71030C1
:100E580019F4AE81AA3709F006C0C7DFE0749E2EE8
:100E6800C4DFC3DFC2DFC29AC0DFE12FDBD727961A
:100E780008951A9310E0E7E768D6E9E6EA93E0E018
:100E8800F0E060E070E465D611F4E0E00AC21150C9
:100E9800103089F7E1E005C21A9399241AE010305E
:100EA80019F0A3DF1150FBCFE0E44FD6E130A9F4ED
:100EB80010E0E8E4EA93EAEAF1E060E070E049D69D
:100EC80009F011E0D6DFE03041F4103021F0EAE714
:100ED8003CD6E03011F4E0E0E4C1E1E0E2C11A936D
:100EE800C29AE2E5EDB9E0E0EEB91AE0D5DFE0300C
:100EF80031F01150103011F430D6D3C1F7CFE0E5FE
:100F0800EDB9709AE1E0F0E02CD6E0E0CAC183D7F1
:100F180000E010E06ADFAE2FEA81EA1719F4E0E09A
:100F280081D7AEC0F80131968F01A1F700D5A8C0CE
:100F380070D7E1E5EA93E985FA856B857C8509D662
:100F480061F5C298EEEFEA93E2DFE03031F520E098
:100F580032E0022E032AD9F048DF1E2F04D630973C
:100F680029F001D63197EE83FF830EC05CD5309708
:100F780059F059D53197EC83FD83EC85FD85319681
:100F8800EC87FD873197108321503040E2CF2DDF69
:100F98002CDFC29A2ADFE0E002C0C29ADED540D731
:100FA8002E96089538D7E8E5EA93EB81FC816D81A8
:100FB8007E81CFD509F5C298EEEFC5D500E012E0E5
:100FC80003D549F0AE81BF81ED91AE83BF83BBD518
:100FD80001501040F5CFEFEFB6D5EFEFB4D505DFF0
:100FE800EF71E53049F4EFEFEA9391DFE03021F457
:100FF800C29AFBDEE0E002C0C29AAFD513D72896AA
:101008000895A7D4309769F041D53196EA83FB83D8
:101018003197FF93EF9356D8AF91BF91EC93A6D534
:10102800F0CF9FC1F6D620E831E0A5D5E5E5F3E09D
:10103800E217F30749F03F932F932F5F3F4FE12FBC
:10104800AF91BF91EC9302C0EBE0E7D2103069F7A3
:10105800E7D687C17ED4309741F0AA81BB81ED9154
:10106800AA83BB838BD582D5F5CF7BC1E881E030DD
:1010780039F0CED4E49182D5E881E150E883F6CF07
:10108800239608952297C3D60A2C0B2809F466C024
:1010980094DEE03009F066C047D3EF7FF1706070EE
:1010A8007070A0E0B2E080E090E08CD69BD58F0114
:1010B800A016B10608F48501A01AB10A4DD472D45D
:1010C800A8DCE03009F04EC012D4EE83FF8315D4BB
:1010D800A1F1E0E0E88750918001E0918101E0937F
:1010E80080015093810150918201E0918301E09346
:1010F800820150938301E7E441D52ED441D543D5ED
:1011080032D53496EE83FF8304501040E09182017B
:10111800F0918301A0918001B0918101EA1BFB0B42
:1011280031969F012017310710F4890106C0201B52
:10113800310B2A153B0508F49801EFE41FD5EDB7EC
:10114800FEB7319741D21F930F931AD50F911F9174
:101158000AD53AD227D47EDF16D596CF16D511F404
:10116800E4E45BD25BD6299608956CD49ED7E6E377
:10117800F0E02AD2E0E1EA9379DF0895E091800176
:10118800E03029F4E9D3E7E4F0E01ED205D2F9DB38
:10119800E03009F00895EFEFFFEF5F01FAD409F0AE
:1011A8000895C2D2F9D420F4A0908003B0908103AE
:1011B800E4E0F0E0AE16BF0610F4AA24BB2442D443
:1011C80061DF0895EED4E0E0E093800104C0ECD440
:1011D800DCD409F00895D2DF089564971CD622DF85
:1011E800EDB7FEB73197F0D11F930F93DFD40F916E
:1011F8001F91D7D4CAD4C1F5A0918001AA3319F0A0
:10120800CADBE03089F5E0D361F152D9E03061F50D
:1012180043D311F4E3E426C0FE013296D5D12BD393
:10122800ECE0F0E0D1D19AD1FE013E96CDD1ECE7C9
:10123800F3E08ED2C9D192D1FE017296C5D1E6E70C
:10124800F3E086D2C1D18AD1E5E498D4FE01329682
:10125800BBD1E4E1F0E0B8D1FDDE95D401501040F7
:10126800D2CFEAE0E0938403DDD5669608951A9319
:1012780082D49AD4153611F471DD0FC0143611F4E6
:1012880024DD0BC0103011F47CDB07C0133018F4D8
:101298001A9321DA02C0ECE0C0D177D411F4E3E468
:1012A800BCD11991089580D459D315DAE6E4EA93AC
:1012B800FCD602D779D469D409F4B8DC66D411F421
:1012C800E3E4ABD1089524971A9355D4FE013196DF
:1012D8003FD27AD196DE65D4143629F45AD411F067
:1012E800188158C11BC0153631F45ADDE03011F0B1
:1012F800188150C113C0163631F448DDE03011F0C2
:10130800188148C10BC0E981FA816B817C8155D570
:101318001A93D8DBE03011F018813CC1E3E42ED4F5
:10132800E0E8F3E015D250D195DEE0E076D11881FF
:1013380031C12497EAE0F0E047D138D432D429D437
:1013480081F4F2D17FD139DDE03059F405D278D17A
:1013580049D478D175D120D410F4A880B980FED2B0
:1013680091DE24960895E5E8F3E02ED11FD419D430
:10137800D8D3309711F4D6DC1CC0E7DBE03009F095
:101388000895E6E4FBD3E0E8F3E01ED1F9D394D660
:10139800E0918203F0918303E6D216D1D0D214D122
:1013A80030DEFFD313DCE03009F00895BAD330976C
:1013B80021F7E3E432D10895C09AFBD3C098F9D35A
:1013C800FBCFEFEFE1BBE0E0E4BBEDE2E7BBE1E13F
:1013D800E8BBEFD388D6E03009F0EEDFBDD2E6E512
:1013E800F0E0F2D0D9D0CDDAE03009F0E5DFD1D3A2
:1013F80009F0E2DFB1D1A730E0E0BE07E0E08E07F8
:10140800E0E09E0708F4D8DFA7D1A138E0E0BE07E6
:10141800E0E08E07E0E09E0708F0CEDFE0E0F1E0D4
:10142800D3D08DD2D1D0F5DAE03009F0C5DFC0983D
:10143800AF93EF93FF93F1E0E3B3EF73A6B3A07418
:10144800EA2BE081E2BBE3B3EF73A6B3A074EA2B07
:10145800E434B9F7E081E2BBE3B3EF73A6B3A07459
:10146800EA2BE434C9F3E03461F7E081E2BBE3B38B
:10147800EF73A6B3A074EA2BE034C9F3E03009F7A0
:10148800FF91EF91AF91C09AE0E4EA930ED67BD337
:1014980052D7E03019F0E2E071D343C0E2E46ED3F2
:1014A8000BD669D3E0E0B9D019D2309711F48ADEAF
:1014B80032C0E130A0E0FA0711F457DE2CC0E23068
:1014C800A0E0FA0711F483DE26C0E330A0E0FA07B3
:1014D80011F483DE20C0E430A0E0FA0711F4C7DE7F
:1014E8001AC0E530A0E0FA0711F4EDDE14C0E630CA
:1014F800A0E0FA0711F41DDF0EC0E730A0E0FA07FC
:1015080011F431DF08C0E830A0E0FA0711F4CBDEAF
:1015180002C0ECE082D039D321F0E0918403EA9351
:10152800C4D5B9D5EFEFE1BBC09882CFFFCF66270E
:10153800772789919991E991F991A991B9910096A3
:1015480029F001976D9171916717C9F3671B10F422
:10155800EFEF0895E0E009F0E39508959981888117
:10156800009641F0BD81AC81FB81EA8161916D9368
:101578000197E1F7FD81EC8126960895B981A8814C
:10158800109631F0FC81EB816A8161931197E9F73C
:10159800EB81FC8125960895E991F991A991B9917A
:1015A800CD0105900D920020E1F7FC010895E0E8D7
:1015B800F1E0FA93EA93EA81FB816C817D81FDD3A6
:1015C8000895E0E0F0E00895FA93EA930895FCDFC7
:1015D800AFCCE0939B03F0939C0360939D037093BF
:1015E8009E030895E0E0E0939F030895E0E0E09310
:1015F800C0030895E885F9856A857B850895DDD35C
:1016080068D5E0300895A885B9858A859B850895B1
:10161800E887F9876A877B87EDCFE093840308958D
:10162800662777270895EC83FD836E837F8308956B
:10163800EC81FD816E817F810895F2DFB4D3089536
:10164800A8D30895B0D30895E0918E01F0918F0149
:101658000895E6DFBDD20895EBDFA0918703B0912E
:1016680088038091890390918A030895F0E0089592
:10167800AC81BD818E819F81089500D308958ED35A
:101688000895DF01CB010895E42DF0DFF6CFA09196
:101698008F03B091900380919103909192030895E4
:1016A800E0939303F09394036093950370939603E8
:1016B8000895EF5FFF4F6F4F7F4F0895E0917C03D0
:1016C800F0917D0360917E0370917F030895AFEFE1
:1016D800BFEF8FEF9FEF6CD308958CDF6ED300D5EB
:1016E800E0300895E0E8F3E06FDFA0918003B09167
:1016F800810380918203909183030895E0E0F1E0F3
:1017080060E070E0F3D20895A0918703B091880358
:101718008091890390918A035BD24FD3A091800373
:101728000895E2E0F0E00895E0918003F0918103EC
:1017380060918203709183030895E0E8F0E060E02F
:1017480070E0D4D20895BB27E0E8F0E0F7D208951E
:101758003BDFE4E0F0E00895A0918003B0918103BD
:1017680080918203909183030895A230E0E0BE0740
:10177800E0E08E07E0E09E070895E0918F03F09186
:1017880090036091910370919203E6DF3BD3089533
:10179800E0E0E0938003E0938103E0938203E09329
:1017A800830308956EDF70CFA0919703B0919803DB
:1017B8008091990390919A030895E0938003F093A0
:1017C800810360938203709383030895E091A003DB
:1017D800E0300895A091A103B091A2030895A091CB
:1017E800A303B091A4038091A5039091A603FFD20F
:1017F8000895E7DEE093A103F093A2030895E0E0E3
:10180800E093A0030895E091A103F091A203089545
:10181800B1D24FDFB9D20895E091A303F091A403A8
:101828006091A5037091A60308957EDFE093A3035A
:10183800F093A4036093A5037093A603C7D574DF40
:10184800E093A703F093A8036093A9037093AA03F6
:101858000895E091AB03F091AC036091AD037091F2
:10186800AE030895E0919303F0919403609195037A
:10187800709196030895E0E6F3E0A6CEE091A70301
:10188800F091A8036091A9037091AA030895EF70DD
:10189800F070EE0FD2D10895E0916003E030089522
:1018A800A09160030895E0916B030895A0919F03B0
:1018B80008958ED182D214C4A0918703B091880371
:1018C8008091890390918A030895E0919B03F09198
:1018D8009C0360919D0370919E030895E12FC6CEED
:1018E800A0E8B1E0EE0FFF1FEA0FFB1F0895E0E844
:1018F800F1E00895EA0FFB1F0895E885E0300895A8
:10190800ABEBB3E085CFEFEFFFEF6FEF7FE008952C
:10191800AA85BB858C859D850895EE83FF8368879E
:1019280079870895EE81FF81688579850895E1E0DA
:1019380079D20895EA83FB836C837D830895E091CF
:101948008003F09181030895EA81FB816C817D8198
:101958000895E881F9810895CADF36CEE0E0EA9378
:10196800089532DE0BCEE058FE4F0895C3D5E0301F
:10197800089523D217C6E093BB03F093BC0360938A
:10198800BD037093BE030895E093AB03F093AC03DB
:101998006093AD037093AE030895E0E0F0E060E07B
:1019A80070E008951A930A930895E5E5F3E00CCEE4
:1019B800EBE0F0E00895A091BB03B091BC038091E7
:1019C800BD039091BE030895002E012A0895E09169
:1019D800BB03F091BC036091BD037091BE030895F1
:1019E800E093B303F093B4036093B5037093B60325
:1019F800D4DFE093AF03F093B0036093B103709327
:101A0800B203E1E0E0939F03089550DFA130089509
:101A1800E981FA813196E983FA8331970895E0E202
:101A2800EA93C6DF9ECFEC81FD810895C1DFCCDD4E
:101A380095DDE989E0300895C0D152D3E0300895AA
:101A4800BCD1FCC5E1E0EA930895E0EAF1E0BCCD41
:101A580042D6E0300895E091AF03F091B003609171
:101A6800B1037091B203BBD10895E091AF03F09137
:101A7800B003F1700895E091B703F091B803609155
:101A8800B9037091BA030895E3E0C7CDEA81FB81F9
:101A98000895A0E0B2E0AE1BBF0B8D010895A091A0
:101AA800AF03B091B0038091B1039091B203089550
:101AB800E093AF03F093B0036093B1037093B20364
:101AC8000895E091B303F091B4036091B503709168
:101AD800B6030895E091AF03F091B0036091B103AC
:101AE8007091B2030895E093B303F093B403609345
:101AF800B5037093B603E1E0E093BF03089533DFC5
:101B08008F010895ED83FE836F8378870895AD81F3
:101B1800BE818F8198850895ED81FE816F817885DA
:101B28000895E0918503F091860308954DDDE5E180
:101B3800F0E04ADD13CDEAE074D0EF5FFF4F6F4F5E
:101B48007F4F8DD02FCEEA934AC9EA9326DF35D14D
:101B580052C933D150D9E0300895E2E05EDDE1E0CA
:101B6800089532DD29C0EE81FF810895F2DE3197B4
:101B7800E883F9830895A6D21E2F0895EA93A5C293
:101B8800D0DD22DD67CAE1E4F9CFE0918403E030DB
:101B980008950FD9E0300895D501882799272DD1C8
:101BA8000895E1E4EA9381C23DDAFBCFBADD0CDDAA
:101BB80028CAE4E6F0E0D5CFE991F991309639F0FA
:101BC80080ED97E00197F1F7A8953197C9F7089547
:101BD800EA0FFB1F681F791F0895AE0FBF1F861FEE
:101BE800971F0895EA1BFB0B680B790B0895AE1B32
:101BF800BF0B860B970B0895EA2BFB2B682B792BD1
:101C08000895F195E195F0400895EE230E2EFD011B
:101C1800BC0131F0EE0FFF1F661F771F0A94D1F742
:101C28000895EE230E2EFD01BC0131F076956795DF
:101C3800F795E7950A94D1F70895EE0FFF1FEE0F79
:101C4800FF1FEE0FFF1FEE0FFF1F0895F695E79594
:101C5800F695E795F695E795F695E79508957695BF
:101C68006795F795E7950895E62FF72F60E070E000
:101C780008956E2F7F2FE0E0F0E008956F2F660F34
:101C8800660B762F08957A9F702D6B9F700DF89FC5
:101C9800700DE99F700D6A9F602D710DFB9F600D9F
:101CA800711DE89F600D711D8827FA9FF02D610D49
:101CB800781FEB9FF00D611D781FEA9FE02DF10D55
:101CC800681F781F08950024112490E1AA0FBB1FF4
:101CD800001C111C0E1A1F0A18F40E0E1F1E01C03C
:101CE800A1609A9599F7FD01D00108953F934F930C
:101CF8005F93002411244427552730E2AA0FBB1F05
:101D0800881F991F001C111C441F551F0E1A1F0AFB
:101D1800460B570B28F40E0E1F1E461F571F01C0F7
:101D2800A1603A9559F7FD01BC01D001CA015F9144
:101D38004F913F910895C7DFFD010895E894B7FFDB
:101D480004C0A095B09511966894F7FD5ADFBBDFE3
:101D5800FD010EF456DF0895C9DFFD01BC010895A9
:101D6800ED91FC9111970895ED91FD916D917C9104
:101D780013970895ED91FD916D917D910895ED93DF
:101D8800FD936D937C9308957E936E93FE93EE93EB
:101D98000895E881F9816A817B810895A881B981D4
:101DA8008A819B810895E883F9836A837B830895F8
:101DB800A083B1838283938308957A936A93FA9375
:101DC800EA930895182E862F612D192E972F712DBD
:101DD8001B2EBF2FF12D1A2EAE2FE12D089530970F
:101DE80060407040089500240A160B0608950024E8
:101DF8000A160B06080609060895EA17FB0768077E
:101E080079070895AE17BF078607970708955A936D
:101E18004A933A932A931A930A9308955D814C81C1
:101E28003B812A81198108810895099119910895A2
:00000001FF
